{
  "_format": "hh-sol-artifact-1",
  "contractName": "LearnDAOGovernor",
  "sourceName": "contracts/LearnGovernor.sol",
  "abi": [
    {
      "inputs": [
        {
          "internalType": "contract ERC20Votes",
          "name": "_token",
          "type": "address"
        },
        {
          "internalType": "string",
          "name": "_name",
          "type": "string"
        }
      ],
      "stateMutability": "nonpayable",
      "type": "constructor"
    },
    {
      "anonymous": false,
      "inputs": [
        {
          "indexed": false,
          "internalType": "uint256",
          "name": "proposalId",
          "type": "uint256"
        }
      ],
      "name": "ProposalCanceled",
      "type": "event"
    },
    {
      "anonymous": false,
      "inputs": [
        {
          "indexed": false,
          "internalType": "uint256",
          "name": "proposalId",
          "type": "uint256"
        },
        {
          "indexed": false,
          "internalType": "address",
          "name": "proposer",
          "type": "address"
        },
        {
          "indexed": false,
          "internalType": "address[]",
          "name": "targets",
          "type": "address[]"
        },
        {
          "indexed": false,
          "internalType": "uint256[]",
          "name": "values",
          "type": "uint256[]"
        },
        {
          "indexed": false,
          "internalType": "string[]",
          "name": "signatures",
          "type": "string[]"
        },
        {
          "indexed": false,
          "internalType": "bytes[]",
          "name": "calldatas",
          "type": "bytes[]"
        },
        {
          "indexed": false,
          "internalType": "uint256",
          "name": "startBlock",
          "type": "uint256"
        },
        {
          "indexed": false,
          "internalType": "uint256",
          "name": "endBlock",
          "type": "uint256"
        },
        {
          "indexed": false,
          "internalType": "string",
          "name": "description",
          "type": "string"
        }
      ],
      "name": "ProposalCreated",
      "type": "event"
    },
    {
      "anonymous": false,
      "inputs": [
        {
          "indexed": false,
          "internalType": "uint256",
          "name": "proposalId",
          "type": "uint256"
        }
      ],
      "name": "ProposalExecuted",
      "type": "event"
    },
    {
      "anonymous": false,
      "inputs": [
        {
          "indexed": false,
          "internalType": "uint256",
          "name": "oldProposalThreshold",
          "type": "uint256"
        },
        {
          "indexed": false,
          "internalType": "uint256",
          "name": "newProposalThreshold",
          "type": "uint256"
        }
      ],
      "name": "ProposalThresholdSet",
      "type": "event"
    },
    {
      "anonymous": false,
      "inputs": [
        {
          "indexed": false,
          "internalType": "uint256",
          "name": "oldQuorumNumerator",
          "type": "uint256"
        },
        {
          "indexed": false,
          "internalType": "uint256",
          "name": "newQuorumNumerator",
          "type": "uint256"
        }
      ],
      "name": "QuorumNumeratorUpdated",
      "type": "event"
    },
    {
      "anonymous": false,
      "inputs": [
        {
          "indexed": true,
          "internalType": "address",
          "name": "voter",
          "type": "address"
        },
        {
          "indexed": false,
          "internalType": "uint256",
          "name": "proposalId",
          "type": "uint256"
        },
        {
          "indexed": false,
          "internalType": "uint8",
          "name": "support",
          "type": "uint8"
        },
        {
          "indexed": false,
          "internalType": "uint256",
          "name": "weight",
          "type": "uint256"
        },
        {
          "indexed": false,
          "internalType": "string",
          "name": "reason",
          "type": "string"
        }
      ],
      "name": "VoteCast",
      "type": "event"
    },
    {
      "anonymous": false,
      "inputs": [
        {
          "indexed": false,
          "internalType": "uint256",
          "name": "oldVotingDelay",
          "type": "uint256"
        },
        {
          "indexed": false,
          "internalType": "uint256",
          "name": "newVotingDelay",
          "type": "uint256"
        }
      ],
      "name": "VotingDelaySet",
      "type": "event"
    },
    {
      "anonymous": false,
      "inputs": [
        {
          "indexed": false,
          "internalType": "uint256",
          "name": "oldVotingPeriod",
          "type": "uint256"
        },
        {
          "indexed": false,
          "internalType": "uint256",
          "name": "newVotingPeriod",
          "type": "uint256"
        }
      ],
      "name": "VotingPeriodSet",
      "type": "event"
    },
    {
      "inputs": [],
      "name": "BALLOT_TYPEHASH",
      "outputs": [
        {
          "internalType": "bytes32",
          "name": "",
          "type": "bytes32"
        }
      ],
      "stateMutability": "view",
      "type": "function"
    },
    {
      "inputs": [],
      "name": "COUNTING_MODE",
      "outputs": [
        {
          "internalType": "string",
          "name": "",
          "type": "string"
        }
      ],
      "stateMutability": "pure",
      "type": "function"
    },
    {
      "inputs": [
        {
          "internalType": "string",
          "name": "",
          "type": "string"
        }
      ],
      "name": "acceptedProposal",
      "outputs": [
        {
          "internalType": "address",
          "name": "",
          "type": "address"
        }
      ],
      "stateMutability": "view",
      "type": "function"
    },
    {
      "inputs": [
        {
          "internalType": "uint256",
          "name": "_amount",
          "type": "uint256"
        }
      ],
      "name": "addMember",
      "outputs": [],
      "stateMutability": "nonpayable",
      "type": "function"
    },
    {
      "inputs": [
        {
          "internalType": "uint256",
          "name": "proposalId",
          "type": "uint256"
        },
        {
          "internalType": "uint8",
          "name": "support",
          "type": "uint8"
        }
      ],
      "name": "castVote",
      "outputs": [
        {
          "internalType": "uint256",
          "name": "",
          "type": "uint256"
        }
      ],
      "stateMutability": "nonpayable",
      "type": "function"
    },
    {
      "inputs": [
        {
          "internalType": "uint256",
          "name": "proposalId",
          "type": "uint256"
        },
        {
          "internalType": "uint8",
          "name": "support",
          "type": "uint8"
        },
        {
          "internalType": "uint8",
          "name": "v",
          "type": "uint8"
        },
        {
          "internalType": "bytes32",
          "name": "r",
          "type": "bytes32"
        },
        {
          "internalType": "bytes32",
          "name": "s",
          "type": "bytes32"
        }
      ],
      "name": "castVoteBySig",
      "outputs": [
        {
          "internalType": "uint256",
          "name": "",
          "type": "uint256"
        }
      ],
      "stateMutability": "nonpayable",
      "type": "function"
    },
    {
      "inputs": [
        {
          "internalType": "uint256",
          "name": "proposalId",
          "type": "uint256"
        },
        {
          "internalType": "uint8",
          "name": "support",
          "type": "uint8"
        },
        {
          "internalType": "string",
          "name": "reason",
          "type": "string"
        }
      ],
      "name": "castVoteWithReason",
      "outputs": [
        {
          "internalType": "uint256",
          "name": "",
          "type": "uint256"
        }
      ],
      "stateMutability": "nonpayable",
      "type": "function"
    },
    {
      "inputs": [
        {
          "internalType": "string",
          "name": "_id",
          "type": "string"
        },
        {
          "internalType": "address",
          "name": "_user",
          "type": "address"
        },
        {
          "internalType": "uint256",
          "name": "_amount",
          "type": "uint256"
        }
      ],
      "name": "disburseIncentive",
      "outputs": [],
      "stateMutability": "nonpayable",
      "type": "function"
    },
    {
      "inputs": [
        {
          "internalType": "address[]",
          "name": "targets",
          "type": "address[]"
        },
        {
          "internalType": "uint256[]",
          "name": "values",
          "type": "uint256[]"
        },
        {
          "internalType": "bytes[]",
          "name": "calldatas",
          "type": "bytes[]"
        },
        {
          "internalType": "bytes32",
          "name": "descriptionHash",
          "type": "bytes32"
        }
      ],
      "name": "execute",
      "outputs": [
        {
          "internalType": "uint256",
          "name": "",
          "type": "uint256"
        }
      ],
      "stateMutability": "payable",
      "type": "function"
    },
    {
      "inputs": [
        {
          "internalType": "address",
          "name": "account",
          "type": "address"
        },
        {
          "internalType": "uint256",
          "name": "blockNumber",
          "type": "uint256"
        }
      ],
      "name": "getVotes",
      "outputs": [
        {
          "internalType": "uint256",
          "name": "",
          "type": "uint256"
        }
      ],
      "stateMutability": "view",
      "type": "function"
    },
    {
      "inputs": [
        {
          "internalType": "uint256",
          "name": "proposalId",
          "type": "uint256"
        },
        {
          "internalType": "address",
          "name": "account",
          "type": "address"
        }
      ],
      "name": "hasVoted",
      "outputs": [
        {
          "internalType": "bool",
          "name": "",
          "type": "bool"
        }
      ],
      "stateMutability": "view",
      "type": "function"
    },
    {
      "inputs": [
        {
          "internalType": "address[]",
          "name": "targets",
          "type": "address[]"
        },
        {
          "internalType": "uint256[]",
          "name": "values",
          "type": "uint256[]"
        },
        {
          "internalType": "bytes[]",
          "name": "calldatas",
          "type": "bytes[]"
        },
        {
          "internalType": "bytes32",
          "name": "descriptionHash",
          "type": "bytes32"
        }
      ],
      "name": "hashProposal",
      "outputs": [
        {
          "internalType": "uint256",
          "name": "",
          "type": "uint256"
        }
      ],
      "stateMutability": "pure",
      "type": "function"
    },
    {
      "inputs": [],
      "name": "name",
      "outputs": [
        {
          "internalType": "string",
          "name": "",
          "type": "string"
        }
      ],
      "stateMutability": "view",
      "type": "function"
    },
    {
      "inputs": [
        {
          "internalType": "uint256",
          "name": "proposalId",
          "type": "uint256"
        }
      ],
      "name": "proposalDeadline",
      "outputs": [
        {
          "internalType": "uint256",
          "name": "",
          "type": "uint256"
        }
      ],
      "stateMutability": "view",
      "type": "function"
    },
    {
      "inputs": [
        {
          "internalType": "uint256",
          "name": "proposalId",
          "type": "uint256"
        }
      ],
      "name": "proposalSnapshot",
      "outputs": [
        {
          "internalType": "uint256",
          "name": "",
          "type": "uint256"
        }
      ],
      "stateMutability": "view",
      "type": "function"
    },
    {
      "inputs": [],
      "name": "proposalThreshold",
      "outputs": [
        {
          "internalType": "uint256",
          "name": "",
          "type": "uint256"
        }
      ],
      "stateMutability": "view",
      "type": "function"
    },
    {
      "inputs": [
        {
          "internalType": "uint256",
          "name": "proposalId",
          "type": "uint256"
        }
      ],
      "name": "proposalVotes",
      "outputs": [
        {
          "internalType": "uint256",
          "name": "againstVotes",
          "type": "uint256"
        },
        {
          "internalType": "uint256",
          "name": "forVotes",
          "type": "uint256"
        },
        {
          "internalType": "uint256",
          "name": "abstainVotes",
          "type": "uint256"
        }
      ],
      "stateMutability": "view",
      "type": "function"
    },
    {
      "inputs": [
        {
          "internalType": "address[]",
          "name": "targets",
          "type": "address[]"
        },
        {
          "internalType": "uint256[]",
          "name": "values",
          "type": "uint256[]"
        },
        {
          "internalType": "bytes[]",
          "name": "calldatas",
          "type": "bytes[]"
        },
        {
          "internalType": "string",
          "name": "description",
          "type": "string"
        }
      ],
      "name": "propose",
      "outputs": [
        {
          "internalType": "uint256",
          "name": "",
          "type": "uint256"
        }
      ],
      "stateMutability": "nonpayable",
      "type": "function"
    },
    {
      "inputs": [
        {
          "internalType": "uint256",
          "name": "blockNumber",
          "type": "uint256"
        }
      ],
      "name": "quorum",
      "outputs": [
        {
          "internalType": "uint256",
          "name": "",
          "type": "uint256"
        }
      ],
      "stateMutability": "view",
      "type": "function"
    },
    {
      "inputs": [],
      "name": "quorumDenominator",
      "outputs": [
        {
          "internalType": "uint256",
          "name": "",
          "type": "uint256"
        }
      ],
      "stateMutability": "view",
      "type": "function"
    },
    {
      "inputs": [],
      "name": "quorumNumerator",
      "outputs": [
        {
          "internalType": "uint256",
          "name": "",
          "type": "uint256"
        }
      ],
      "stateMutability": "view",
      "type": "function"
    },
    {
      "inputs": [],
      "name": "receiveEthForTransactions",
      "outputs": [],
      "stateMutability": "payable",
      "type": "function"
    },
    {
      "inputs": [
        {
          "internalType": "string",
          "name": "_id",
          "type": "string"
        },
        {
          "internalType": "address",
          "name": "user",
          "type": "address"
        }
      ],
      "name": "setAcceptedProposal",
      "outputs": [],
      "stateMutability": "nonpayable",
      "type": "function"
    },
    {
      "inputs": [
        {
          "internalType": "uint256",
          "name": "newProposalThreshold",
          "type": "uint256"
        }
      ],
      "name": "setProposalThreshold",
      "outputs": [],
      "stateMutability": "nonpayable",
      "type": "function"
    },
    {
      "inputs": [
        {
          "internalType": "uint256",
          "name": "newVotingDelay",
          "type": "uint256"
        }
      ],
      "name": "setVotingDelay",
      "outputs": [],
      "stateMutability": "nonpayable",
      "type": "function"
    },
    {
      "inputs": [
        {
          "internalType": "uint256",
          "name": "newVotingPeriod",
          "type": "uint256"
        }
      ],
      "name": "setVotingPeriod",
      "outputs": [],
      "stateMutability": "nonpayable",
      "type": "function"
    },
    {
      "inputs": [
        {
          "internalType": "uint256",
          "name": "proposalId",
          "type": "uint256"
        }
      ],
      "name": "state",
      "outputs": [
        {
          "internalType": "enum IGovernor.ProposalState",
          "name": "",
          "type": "uint8"
        }
      ],
      "stateMutability": "view",
      "type": "function"
    },
    {
      "inputs": [
        {
          "internalType": "bytes4",
          "name": "interfaceId",
          "type": "bytes4"
        }
      ],
      "name": "supportsInterface",
      "outputs": [
        {
          "internalType": "bool",
          "name": "",
          "type": "bool"
        }
      ],
      "stateMutability": "view",
      "type": "function"
    },
    {
      "inputs": [],
      "name": "token",
      "outputs": [
        {
          "internalType": "contract ERC20Votes",
          "name": "",
          "type": "address"
        }
      ],
      "stateMutability": "view",
      "type": "function"
    },
    {
      "inputs": [
        {
          "internalType": "uint256",
          "name": "newQuorumNumerator",
          "type": "uint256"
        }
      ],
      "name": "updateQuorumNumerator",
      "outputs": [],
      "stateMutability": "nonpayable",
      "type": "function"
    },
    {
      "inputs": [],
      "name": "version",
      "outputs": [
        {
          "internalType": "string",
          "name": "",
          "type": "string"
        }
      ],
      "stateMutability": "view",
      "type": "function"
    },
    {
      "inputs": [],
      "name": "votingDelay",
      "outputs": [
        {
          "internalType": "uint256",
          "name": "",
          "type": "uint256"
        }
      ],
      "stateMutability": "view",
      "type": "function"
    },
    {
      "inputs": [],
      "name": "votingPeriod",
      "outputs": [
        {
          "internalType": "uint256",
          "name": "",
          "type": "uint256"
        }
      ],
      "stateMutability": "view",
      "type": "function"
    },
    {
      "stateMutability": "payable",
      "type": "receive"
    }
  ],
  "bytecode": "0x610160604052735fbdb2315678afecb367f032d93f642f64180aa3600760006101000a81548173ffffffffffffffffffffffffffffffffffffffff021916908373ffffffffffffffffffffffffffffffffffffffff1602179055503480156200006757600080fd5b5060405162005b8838038062005b8883398181016040528101906200008d9190620005b9565b6004826000600260008580620000a86200024160201b60201c565b60008280519060200120905060008280519060200120905060007f8b73c3c69bb8fe3d512ecc4cf759cc79239f7b179b0ffacaa9a75d522b39400f90508260e081815250508161010081815250504660a08181525050620001118184846200027e60201b60201c565b608081815250503073ffffffffffffffffffffffffffffffffffffffff1660c08173ffffffffffffffffffffffffffffffffffffffff1660601b81525050806101208181525050505050505080600090805190602001906200017592919062000480565b50506200018883620002ba60201b60201c565b62000199826200030160201b60201c565b620001aa816200038e60201b60201c565b5050508073ffffffffffffffffffffffffffffffffffffffff166101408173ffffffffffffffffffffffffffffffffffffffff1660601b8152505050620001f781620003d560201b60201c565b5081600860006101000a81548173ffffffffffffffffffffffffffffffffffffffff021916908373ffffffffffffffffffffffffffffffffffffffff160217905550505062000a1d565b60606040518060400160405280600181526020017f3100000000000000000000000000000000000000000000000000000000000000815250905090565b600083838346306040516020016200029b95949392919062000694565b6040516020818303038152906040528051906020012090509392505050565b7fc565b045403dc03c2eea82b81a0465edad9e2e7fc4d97e11421c209da93d7a9360025482604051620002ef92919062000735565b60405180910390a18060028190555050565b6000811162000347576040517f08c379a00000000000000000000000000000000000000000000000000000000081526004016200033e9062000713565b60405180910390fd5b7f7e3f7f0708a84de9203036abaa450dccc85ad5ff52f78c170f3edb55cf5e8828600354826040516200037c92919062000735565b60405180910390a18060038190555050565b7fccb45da8d5717e6c4544694297c4ba5cf151d455c9bb0ed4fc7a38411bc0546160045482604051620003c392919062000735565b60405180910390a18060048190555050565b620003e56200047760201b60201c565b8111156200042a576040517f08c379a00000000000000000000000000000000000000000000000000000000081526004016200042190620006f1565b60405180910390fd5b60006006549050816006819055507f0553476bf02ef2726e8ce5ced78d63e26e602e4a2257b1f559418e24b463399781836040516200046b92919062000735565b60405180910390a15050565b60006064905090565b8280546200048e9062000864565b90600052602060002090601f016020900481019282620004b25760008555620004fe565b82601f10620004cd57805160ff1916838001178555620004fe565b82800160010185558215620004fe579182015b82811115620004fd578251825591602001919060010190620004e0565b5b5090506200050d919062000511565b5090565b5b808211156200052c57600081600090555060010162000512565b5090565b60006200054762000541846200078b565b62000762565b9050828152602081018484840111156200056057600080fd5b6200056d8482856200082e565b509392505050565b600081519050620005868162000a03565b92915050565b600082601f8301126200059e57600080fd5b8151620005b084826020860162000530565b91505092915050565b60008060408385031215620005cd57600080fd5b6000620005dd8582860162000575565b925050602083015167ffffffffffffffff811115620005fb57600080fd5b62000609858286016200058c565b9150509250929050565b6200061e81620007d2565b82525050565b6200062f81620007e6565b82525050565b600062000644604383620007c1565b915062000651826200093f565b606082019050919050565b60006200066b602783620007c1565b91506200067882620009b4565b604082019050919050565b6200068e8162000824565b82525050565b600060a082019050620006ab600083018862000624565b620006ba602083018762000624565b620006c9604083018662000624565b620006d8606083018562000683565b620006e7608083018462000613565b9695505050505050565b600060208201905081810360008301526200070c8162000635565b9050919050565b600060208201905081810360008301526200072e816200065c565b9050919050565b60006040820190506200074c600083018562000683565b6200075b602083018462000683565b9392505050565b60006200076e62000781565b90506200077c82826200089a565b919050565b6000604051905090565b600067ffffffffffffffff821115620007a957620007a8620008ff565b5b620007b4826200092e565b9050602081019050919050565b600082825260208201905092915050565b6000620007df8262000804565b9050919050565b6000819050919050565b6000620007fd82620007d2565b9050919050565b600073ffffffffffffffffffffffffffffffffffffffff82169050919050565b6000819050919050565b60005b838110156200084e57808201518184015260208101905062000831565b838111156200085e576000848401525b50505050565b600060028204905060018216806200087d57607f821691505b60208210811415620008945762000893620008d0565b5b50919050565b620008a5826200092e565b810181811067ffffffffffffffff82111715620008c757620008c6620008ff565b5b80604052505050565b7f4e487b7100000000000000000000000000000000000000000000000000000000600052602260045260246000fd5b7f4e487b7100000000000000000000000000000000000000000000000000000000600052604160045260246000fd5b6000601f19601f8301169050919050565b7f476f7665726e6f72566f74657351756f72756d4672616374696f6e3a2071756f60008201527f72756d4e756d657261746f72206f7665722071756f72756d44656e6f6d696e6160208201527f746f720000000000000000000000000000000000000000000000000000000000604082015250565b7f476f7665726e6f7253657474696e67733a20766f74696e6720706572696f642060008201527f746f6f206c6f7700000000000000000000000000000000000000000000000000602082015250565b62000a0e81620007f0565b811462000a1a57600080fd5b50565b60805160a05160c05160601c60e05161010051610120516101405160601c6150fc62000a8c60003960008181611bd90152818161233f015261244901526000612620015260006126620152600061264101526000612576015260006125cc015260006125f501526150fc6000f3fe6080604052600436106101f25760003560e01c806370b0f6601161010d578063c59057e4116100a0578063ea0217cf1161006f578063ea0217cf146107a5578063eb9019d4146107ce578063ece40cc11461080b578063f8ce560a14610834578063fc0c546a1461087157610238565b8063c59057e414610708578063dd4e2ba514610745578063deaaa7cc14610770578063e6c0f7fe1461079b57610238565b806397c3d334116100dc57806397c3d3341461064a578063a7713a7014610675578063b58131b0146106a0578063c01f9e37146106cb57610238565b806370b0f6601461057e5780637b3c71d3146105a75780637d5e81e2146105e457806385d673821461062157610238565b80632d63f693116101855780634385963211610154578063438596321461049a578063544ffc9c146104d757806354fd4d5014610516578063567813881461054157610238565b80632d63f693146103b85780633932abb1146103f55780633bccf4fd146104205780633e4f49e61461045d57610238565b806306fdde03116101c157806306fdde03146102f75780631089f5ed1461032257806324de2ef61461034b5780632656227d1461038857610238565b806301ffc9a71461023d57806302a251a31461027a57806303b8d567146102a557806306f3f9e6146102ce57610238565b36610238573073ffffffffffffffffffffffffffffffffffffffff1661021661089c565b73ffffffffffffffffffffffffffffffffffffffff161461023657600080fd5b005b600080fd5b34801561024957600080fd5b50610264600480360381019061025f9190613345565b6108a4565b6040516102719190613e34565b60405180910390f35b34801561028657600080fd5b5061028f61091e565b60405161029c9190614261565b60405180910390f35b3480156102b157600080fd5b506102cc60048036038101906102c79190613403565b61092d565b005b3480156102da57600080fd5b506102f560048036038101906102f0919061346a565b610b1b565b005b34801561030357600080fd5b5061030c610ba3565b6040516103199190613f6f565b60405180910390f35b34801561032e57600080fd5b506103496004803603810190610344919061346a565b610c35565b005b34801561035757600080fd5b50610372600480360381019061036d919061336e565b610e68565b60405161037f9190613d36565b60405180910390f35b6103a2600480360381019061039d91906131ae565b610eb1565b6040516103af9190614261565b60405180910390f35b3480156103c457600080fd5b506103df60048036038101906103da919061346a565b61107c565b6040516103ec9190614261565b60405180910390f35b34801561040157600080fd5b5061040a6110ea565b6040516104179190614261565b60405180910390f35b34801561042c57600080fd5b50610447600480360381019061044291906135a0565b6110f9565b6040516104549190614261565b60405180910390f35b34801561046957600080fd5b50610484600480360381019061047f919061346a565b611183565b6040516104919190613f54565b60405180910390f35b3480156104a657600080fd5b506104c160048036038101906104bc91906134bc565b611360565b6040516104ce9190613e34565b60405180910390f35b3480156104e357600080fd5b506104fe60048036038101906104f9919061346a565b6113cb565b60405161050d93929190614355565b60405180910390f35b34801561052257600080fd5b5061052b611403565b6040516105389190613f6f565b60405180910390f35b34801561054d57600080fd5b50610568600480360381019061056391906134f8565b611440565b6040516105759190614261565b60405180910390f35b34801561058a57600080fd5b506105a560048036038101906105a0919061346a565b611471565b005b3480156105b357600080fd5b506105ce60048036038101906105c99190613534565b6114f9565b6040516105db9190614261565b60405180910390f35b3480156105f057600080fd5b5061060b60048036038101906106069190613259565b611561565b6040516106189190614261565b60405180910390f35b34801561062d57600080fd5b50610648600480360381019061064391906133af565b611887565b005b34801561065657600080fd5b5061065f6118e8565b60405161066c9190614261565b60405180910390f35b34801561068157600080fd5b5061068a6118f1565b6040516106979190614261565b60405180910390f35b3480156106ac57600080fd5b506106b56118fb565b6040516106c29190614261565b60405180910390f35b3480156106d757600080fd5b506106f260048036038101906106ed919061346a565b61190a565b6040516106ff9190614261565b60405180910390f35b34801561071457600080fd5b5061072f600480360381019061072a91906131ae565b611978565b60405161073c9190614261565b60405180910390f35b34801561075157600080fd5b5061075a6119b4565b6040516107679190613f6f565b60405180910390f35b34801561077c57600080fd5b506107856119f1565b6040516107929190613e4f565b60405180910390f35b6107a3611a15565b005b3480156107b157600080fd5b506107cc60048036038101906107c7919061346a565b611aa1565b005b3480156107da57600080fd5b506107f560048036038101906107f09190613172565b611b29565b6040516108029190614261565b60405180910390f35b34801561081757600080fd5b50610832600480360381019061082d919061346a565b611b3d565b005b34801561084057600080fd5b5061085b6004803603810190610856919061346a565b611bc5565b6040516108689190614261565b60405180910390f35b34801561087d57600080fd5b50610886611bd7565b6040516108939190613f39565b60405180910390f35b600030905090565b60007fbf26d897000000000000000000000000000000000000000000000000000000007bffffffffffffffffffffffffffffffffffffffffffffffffffffffff1916827bffffffffffffffffffffffffffffffffffffffffffffffffffffffff19161480610917575061091682611bfb565b5b9050919050565b6000610928611c65565b905090565b600073ffffffffffffffffffffffffffffffffffffffff166009846040516109559190613ce8565b908152602001604051809103902060009054906101000a900473ffffffffffffffffffffffffffffffffffffffff1673ffffffffffffffffffffffffffffffffffffffff1614156109db576040517f08c379a00000000000000000000000000000000000000000000000000000000081526004016109d290614141565b60405180910390fd5b8173ffffffffffffffffffffffffffffffffffffffff16600984604051610a029190613ce8565b908152602001604051809103902060009054906101000a900473ffffffffffffffffffffffffffffffffffffffff1673ffffffffffffffffffffffffffffffffffffffff1614610a87576040517f08c379a0000000000000000000000000000000000000000000000000000000008152600401610a7e90614021565b60405180910390fd5b600860009054906101000a900473ffffffffffffffffffffffffffffffffffffffff1673ffffffffffffffffffffffffffffffffffffffff166340c10f1983836040518363ffffffff1660e01b8152600401610ae4929190613db1565b600060405180830381600087803b158015610afe57600080fd5b505af1158015610b12573d6000803e3d6000fd5b50505050505050565b610b2361089c565b73ffffffffffffffffffffffffffffffffffffffff16610b41611c6f565b73ffffffffffffffffffffffffffffffffffffffff1614610b97576040517f08c379a0000000000000000000000000000000000000000000000000000000008152600401610b8e90613fe1565b60405180910390fd5b610ba081611c77565b50565b606060008054610bb2906148b5565b80601f0160208091040260200160405190810160405280929190818152602001828054610bde906148b5565b8015610c2b5780601f10610c0057610100808354040283529160200191610c2b565b820191906000526020600020905b815481529060010190602001808311610c0e57829003601f168201915b5050505050905090565b80600760009054906101000a900473ffffffffffffffffffffffffffffffffffffffff1673ffffffffffffffffffffffffffffffffffffffff1663dd62ed3e33306040518363ffffffff1660e01b8152600401610c93929190613d51565b60206040518083038186803b158015610cab57600080fd5b505afa158015610cbf573d6000803e3d6000fd5b505050506040513d601f19601f82011682018060405250810190610ce39190613493565b1015610d24576040517f08c379a0000000000000000000000000000000000000000000000000000000008152600401610d1b90614161565b60405180910390fd5b600760009054906101000a900473ffffffffffffffffffffffffffffffffffffffff1673ffffffffffffffffffffffffffffffffffffffff166323b872dd3330846040518463ffffffff1660e01b8152600401610d8393929190613d7a565b602060405180830381600087803b158015610d9d57600080fd5b505af1158015610db1573d6000803e3d6000fd5b505050506040513d601f19601f82011682018060405250810190610dd5919061331c565b50600860009054906101000a900473ffffffffffffffffffffffffffffffffffffffff1673ffffffffffffffffffffffffffffffffffffffff166340c10f1933836040518363ffffffff1660e01b8152600401610e33929190613db1565b600060405180830381600087803b158015610e4d57600080fd5b505af1158015610e61573d6000803e3d6000fd5b5050505050565b6009818051602081018201805184825260208301602085012081835280955050505050506000915054906101000a900473ffffffffffffffffffffffffffffffffffffffff1681565b600080610ec086868686611978565b90506000610ecd82611183565b905060046007811115610f09577f4e487b7100000000000000000000000000000000000000000000000000000000600052602160045260246000fd5b816007811115610f42577f4e487b7100000000000000000000000000000000000000000000000000000000600052602160045260246000fd5b1480610fbe575060056007811115610f83577f4e487b7100000000000000000000000000000000000000000000000000000000600052602160045260246000fd5b816007811115610fbc577f4e487b7100000000000000000000000000000000000000000000000000000000600052602160045260246000fd5b145b610ffd576040517f08c379a0000000000000000000000000000000000000000000000000000000008152600401610ff4906141e1565b60405180910390fd5b600180600084815260200190815260200160002060020160006101000a81548160ff0219169083151502179055507f712ae1383f79ac853f8d882153778e0260ef8f03b504e2866e0593e04d2b291f8260405161105a9190614261565b60405180910390a161106f8288888888611d0c565b8192505050949350505050565b60006110d9600160008481526020019081526020016000206000016040518060200160405290816000820160009054906101000a900467ffffffffffffffff1667ffffffffffffffff1667ffffffffffffffff1681525050611e8d565b67ffffffffffffffff169050919050565b60006110f4611e9b565b905090565b60008061115a6111527f150214d74d59b7d1e90c73fc22ef3d991dd0a76b046543d4d80ab92d2a50328f898960405160200161113793929190613ebd565b60405160208183030381529060405280519060200120611ea5565b868686611ebf565b905061117787828860405180602001604052806000815250611eea565b91505095945050505050565b60008060016000848152602001908152602001600020604051806080016040529081600082016040518060200160405290816000820160009054906101000a900467ffffffffffffffff1667ffffffffffffffff1667ffffffffffffffff16815250508152602001600182016040518060200160405290816000820160009054906101000a900467ffffffffffffffff1667ffffffffffffffff1667ffffffffffffffff168152505081526020016002820160009054906101000a900460ff161515151581526020016002820160019054906101000a900460ff161515151581525050905080604001511561127c57600791505061135b565b80606001511561129057600291505061135b565b4361129e8260000151611e8d565b67ffffffffffffffff16106112b757600091505061135b565b436112c58260200151611e8d565b67ffffffffffffffff16106112de57600191505061135b565b6112eb816020015161208a565b15611320576112f9836120b6565b801561130a5750611309836120fd565b5b611315576003611318565b60045b91505061135b565b6040517f08c379a000000000000000000000000000000000000000000000000000000000815260040161135290614201565b60405180910390fd5b919050565b60006005600084815260200190815260200160002060030160008373ffffffffffffffffffffffffffffffffffffffff1673ffffffffffffffffffffffffffffffffffffffff16815260200190815260200160002060009054906101000a900460ff16905092915050565b600080600080600560008681526020019081526020016000209050806000015481600101548260020154935093509350509193909250565b60606040518060400160405280600181526020017f3100000000000000000000000000000000000000000000000000000000000000815250905090565b60008061144b611c6f565b905061146884828560405180602001604052806000815250611eea565b91505092915050565b61147961089c565b73ffffffffffffffffffffffffffffffffffffffff16611497611c6f565b73ffffffffffffffffffffffffffffffffffffffff16146114ed576040517f08c379a00000000000000000000000000000000000000000000000000000000081526004016114e490613fe1565b60405180910390fd5b6114f681612128565b50565b600080611504611c6f565b905061155686828787878080601f016020809104026020016040519081016040528093929190818152602001838380828437600081840152601f19601f82011690508083019250505050505050611eea565b915050949350505050565b600061156b6118fb565b6115813360014361157c9190614745565b611b29565b10156115c2576040517f08c379a00000000000000000000000000000000000000000000000000000000081526004016115b990614041565b60405180910390fd5b60006115d78686868680519060200120611978565b9050845186511461161d576040517f08c379a000000000000000000000000000000000000000000000000000000000815260040161161490614081565b60405180910390fd5b8351865114611661576040517f08c379a000000000000000000000000000000000000000000000000000000000815260040161165890614081565b60405180910390fd5b60008651116116a5576040517f08c379a000000000000000000000000000000000000000000000000000000000815260040161169c90614181565b60405180910390fd5b6000600160008381526020019081526020016000209050611705816000016040518060200160405290816000820160009054906101000a900467ffffffffffffffff1667ffffffffffffffff1667ffffffffffffffff168152505061216d565b611744576040517f08c379a000000000000000000000000000000000000000000000000000000000815260040161173b90614241565b60405180910390fd5b60006117566117516110ea565b612187565b61175f43612187565b611769919061467c565b9050600061177d61177861091e565b612187565b82611788919061467c565b90506117a082846000016121de90919063ffffffff16565b6117b681846001016121de90919063ffffffff16565b7f7d84a6263ae0d98d3329bd7b46bb4e8d6f98cd35a7adb45c274c8b7fd5ebd5e0846117e0611c6f565b8b8b8d5167ffffffffffffffff811115611823577f4e487b7100000000000000000000000000000000000000000000000000000000600052604160045260246000fd5b60405190808252806020026020018201604052801561185657816020015b60608152602001906001900390816118415790505b508c88888e6040516118709998979695949392919061427c565b60405180910390a183945050505050949350505050565b806009836040516118989190613ce8565b908152602001604051809103902060006101000a81548173ffffffffffffffffffffffffffffffffffffffff021916908373ffffffffffffffffffffffffffffffffffffffff1602179055505050565b60006064905090565b6000600654905090565b600061190561220d565b905090565b6000611967600160008481526020019081526020016000206001016040518060200160405290816000820160009054906101000a900467ffffffffffffffff1667ffffffffffffffff1667ffffffffffffffff1681525050611e8d565b67ffffffffffffffff169050919050565b6000848484846040516020016119919493929190613dda565b6040516020818303038152906040528051906020012060001c9050949350505050565b60606040518060400160405280602081526020017f737570706f72743d627261766f2671756f72756d3d666f722c6162737461696e815250905090565b7f150214d74d59b7d1e90c73fc22ef3d991dd0a76b046543d4d80ab92d2a50328f81565b670de0b6b3a7640000341015611a60576040517f08c379a0000000000000000000000000000000000000000000000000000000008152600401611a5790614101565b60405180910390fd5b611a9f6040518060400160405280600d81526020017f5265636569766564203d3d3e200000000000000000000000000000000000000081525034612217565b565b611aa961089c565b73ffffffffffffffffffffffffffffffffffffffff16611ac7611c6f565b73ffffffffffffffffffffffffffffffffffffffff1614611b1d576040517f08c379a0000000000000000000000000000000000000000000000000000000008152600401611b1490613fe1565b60405180910390fd5b611b26816122b3565b50565b6000611b35838361233b565b905092915050565b611b4561089c565b73ffffffffffffffffffffffffffffffffffffffff16611b63611c6f565b73ffffffffffffffffffffffffffffffffffffffff1614611bb9576040517f08c379a0000000000000000000000000000000000000000000000000000000008152600401611bb090613fe1565b60405180910390fd5b611bc2816123f0565b50565b6000611bd082612435565b9050919050565b7f000000000000000000000000000000000000000000000000000000000000000081565b60007f01ffc9a7000000000000000000000000000000000000000000000000000000007bffffffffffffffffffffffffffffffffffffffffffffffffffffffff1916827bffffffffffffffffffffffffffffffffffffffffffffffffffffffff1916149050919050565b6000600354905090565b600033905090565b611c7f6118e8565b811115611cc1576040517f08c379a0000000000000000000000000000000000000000000000000000000008152600401611cb890614001565b60405180910390fd5b60006006549050816006819055507f0553476bf02ef2726e8ce5ced78d63e26e602e4a2257b1f559418e24b46339978183604051611d0092919061432c565b60405180910390a15050565b60006040518060600160405280602781526020016150a060279139905060005b8551811015611e8457600080878381518110611d71577f4e487b7100000000000000000000000000000000000000000000000000000000600052603260045260246000fd5b602002602001015173ffffffffffffffffffffffffffffffffffffffff16878481518110611dc8577f4e487b7100000000000000000000000000000000000000000000000000000000600052603260045260246000fd5b6020026020010151878581518110611e09577f4e487b7100000000000000000000000000000000000000000000000000000000600052603260045260246000fd5b6020026020010151604051611e1e9190613cd1565b60006040518083038185875af1925050503d8060008114611e5b576040519150601f19603f3d011682016040523d82523d6000602084013e611e60565b606091505b5091509150611e7082828661250b565b50505080611e7d90614918565b9050611d2c565b50505050505050565b600081600001519050919050565b6000600254905090565b6000611eb8611eb2612572565b8361268c565b9050919050565b6000806000611ed0878787876126bf565b91509150611edd816127cc565b8192505050949350505050565b60008060016000878152602001908152602001600020905060016007811115611f3c577f4e487b7100000000000000000000000000000000000000000000000000000000600052602160045260246000fd5b611f4587611183565b6007811115611f7d577f4e487b7100000000000000000000000000000000000000000000000000000000600052602160045260246000fd5b14611fbd576040517f08c379a0000000000000000000000000000000000000000000000000000000008152600401611fb490614121565b60405180910390fd5b600061201b8661200c846000016040518060200160405290816000820160009054906101000a900467ffffffffffffffff1667ffffffffffffffff1667ffffffffffffffff1681525050611e8d565b67ffffffffffffffff16611b29565b905061202987878784612b1d565b8573ffffffffffffffffffffffffffffffffffffffff167fb8e138887d0aa13bab447e82de9d5c1777041ecd21ca36ba824ff1e6c07ddda488878488604051612075949392919061438c565b60405180910390a28092505050949350505050565b600061209582612d95565b80156120af575043826000015167ffffffffffffffff1611155b9050919050565b600080600560008481526020019081526020016000209050806002015481600101546120e29190614626565b6120f36120ee8561107c565b611bc5565b1115915050919050565b6000806005600084815260200190815260200160002090508060000154816001015411915050919050565b7fc565b045403dc03c2eea82b81a0465edad9e2e7fc4d97e11421c209da93d7a936002548260405161215b92919061432c565b60405180910390a18060028190555050565b600080826000015167ffffffffffffffff16149050919050565b600067ffffffffffffffff80168211156121d6576040517f08c379a00000000000000000000000000000000000000000000000000000000081526004016121cd906141c1565b60405180910390fd5b819050919050565b808260000160006101000a81548167ffffffffffffffff021916908367ffffffffffffffff1602179055505050565b6000600454905090565b6122af828260405160240161222d929190613f91565b6040516020818303038152906040527f9710a9d0000000000000000000000000000000000000000000000000000000007bffffffffffffffffffffffffffffffffffffffffffffffffffffffff19166020820180517bffffffffffffffffffffffffffffffffffffffffffffffffffffffff8381831617835250505050612daf565b5050565b600081116122f6576040517f08c379a00000000000000000000000000000000000000000000000000000000081526004016122ed906140a1565b60405180910390fd5b7f7e3f7f0708a84de9203036abaa450dccc85ad5ff52f78c170f3edb55cf5e88286003548260405161232992919061432c565b60405180910390a18060038190555050565b60007f000000000000000000000000000000000000000000000000000000000000000073ffffffffffffffffffffffffffffffffffffffff16633a46b1a884846040518363ffffffff1660e01b8152600401612398929190613db1565b60206040518083038186803b1580156123b057600080fd5b505afa1580156123c4573d6000803e3d6000fd5b505050506040513d601f19601f820116820180604052508101906123e89190613493565b905092915050565b7fccb45da8d5717e6c4544694297c4ba5cf151d455c9bb0ed4fc7a38411bc054616004548260405161242392919061432c565b60405180910390a18060048190555050565b600061243f6118e8565b6124476118f1565b7f000000000000000000000000000000000000000000000000000000000000000073ffffffffffffffffffffffffffffffffffffffff16638e539e8c856040518263ffffffff1660e01b81526004016124a09190614261565b60206040518083038186803b1580156124b857600080fd5b505afa1580156124cc573d6000803e3d6000fd5b505050506040513d601f19601f820116820180604052508101906124f09190613493565b6124fa91906146eb565b61250491906146ba565b9050919050565b6060831561251b5782905061256b565b60008351111561252e5782518084602001fd5b816040517f08c379a00000000000000000000000000000000000000000000000000000000081526004016125629190613f6f565b60405180910390fd5b9392505050565b60007f000000000000000000000000000000000000000000000000000000000000000073ffffffffffffffffffffffffffffffffffffffff163073ffffffffffffffffffffffffffffffffffffffff161480156125ee57507f000000000000000000000000000000000000000000000000000000000000000046145b1561261b577f00000000000000000000000000000000000000000000000000000000000000009050612689565b6126867f00000000000000000000000000000000000000000000000000000000000000007f00000000000000000000000000000000000000000000000000000000000000007f0000000000000000000000000000000000000000000000000000000000000000612dd8565b90505b90565b600082826040516020016126a1929190613cff565b60405160208183030381529060405280519060200120905092915050565b6000807f7fffffffffffffffffffffffffffffff5d576e7357a4501ddfe92f46681b20a08360001c11156126fa5760006003915091506127c3565b601b8560ff16141580156127125750601c8560ff1614155b156127245760006004915091506127c3565b6000600187878787604051600081526020016040526040516127499493929190613ef4565b6020604051602081039080840390855afa15801561276b573d6000803e3d6000fd5b505050602060405103519050600073ffffffffffffffffffffffffffffffffffffffff168173ffffffffffffffffffffffffffffffffffffffff1614156127ba576000600192509250506127c3565b80600092509250505b94509492505050565b60006004811115612806577f4e487b7100000000000000000000000000000000000000000000000000000000600052602160045260246000fd5b81600481111561283f577f4e487b7100000000000000000000000000000000000000000000000000000000600052602160045260246000fd5b141561284a57612b1a565b60016004811115612884577f4e487b7100000000000000000000000000000000000000000000000000000000600052602160045260246000fd5b8160048111156128bd577f4e487b7100000000000000000000000000000000000000000000000000000000600052602160045260246000fd5b14156128fe576040517f08c379a00000000000000000000000000000000000000000000000000000000081526004016128f590613fc1565b60405180910390fd5b60026004811115612938577f4e487b7100000000000000000000000000000000000000000000000000000000600052602160045260246000fd5b816004811115612971577f4e487b7100000000000000000000000000000000000000000000000000000000600052602160045260246000fd5b14156129b2576040517f08c379a00000000000000000000000000000000000000000000000000000000081526004016129a990614061565b60405180910390fd5b600360048111156129ec577f4e487b7100000000000000000000000000000000000000000000000000000000600052602160045260246000fd5b816004811115612a25577f4e487b7100000000000000000000000000000000000000000000000000000000600052602160045260246000fd5b1415612a66576040517f08c379a0000000000000000000000000000000000000000000000000000000008152600401612a5d906140c1565b60405180910390fd5b600480811115612a9f577f4e487b7100000000000000000000000000000000000000000000000000000000600052602160045260246000fd5b816004811115612ad8577f4e487b7100000000000000000000000000000000000000000000000000000000600052602160045260246000fd5b1415612b19576040517f08c379a0000000000000000000000000000000000000000000000000000000008152600401612b10906141a1565b60405180910390fd5b5b50565b60006005600086815260200190815260200160002090508060030160008573ffffffffffffffffffffffffffffffffffffffff1673ffffffffffffffffffffffffffffffffffffffff16815260200190815260200160002060009054906101000a900460ff1615612bc3576040517f08c379a0000000000000000000000000000000000000000000000000000000008152600401612bba906140e1565b60405180910390fd5b60018160030160008673ffffffffffffffffffffffffffffffffffffffff1673ffffffffffffffffffffffffffffffffffffffff16815260200190815260200160002060006101000a81548160ff02191690831515021790555060006002811115612c57577f4e487b7100000000000000000000000000000000000000000000000000000000600052602160045260246000fd5b60ff168360ff161415612c845781816000016000828254612c789190614626565b92505081905550612d8e565b60016002811115612cbe577f4e487b7100000000000000000000000000000000000000000000000000000000600052602160045260246000fd5b60ff168360ff161415612ceb5781816001016000828254612cdf9190614626565b92505081905550612d8d565b600280811115612d24577f4e487b7100000000000000000000000000000000000000000000000000000000600052602160045260246000fd5b60ff168360ff161415612d515781816002016000828254612d459190614626565b92505081905550612d8c565b6040517f08c379a0000000000000000000000000000000000000000000000000000000008152600401612d8390614221565b60405180910390fd5b5b5b5050505050565b600080826000015167ffffffffffffffff16119050919050565b60008151905060006a636f6e736f6c652e6c6f679050602083016000808483855afa5050505050565b60008383834630604051602001612df3959493929190613e6a565b6040516020818303038152906040528051906020012090509392505050565b6000612e25612e20846143fd565b6143d8565b90508083825260208201905082856020860282011115612e4457600080fd5b60005b85811015612e745781612e5a8882612fc3565b845260208401935060208301925050600181019050612e47565b5050509392505050565b6000612e91612e8c84614429565b6143d8565b9050808382526020820190508260005b85811015612ed15781358501612eb78882613095565b845260208401935060208301925050600181019050612ea1565b5050509392505050565b6000612eee612ee984614455565b6143d8565b90508083825260208201905082856020860282011115612f0d57600080fd5b60005b85811015612f3d5781612f238882613133565b845260208401935060208301925050600181019050612f10565b5050509392505050565b6000612f5a612f5584614481565b6143d8565b905082815260208101848484011115612f7257600080fd5b612f7d848285614873565b509392505050565b6000612f98612f93846144b2565b6143d8565b905082815260208101848484011115612fb057600080fd5b612fbb848285614873565b509392505050565b600081359050612fd281615015565b92915050565b600082601f830112612fe957600080fd5b8135612ff9848260208601612e12565b91505092915050565b600082601f83011261301357600080fd5b8135613023848260208601612e7e565b91505092915050565b600082601f83011261303d57600080fd5b813561304d848260208601612edb565b91505092915050565b6000815190506130658161502c565b92915050565b60008135905061307a81615043565b92915050565b60008135905061308f8161505a565b92915050565b600082601f8301126130a657600080fd5b81356130b6848260208601612f47565b91505092915050565b60008083601f8401126130d157600080fd5b8235905067ffffffffffffffff8111156130ea57600080fd5b60208301915083600182028301111561310257600080fd5b9250929050565b600082601f83011261311a57600080fd5b813561312a848260208601612f85565b91505092915050565b60008135905061314281615071565b92915050565b60008151905061315781615071565b92915050565b60008135905061316c81615088565b92915050565b6000806040838503121561318557600080fd5b600061319385828601612fc3565b92505060206131a485828601613133565b9150509250929050565b600080600080608085870312156131c457600080fd5b600085013567ffffffffffffffff8111156131de57600080fd5b6131ea87828801612fd8565b945050602085013567ffffffffffffffff81111561320757600080fd5b6132138782880161302c565b935050604085013567ffffffffffffffff81111561323057600080fd5b61323c87828801613002565b925050606061324d8782880161306b565b91505092959194509250565b6000806000806080858703121561326f57600080fd5b600085013567ffffffffffffffff81111561328957600080fd5b61329587828801612fd8565b945050602085013567ffffffffffffffff8111156132b257600080fd5b6132be8782880161302c565b935050604085013567ffffffffffffffff8111156132db57600080fd5b6132e787828801613002565b925050606085013567ffffffffffffffff81111561330457600080fd5b61331087828801613109565b91505092959194509250565b60006020828403121561332e57600080fd5b600061333c84828501613056565b91505092915050565b60006020828403121561335757600080fd5b600061336584828501613080565b91505092915050565b60006020828403121561338057600080fd5b600082013567ffffffffffffffff81111561339a57600080fd5b6133a684828501613109565b91505092915050565b600080604083850312156133c257600080fd5b600083013567ffffffffffffffff8111156133dc57600080fd5b6133e885828601613109565b92505060206133f985828601612fc3565b9150509250929050565b60008060006060848603121561341857600080fd5b600084013567ffffffffffffffff81111561343257600080fd5b61343e86828701613109565b935050602061344f86828701612fc3565b925050604061346086828701613133565b9150509250925092565b60006020828403121561347c57600080fd5b600061348a84828501613133565b91505092915050565b6000602082840312156134a557600080fd5b60006134b384828501613148565b91505092915050565b600080604083850312156134cf57600080fd5b60006134dd85828601613133565b92505060206134ee85828601612fc3565b9150509250929050565b6000806040838503121561350b57600080fd5b600061351985828601613133565b925050602061352a8582860161315d565b9150509250929050565b6000806000806060858703121561354a57600080fd5b600061355887828801613133565b94505060206135698782880161315d565b935050604085013567ffffffffffffffff81111561358657600080fd5b613592878288016130bf565b925092505092959194509250565b600080600080600060a086880312156135b857600080fd5b60006135c688828901613133565b95505060206135d78882890161315d565b94505060406135e88882890161315d565b93505060606135f98882890161306b565b925050608061360a8882890161306b565b9150509295509295909350565b6000613623838361366f565b60208301905092915050565b600061363b8383613868565b905092915050565b600061364f83836138f0565b905092915050565b60006136638383613c95565b60208301905092915050565b61367881614779565b82525050565b61368781614779565b82525050565b600061369882614523565b6136a28185614599565b93506136ad836144e3565b8060005b838110156136de5781516136c58882613617565b97506136d083614565565b9250506001810190506136b1565b5085935050505092915050565b60006136f68261452e565b61370081856145aa565b935083602082028501613712856144f3565b8060005b8581101561374e578484038952815161372f858261362f565b945061373a83614572565b925060208a01995050600181019050613716565b50829750879550505050505092915050565b600061376b82614539565b61377581856145bb565b93508360208202850161378785614503565b8060005b858110156137c357848403895281516137a48582613643565b94506137af8361457f565b925060208a0199505060018101905061378b565b50829750879550505050505092915050565b60006137e082614544565b6137ea81856145cc565b93506137f583614513565b8060005b8381101561382657815161380d8882613657565b97506138188361458c565b9250506001810190506137f9565b5085935050505092915050565b61383c8161478b565b82525050565b61384b81614797565b82525050565b61386261385d82614797565b614961565b82525050565b60006138738261454f565b61387d81856145dd565b935061388d818560208601614882565b61389681614a56565b840191505092915050565b60006138ac8261454f565b6138b681856145ee565b93506138c6818560208601614882565b80840191505092915050565b6138db8161482b565b82525050565b6138ea8161484f565b82525050565b60006138fb8261455a565b61390581856145f9565b9350613915818560208601614882565b61391e81614a56565b840191505092915050565b60006139348261455a565b61393e818561460a565b935061394e818560208601614882565b61395781614a56565b840191505092915050565b600061396d8261455a565b613977818561461b565b9350613987818560208601614882565b80840191505092915050565b60006139a060188361460a565b91506139ab82614a67565b602082019050919050565b60006139c360188361460a565b91506139ce82614a90565b602082019050919050565b60006139e660438361460a565b91506139f182614ab9565b606082019050919050565b6000613a09601e8361460a565b9150613a1482614b2e565b602082019050919050565b6000613a2c60438361460a565b9150613a3782614b57565b606082019050919050565b6000613a4f601f8361460a565b9150613a5a82614bcc565b602082019050919050565b6000613a7260028361461b565b9150613a7d82614bf5565b600282019050919050565b6000613a9560218361460a565b9150613aa082614c1e565b604082019050919050565b6000613ab860278361460a565b9150613ac382614c6d565b604082019050919050565b6000613adb60228361460a565b9150613ae682614cbc565b604082019050919050565b6000613afe60278361460a565b9150613b0982614d0b565b604082019050919050565b6000613b2160188361460a565b9150613b2c82614d5a565b602082019050919050565b6000613b4460238361460a565b9150613b4f82614d83565b604082019050919050565b6000613b6760158361460a565b9150613b7282614dd2565b602082019050919050565b6000613b8a60158361460a565b9150613b9582614dfb565b602082019050919050565b6000613bad60188361460a565b9150613bb882614e24565b602082019050919050565b6000613bd060228361460a565b9150613bdb82614e4d565b604082019050919050565b6000613bf360268361460a565b9150613bfe82614e9c565b604082019050919050565b6000613c1660218361460a565b9150613c2182614eeb565b604082019050919050565b6000613c39601d8361460a565b9150613c4482614f3a565b602082019050919050565b6000613c5c60358361460a565b9150613c6782614f63565b604082019050919050565b6000613c7f60218361460a565b9150613c8a82614fb2565b604082019050919050565b613c9e81614800565b82525050565b613cad81614800565b82525050565b613cbc81614861565b82525050565b613ccb8161481e565b82525050565b6000613cdd82846138a1565b915081905092915050565b6000613cf48284613962565b915081905092915050565b6000613d0a82613a65565b9150613d168285613851565b602082019150613d268284613851565b6020820191508190509392505050565b6000602082019050613d4b600083018461367e565b92915050565b6000604082019050613d66600083018561367e565b613d73602083018461367e565b9392505050565b6000606082019050613d8f600083018661367e565b613d9c602083018561367e565b613da96040830184613ca4565b949350505050565b6000604082019050613dc6600083018561367e565b613dd36020830184613ca4565b9392505050565b60006080820190508181036000830152613df4818761368d565b90508181036020830152613e0881866137d5565b90508181036040830152613e1c81856136eb565b9050613e2b6060830184613842565b95945050505050565b6000602082019050613e496000830184613833565b92915050565b6000602082019050613e646000830184613842565b92915050565b600060a082019050613e7f6000830188613842565b613e8c6020830187613842565b613e996040830186613842565b613ea66060830185613ca4565b613eb3608083018461367e565b9695505050505050565b6000606082019050613ed26000830186613842565b613edf6020830185613ca4565b613eec6040830184613cc2565b949350505050565b6000608082019050613f096000830187613842565b613f166020830186613cc2565b613f236040830185613842565b613f306060830184613842565b95945050505050565b6000602082019050613f4e60008301846138d2565b92915050565b6000602082019050613f6960008301846138e1565b92915050565b60006020820190508181036000830152613f898184613929565b905092915050565b60006040820190508181036000830152613fab8185613929565b9050613fba6020830184613ca4565b9392505050565b60006020820190508181036000830152613fda81613993565b9050919050565b60006020820190508181036000830152613ffa816139b6565b9050919050565b6000602082019050818103600083015261401a816139d9565b9050919050565b6000602082019050818103600083015261403a816139fc565b9050919050565b6000602082019050818103600083015261405a81613a1f565b9050919050565b6000602082019050818103600083015261407a81613a42565b9050919050565b6000602082019050818103600083015261409a81613a88565b9050919050565b600060208201905081810360008301526140ba81613aab565b9050919050565b600060208201905081810360008301526140da81613ace565b9050919050565b600060208201905081810360008301526140fa81613af1565b9050919050565b6000602082019050818103600083015261411a81613b14565b9050919050565b6000602082019050818103600083015261413a81613b37565b9050919050565b6000602082019050818103600083015261415a81613b5a565b9050919050565b6000602082019050818103600083015261417a81613b7d565b9050919050565b6000602082019050818103600083015261419a81613ba0565b9050919050565b600060208201905081810360008301526141ba81613bc3565b9050919050565b600060208201905081810360008301526141da81613be6565b9050919050565b600060208201905081810360008301526141fa81613c09565b9050919050565b6000602082019050818103600083015261421a81613c2c565b9050919050565b6000602082019050818103600083015261423a81613c4f565b9050919050565b6000602082019050818103600083015261425a81613c72565b9050919050565b60006020820190506142766000830184613ca4565b92915050565b600061012082019050614292600083018c613ca4565b61429f602083018b61367e565b81810360408301526142b1818a61368d565b905081810360608301526142c581896137d5565b905081810360808301526142d98188613760565b905081810360a08301526142ed81876136eb565b90506142fc60c0830186613cb3565b61430960e0830185613cb3565b81810361010083015261431c8184613929565b90509a9950505050505050505050565b60006040820190506143416000830185613ca4565b61434e6020830184613ca4565b9392505050565b600060608201905061436a6000830186613ca4565b6143776020830185613ca4565b6143846040830184613ca4565b949350505050565b60006080820190506143a16000830187613ca4565b6143ae6020830186613cc2565b6143bb6040830185613ca4565b81810360608301526143cd8184613929565b905095945050505050565b60006143e26143f3565b90506143ee82826148e7565b919050565b6000604051905090565b600067ffffffffffffffff82111561441857614417614a27565b5b602082029050602081019050919050565b600067ffffffffffffffff82111561444457614443614a27565b5b602082029050602081019050919050565b600067ffffffffffffffff8211156144705761446f614a27565b5b602082029050602081019050919050565b600067ffffffffffffffff82111561449c5761449b614a27565b5b6144a582614a56565b9050602081019050919050565b600067ffffffffffffffff8211156144cd576144cc614a27565b5b6144d682614a56565b9050602081019050919050565b6000819050602082019050919050565b6000819050602082019050919050565b6000819050602082019050919050565b6000819050602082019050919050565b600081519050919050565b600081519050919050565b600081519050919050565b600081519050919050565b600081519050919050565b600081519050919050565b6000602082019050919050565b6000602082019050919050565b6000602082019050919050565b6000602082019050919050565b600082825260208201905092915050565b600082825260208201905092915050565b600082825260208201905092915050565b600082825260208201905092915050565b600082825260208201905092915050565b600081905092915050565b600082825260208201905092915050565b600082825260208201905092915050565b600081905092915050565b600061463182614800565b915061463c83614800565b9250827fffffffffffffffffffffffffffffffffffffffffffffffffffffffffffffffff038211156146715761467061496b565b5b828201905092915050565b60006146878261480a565b91506146928361480a565b92508267ffffffffffffffff038211156146af576146ae61496b565b5b828201905092915050565b60006146c582614800565b91506146d083614800565b9250826146e0576146df61499a565b5b828204905092915050565b60006146f682614800565b915061470183614800565b9250817fffffffffffffffffffffffffffffffffffffffffffffffffffffffffffffffff048311821515161561473a5761473961496b565b5b828202905092915050565b600061475082614800565b915061475b83614800565b92508282101561476e5761476d61496b565b5b828203905092915050565b6000614784826147e0565b9050919050565b60008115159050919050565b6000819050919050565b60007fffffffff0000000000000000000000000000000000000000000000000000000082169050919050565b60008190506147db82615001565b919050565b600073ffffffffffffffffffffffffffffffffffffffff82169050919050565b6000819050919050565b600067ffffffffffffffff82169050919050565b600060ff82169050919050565b60006148368261483d565b9050919050565b6000614848826147e0565b9050919050565b600061485a826147cd565b9050919050565b600061486c8261480a565b9050919050565b82818337600083830152505050565b60005b838110156148a0578082015181840152602081019050614885565b838111156148af576000848401525b50505050565b600060028204905060018216806148cd57607f821691505b602082108114156148e1576148e06149f8565b5b50919050565b6148f082614a56565b810181811067ffffffffffffffff8211171561490f5761490e614a27565b5b80604052505050565b600061492382614800565b91507fffffffffffffffffffffffffffffffffffffffffffffffffffffffffffffffff8214156149565761495561496b565b5b600182019050919050565b6000819050919050565b7f4e487b7100000000000000000000000000000000000000000000000000000000600052601160045260246000fd5b7f4e487b7100000000000000000000000000000000000000000000000000000000600052601260045260246000fd5b7f4e487b7100000000000000000000000000000000000000000000000000000000600052602160045260246000fd5b7f4e487b7100000000000000000000000000000000000000000000000000000000600052602260045260246000fd5b7f4e487b7100000000000000000000000000000000000000000000000000000000600052604160045260246000fd5b6000601f19601f8301169050919050565b7f45434453413a20696e76616c6964207369676e61747572650000000000000000600082015250565b7f476f7665726e6f723a206f6e6c79476f7665726e616e63650000000000000000600082015250565b7f476f7665726e6f72566f74657351756f72756d4672616374696f6e3a2071756f60008201527f72756d4e756d657261746f72206f7665722071756f72756d44656e6f6d696e6160208201527f746f720000000000000000000000000000000000000000000000000000000000604082015250565b7f4f6e6c79207468652070726f706f7365722063616e2064697362757273650000600082015250565b7f476f7665726e6f72436f6d7061746962696c697479427261766f3a2070726f7060008201527f6f73657220766f7465732062656c6f772070726f706f73616c2074687265736860208201527f6f6c640000000000000000000000000000000000000000000000000000000000604082015250565b7f45434453413a20696e76616c6964207369676e6174757265206c656e67746800600082015250565b7f1901000000000000000000000000000000000000000000000000000000000000600082015250565b7f476f7665726e6f723a20696e76616c69642070726f706f73616c206c656e677460008201527f6800000000000000000000000000000000000000000000000000000000000000602082015250565b7f476f7665726e6f7253657474696e67733a20766f74696e6720706572696f642060008201527f746f6f206c6f7700000000000000000000000000000000000000000000000000602082015250565b7f45434453413a20696e76616c6964207369676e6174757265202773272076616c60008201527f7565000000000000000000000000000000000000000000000000000000000000602082015250565b7f476f7665726e6f72566f74696e6753696d706c653a20766f746520616c72656160008201527f6479206361737400000000000000000000000000000000000000000000000000602082015250565b7f4d696e696d756d20312065746865722072657175697265640000000000000000600082015250565b7f476f7665726e6f723a20766f7465206e6f742063757272656e746c792061637460008201527f6976650000000000000000000000000000000000000000000000000000000000602082015250565b7f50726f706f73616c206e6f742061636365707465640000000000000000000000600082015250565b7f44414920616c6c6f77616e6365206e6f74207365740000000000000000000000600082015250565b7f476f7665726e6f723a20656d7074792070726f706f73616c0000000000000000600082015250565b7f45434453413a20696e76616c6964207369676e6174757265202776272076616c60008201527f7565000000000000000000000000000000000000000000000000000000000000602082015250565b7f53616665436173743a2076616c756520646f65736e27742066697420696e203660008201527f3420626974730000000000000000000000000000000000000000000000000000602082015250565b7f476f7665726e6f723a2070726f706f73616c206e6f742073756363657373667560008201527f6c00000000000000000000000000000000000000000000000000000000000000602082015250565b7f476f7665726e6f723a20756e6b6e6f776e2070726f706f73616c206964000000600082015250565b7f476f7665726e6f72566f74696e6753696d706c653a20696e76616c696420766160008201527f6c756520666f7220656e756d20566f7465547970650000000000000000000000602082015250565b7f476f7665726e6f723a2070726f706f73616c20616c726561647920657869737460008201527f7300000000000000000000000000000000000000000000000000000000000000602082015250565b60088110615012576150116149c9565b5b50565b61501e81614779565b811461502957600080fd5b50565b6150358161478b565b811461504057600080fd5b50565b61504c81614797565b811461505757600080fd5b50565b615063816147a1565b811461506e57600080fd5b50565b61507a81614800565b811461508557600080fd5b50565b6150918161481e565b811461509c57600080fd5b5056fe476f7665726e6f723a2063616c6c20726576657274656420776974686f7574206d657373616765a2646970667358221220c79eb741e8d9cd3208509d0f6ea93ae081c2d7ea80d40e92004bcb9542f0a95e64736f6c63430008020033",
  "linkReferences": {},
  "deployedLinkReferences": {}
}