{
  "_format": "hh-sol-artifact-1",
  "contractName": "LearnToken",
  "sourceName": "contracts/LearnToken.sol",
  "abi": [
    {
      "inputs": [],
      "stateMutability": "nonpayable",
      "type": "constructor"
    },
    {
      "anonymous": false,
      "inputs": [
        {
          "indexed": true,
          "internalType": "address",
          "name": "owner",
          "type": "address"
        },
        {
          "indexed": true,
          "internalType": "address",
          "name": "spender",
          "type": "address"
        },
        {
          "indexed": false,
          "internalType": "uint256",
          "name": "value",
          "type": "uint256"
        }
      ],
      "name": "Approval",
      "type": "event"
    },
    {
      "anonymous": false,
      "inputs": [
        {
          "indexed": true,
          "internalType": "address",
          "name": "delegator",
          "type": "address"
        },
        {
          "indexed": true,
          "internalType": "address",
          "name": "fromDelegate",
          "type": "address"
        },
        {
          "indexed": true,
          "internalType": "address",
          "name": "toDelegate",
          "type": "address"
        }
      ],
      "name": "DelegateChanged",
      "type": "event"
    },
    {
      "anonymous": false,
      "inputs": [
        {
          "indexed": true,
          "internalType": "address",
          "name": "delegate",
          "type": "address"
        },
        {
          "indexed": false,
          "internalType": "uint256",
          "name": "previousBalance",
          "type": "uint256"
        },
        {
          "indexed": false,
          "internalType": "uint256",
          "name": "newBalance",
          "type": "uint256"
        }
      ],
      "name": "DelegateVotesChanged",
      "type": "event"
    },
    {
      "anonymous": false,
      "inputs": [
        {
          "indexed": false,
          "internalType": "address",
          "name": "account",
          "type": "address"
        }
      ],
      "name": "Paused",
      "type": "event"
    },
    {
      "anonymous": false,
      "inputs": [
        {
          "indexed": true,
          "internalType": "bytes32",
          "name": "role",
          "type": "bytes32"
        },
        {
          "indexed": true,
          "internalType": "bytes32",
          "name": "previousAdminRole",
          "type": "bytes32"
        },
        {
          "indexed": true,
          "internalType": "bytes32",
          "name": "newAdminRole",
          "type": "bytes32"
        }
      ],
      "name": "RoleAdminChanged",
      "type": "event"
    },
    {
      "anonymous": false,
      "inputs": [
        {
          "indexed": true,
          "internalType": "bytes32",
          "name": "role",
          "type": "bytes32"
        },
        {
          "indexed": true,
          "internalType": "address",
          "name": "account",
          "type": "address"
        },
        {
          "indexed": true,
          "internalType": "address",
          "name": "sender",
          "type": "address"
        }
      ],
      "name": "RoleGranted",
      "type": "event"
    },
    {
      "anonymous": false,
      "inputs": [
        {
          "indexed": true,
          "internalType": "bytes32",
          "name": "role",
          "type": "bytes32"
        },
        {
          "indexed": true,
          "internalType": "address",
          "name": "account",
          "type": "address"
        },
        {
          "indexed": true,
          "internalType": "address",
          "name": "sender",
          "type": "address"
        }
      ],
      "name": "RoleRevoked",
      "type": "event"
    },
    {
      "anonymous": false,
      "inputs": [
        {
          "indexed": true,
          "internalType": "address",
          "name": "from",
          "type": "address"
        },
        {
          "indexed": true,
          "internalType": "address",
          "name": "to",
          "type": "address"
        },
        {
          "indexed": false,
          "internalType": "uint256",
          "name": "value",
          "type": "uint256"
        }
      ],
      "name": "Transfer",
      "type": "event"
    },
    {
      "anonymous": false,
      "inputs": [
        {
          "indexed": false,
          "internalType": "address",
          "name": "account",
          "type": "address"
        }
      ],
      "name": "Unpaused",
      "type": "event"
    },
    {
      "inputs": [],
      "name": "DEFAULT_ADMIN_ROLE",
      "outputs": [
        {
          "internalType": "bytes32",
          "name": "",
          "type": "bytes32"
        }
      ],
      "stateMutability": "view",
      "type": "function"
    },
    {
      "inputs": [],
      "name": "DOMAIN_SEPARATOR",
      "outputs": [
        {
          "internalType": "bytes32",
          "name": "",
          "type": "bytes32"
        }
      ],
      "stateMutability": "view",
      "type": "function"
    },
    {
      "inputs": [],
      "name": "MINTER_ROLE",
      "outputs": [
        {
          "internalType": "bytes32",
          "name": "",
          "type": "bytes32"
        }
      ],
      "stateMutability": "view",
      "type": "function"
    },
    {
      "inputs": [],
      "name": "PAUSER_ROLE",
      "outputs": [
        {
          "internalType": "bytes32",
          "name": "",
          "type": "bytes32"
        }
      ],
      "stateMutability": "view",
      "type": "function"
    },
    {
      "inputs": [
        {
          "internalType": "address",
          "name": "owner",
          "type": "address"
        },
        {
          "internalType": "address",
          "name": "spender",
          "type": "address"
        }
      ],
      "name": "allowance",
      "outputs": [
        {
          "internalType": "uint256",
          "name": "",
          "type": "uint256"
        }
      ],
      "stateMutability": "view",
      "type": "function"
    },
    {
      "inputs": [
        {
          "internalType": "address",
          "name": "spender",
          "type": "address"
        },
        {
          "internalType": "uint256",
          "name": "amount",
          "type": "uint256"
        }
      ],
      "name": "approve",
      "outputs": [
        {
          "internalType": "bool",
          "name": "",
          "type": "bool"
        }
      ],
      "stateMutability": "nonpayable",
      "type": "function"
    },
    {
      "inputs": [
        {
          "internalType": "address",
          "name": "account",
          "type": "address"
        }
      ],
      "name": "balanceOf",
      "outputs": [
        {
          "internalType": "uint256",
          "name": "",
          "type": "uint256"
        }
      ],
      "stateMutability": "view",
      "type": "function"
    },
    {
      "inputs": [
        {
          "internalType": "uint256",
          "name": "amount",
          "type": "uint256"
        }
      ],
      "name": "burn",
      "outputs": [],
      "stateMutability": "nonpayable",
      "type": "function"
    },
    {
      "inputs": [
        {
          "internalType": "address",
          "name": "account",
          "type": "address"
        },
        {
          "internalType": "uint256",
          "name": "amount",
          "type": "uint256"
        }
      ],
      "name": "burnFrom",
      "outputs": [],
      "stateMutability": "nonpayable",
      "type": "function"
    },
    {
      "inputs": [
        {
          "internalType": "address",
          "name": "account",
          "type": "address"
        }
      ],
      "name": "checkMinterRole",
      "outputs": [
        {
          "internalType": "bool",
          "name": "",
          "type": "bool"
        }
      ],
      "stateMutability": "view",
      "type": "function"
    },
    {
      "inputs": [
        {
          "internalType": "address",
          "name": "account",
          "type": "address"
        }
      ],
      "name": "checkPauserRole",
      "outputs": [
        {
          "internalType": "bool",
          "name": "",
          "type": "bool"
        }
      ],
      "stateMutability": "view",
      "type": "function"
    },
    {
      "inputs": [
        {
          "internalType": "address",
          "name": "account",
          "type": "address"
        },
        {
          "internalType": "uint32",
          "name": "pos",
          "type": "uint32"
        }
      ],
      "name": "checkpoints",
      "outputs": [
        {
          "components": [
            {
              "internalType": "uint32",
              "name": "fromBlock",
              "type": "uint32"
            },
            {
              "internalType": "uint224",
              "name": "votes",
              "type": "uint224"
            }
          ],
          "internalType": "struct ERC20Votes.Checkpoint",
          "name": "",
          "type": "tuple"
        }
      ],
      "stateMutability": "view",
      "type": "function"
    },
    {
      "inputs": [],
      "name": "decimals",
      "outputs": [
        {
          "internalType": "uint8",
          "name": "",
          "type": "uint8"
        }
      ],
      "stateMutability": "view",
      "type": "function"
    },
    {
      "inputs": [
        {
          "internalType": "address",
          "name": "spender",
          "type": "address"
        },
        {
          "internalType": "uint256",
          "name": "subtractedValue",
          "type": "uint256"
        }
      ],
      "name": "decreaseAllowance",
      "outputs": [
        {
          "internalType": "bool",
          "name": "",
          "type": "bool"
        }
      ],
      "stateMutability": "nonpayable",
      "type": "function"
    },
    {
      "inputs": [
        {
          "internalType": "address",
          "name": "delegatee",
          "type": "address"
        }
      ],
      "name": "delegate",
      "outputs": [],
      "stateMutability": "nonpayable",
      "type": "function"
    },
    {
      "inputs": [
        {
          "internalType": "address",
          "name": "delegatee",
          "type": "address"
        },
        {
          "internalType": "uint256",
          "name": "nonce",
          "type": "uint256"
        },
        {
          "internalType": "uint256",
          "name": "expiry",
          "type": "uint256"
        },
        {
          "internalType": "uint8",
          "name": "v",
          "type": "uint8"
        },
        {
          "internalType": "bytes32",
          "name": "r",
          "type": "bytes32"
        },
        {
          "internalType": "bytes32",
          "name": "s",
          "type": "bytes32"
        }
      ],
      "name": "delegateBySig",
      "outputs": [],
      "stateMutability": "nonpayable",
      "type": "function"
    },
    {
      "inputs": [
        {
          "internalType": "address",
          "name": "account",
          "type": "address"
        }
      ],
      "name": "delegates",
      "outputs": [
        {
          "internalType": "address",
          "name": "",
          "type": "address"
        }
      ],
      "stateMutability": "view",
      "type": "function"
    },
    {
      "inputs": [
        {
          "internalType": "uint256",
          "name": "blockNumber",
          "type": "uint256"
        }
      ],
      "name": "getPastTotalSupply",
      "outputs": [
        {
          "internalType": "uint256",
          "name": "",
          "type": "uint256"
        }
      ],
      "stateMutability": "view",
      "type": "function"
    },
    {
      "inputs": [
        {
          "internalType": "address",
          "name": "account",
          "type": "address"
        },
        {
          "internalType": "uint256",
          "name": "blockNumber",
          "type": "uint256"
        }
      ],
      "name": "getPastVotes",
      "outputs": [
        {
          "internalType": "uint256",
          "name": "",
          "type": "uint256"
        }
      ],
      "stateMutability": "view",
      "type": "function"
    },
    {
      "inputs": [
        {
          "internalType": "bytes32",
          "name": "role",
          "type": "bytes32"
        }
      ],
      "name": "getRoleAdmin",
      "outputs": [
        {
          "internalType": "bytes32",
          "name": "",
          "type": "bytes32"
        }
      ],
      "stateMutability": "view",
      "type": "function"
    },
    {
      "inputs": [
        {
          "internalType": "address",
          "name": "account",
          "type": "address"
        }
      ],
      "name": "getVotes",
      "outputs": [
        {
          "internalType": "uint256",
          "name": "",
          "type": "uint256"
        }
      ],
      "stateMutability": "view",
      "type": "function"
    },
    {
      "inputs": [
        {
          "internalType": "bytes32",
          "name": "role",
          "type": "bytes32"
        },
        {
          "internalType": "address",
          "name": "account",
          "type": "address"
        }
      ],
      "name": "grantRole",
      "outputs": [],
      "stateMutability": "nonpayable",
      "type": "function"
    },
    {
      "inputs": [
        {
          "internalType": "bytes32",
          "name": "role",
          "type": "bytes32"
        },
        {
          "internalType": "address",
          "name": "account",
          "type": "address"
        }
      ],
      "name": "hasRole",
      "outputs": [
        {
          "internalType": "bool",
          "name": "",
          "type": "bool"
        }
      ],
      "stateMutability": "view",
      "type": "function"
    },
    {
      "inputs": [
        {
          "internalType": "address",
          "name": "spender",
          "type": "address"
        },
        {
          "internalType": "uint256",
          "name": "addedValue",
          "type": "uint256"
        }
      ],
      "name": "increaseAllowance",
      "outputs": [
        {
          "internalType": "bool",
          "name": "",
          "type": "bool"
        }
      ],
      "stateMutability": "nonpayable",
      "type": "function"
    },
    {
      "inputs": [
        {
          "internalType": "address",
          "name": "to",
          "type": "address"
        },
        {
          "internalType": "uint256",
          "name": "amount",
          "type": "uint256"
        }
      ],
      "name": "mint",
      "outputs": [],
      "stateMutability": "nonpayable",
      "type": "function"
    },
    {
      "inputs": [],
      "name": "name",
      "outputs": [
        {
          "internalType": "string",
          "name": "",
          "type": "string"
        }
      ],
      "stateMutability": "view",
      "type": "function"
    },
    {
      "inputs": [
        {
          "internalType": "address",
          "name": "owner",
          "type": "address"
        }
      ],
      "name": "nonces",
      "outputs": [
        {
          "internalType": "uint256",
          "name": "",
          "type": "uint256"
        }
      ],
      "stateMutability": "view",
      "type": "function"
    },
    {
      "inputs": [
        {
          "internalType": "address",
          "name": "account",
          "type": "address"
        }
      ],
      "name": "numCheckpoints",
      "outputs": [
        {
          "internalType": "uint32",
          "name": "",
          "type": "uint32"
        }
      ],
      "stateMutability": "view",
      "type": "function"
    },
    {
      "inputs": [],
      "name": "pause",
      "outputs": [],
      "stateMutability": "nonpayable",
      "type": "function"
    },
    {
      "inputs": [],
      "name": "paused",
      "outputs": [
        {
          "internalType": "bool",
          "name": "",
          "type": "bool"
        }
      ],
      "stateMutability": "view",
      "type": "function"
    },
    {
      "inputs": [
        {
          "internalType": "address",
          "name": "owner",
          "type": "address"
        },
        {
          "internalType": "address",
          "name": "spender",
          "type": "address"
        },
        {
          "internalType": "uint256",
          "name": "value",
          "type": "uint256"
        },
        {
          "internalType": "uint256",
          "name": "deadline",
          "type": "uint256"
        },
        {
          "internalType": "uint8",
          "name": "v",
          "type": "uint8"
        },
        {
          "internalType": "bytes32",
          "name": "r",
          "type": "bytes32"
        },
        {
          "internalType": "bytes32",
          "name": "s",
          "type": "bytes32"
        }
      ],
      "name": "permit",
      "outputs": [],
      "stateMutability": "nonpayable",
      "type": "function"
    },
    {
      "inputs": [
        {
          "internalType": "bytes32",
          "name": "role",
          "type": "bytes32"
        },
        {
          "internalType": "address",
          "name": "account",
          "type": "address"
        }
      ],
      "name": "renounceRole",
      "outputs": [],
      "stateMutability": "nonpayable",
      "type": "function"
    },
    {
      "inputs": [
        {
          "internalType": "bytes32",
          "name": "role",
          "type": "bytes32"
        },
        {
          "internalType": "address",
          "name": "account",
          "type": "address"
        }
      ],
      "name": "revokeRole",
      "outputs": [],
      "stateMutability": "nonpayable",
      "type": "function"
    },
    {
      "inputs": [
        {
          "internalType": "address",
          "name": "account",
          "type": "address"
        }
      ],
      "name": "setMinterRole",
      "outputs": [],
      "stateMutability": "nonpayable",
      "type": "function"
    },
    {
      "inputs": [
        {
          "internalType": "address",
          "name": "account",
          "type": "address"
        }
      ],
      "name": "setPauserRole",
      "outputs": [],
      "stateMutability": "nonpayable",
      "type": "function"
    },
    {
      "inputs": [
        {
          "internalType": "bytes4",
          "name": "interfaceId",
          "type": "bytes4"
        }
      ],
      "name": "supportsInterface",
      "outputs": [
        {
          "internalType": "bool",
          "name": "",
          "type": "bool"
        }
      ],
      "stateMutability": "view",
      "type": "function"
    },
    {
      "inputs": [],
      "name": "symbol",
      "outputs": [
        {
          "internalType": "string",
          "name": "",
          "type": "string"
        }
      ],
      "stateMutability": "view",
      "type": "function"
    },
    {
      "inputs": [],
      "name": "totalSupply",
      "outputs": [
        {
          "internalType": "uint256",
          "name": "",
          "type": "uint256"
        }
      ],
      "stateMutability": "view",
      "type": "function"
    },
    {
      "inputs": [
        {
          "internalType": "address",
          "name": "recipient",
          "type": "address"
        },
        {
          "internalType": "uint256",
          "name": "amount",
          "type": "uint256"
        }
      ],
      "name": "transfer",
      "outputs": [
        {
          "internalType": "bool",
          "name": "",
          "type": "bool"
        }
      ],
      "stateMutability": "nonpayable",
      "type": "function"
    },
    {
      "inputs": [
        {
          "internalType": "address",
          "name": "sender",
          "type": "address"
        },
        {
          "internalType": "address",
          "name": "recipient",
          "type": "address"
        },
        {
          "internalType": "uint256",
          "name": "amount",
          "type": "uint256"
        }
      ],
      "name": "transferFrom",
      "outputs": [
        {
          "internalType": "bool",
          "name": "",
          "type": "bool"
        }
      ],
      "stateMutability": "nonpayable",
      "type": "function"
    },
    {
      "inputs": [],
      "name": "unpause",
      "outputs": [],
      "stateMutability": "nonpayable",
      "type": "function"
    }
  ],
  "bytecode": "0x6101606040527f6e71edae12b1b97f4d1f60370fef10105fa2faae0126114a169c64845d6126c9610140908152503480156200003a57600080fd5b506040518060400160405280600b81526020017f4c6561726e20546f6b656e000000000000000000000000000000000000000000815250806040518060400160405280600181526020017f31000000000000000000000000000000000000000000000000000000000000008152506040518060400160405280600b81526020017f4c6561726e20546f6b656e0000000000000000000000000000000000000000008152506040518060400160405280600481526020017f4c44414f0000000000000000000000000000000000000000000000000000000081525081600390805190602001906200012c92919062000e9b565b5080600490805190602001906200014592919062000e9b565b5050506000600560006101000a81548160ff02191690831515021790555060008280519060200120905060008280519060200120905060007f8b73c3c69bb8fe3d512ecc4cf759cc79239f7b179b0ffacaa9a75d522b39400f90508260e081815250508161010081815250504660a08181525050620001cc818484620002d660201b60201c565b608081815250503073ffffffffffffffffffffffffffffffffffffffff1660c08173ffffffffffffffffffffffffffffffffffffffff1660601b815250508061012081815250505050505050506200022e6000801b336200031260201b60201c565b620002607f65d7a28e3265b37a6474929f336521b332c1681b933f6cb9f3376673440d862a336200031260201b60201c565b6200029e33620002756200040460201b60201c565b600a6200028391906200125b565b6103e862000292919062001398565b6200040d60201b60201c565b620002d07f9f2df0fed2c77648de5860a4cc508cd0818c85b8b8a1ab4ceeef8d981c8956a6336200031260201b60201c565b62001669565b60008383834630604051602001620002f395949392919062001041565b6040516020818303038152906040528051906020012090509392505050565b6200032482826200042860201b60201c565b620004005760016006600084815260200190815260200160002060000160008373ffffffffffffffffffffffffffffffffffffffff1673ffffffffffffffffffffffffffffffffffffffff16815260200190815260200160002060006101000a81548160ff021916908315150217905550620003a56200049360201b60201c565b73ffffffffffffffffffffffffffffffffffffffff168173ffffffffffffffffffffffffffffffffffffffff16837f2f8788117e7eff1d82e926ec794901d17c78024a50270940304540a733656f0d60405160405180910390a45b5050565b60006012905090565b6200042482826200049b60201b620018c81760201c565b5050565b60006006600084815260200190815260200160002060000160008373ffffffffffffffffffffffffffffffffffffffff1673ffffffffffffffffffffffffffffffffffffffff16815260200190815260200160002060009054906101000a900460ff16905092915050565b600033905090565b620004b282826200055960201b620019551760201c565b620004c2620006d260201b60201c565b7bffffffffffffffffffffffffffffffffffffffffffffffffffffffff16620004f0620006f660201b60201c565b111562000534576040517f08c379a00000000000000000000000000000000000000000000000000000000081526004016200052b90620010c0565b60405180910390fd5b62000553600a6200070060201b62001ab517836200071860201b60201c565b50505050565b600073ffffffffffffffffffffffffffffffffffffffff168273ffffffffffffffffffffffffffffffffffffffff161415620005cc576040517f08c379a0000000000000000000000000000000000000000000000000000000008152600401620005c39062001126565b60405180910390fd5b620005e06000838362000a3560201b60201c565b8060026000828254620005f49190620011a3565b92505081905550806000808473ffffffffffffffffffffffffffffffffffffffff1673ffffffffffffffffffffffffffffffffffffffff16815260200190815260200160002060008282546200064b9190620011a3565b925050819055508173ffffffffffffffffffffffffffffffffffffffff16600073ffffffffffffffffffffffffffffffffffffffff167fddf252ad1be2c89b69c2b068fc378daa952ba7f163c4a11628f55a4df523b3ef83604051620006b2919062001148565b60405180910390a3620006ce6000838362000aa560201b60201c565b5050565b60007bffffffffffffffffffffffffffffffffffffffffffffffffffffffff905090565b6000600254905090565b60008183620007109190620011a3565b905092915050565b60008060008580549050905060008114620007b157856001826200073d9190620013f9565b8154811062000775577f4e487b7100000000000000000000000000000000000000000000000000000000600052603260045260246000fd5b9060005260206000200160000160049054906101000a90047bffffffffffffffffffffffffffffffffffffffffffffffffffffffff16620007b4565b60005b7bffffffffffffffffffffffffffffffffffffffffffffffffffffffff169250620007e083858760201c565b91506000811180156200085d57504386600183620007ff9190620013f9565b8154811062000837577f4e487b7100000000000000000000000000000000000000000000000000000000600052603260045260246000fd5b9060005260206000200160000160009054906101000a900463ffffffff1663ffffffff16145b156200092257620008798262000ac260201b62001acb1760201c565b86600183620008899190620013f9565b81548110620008c1577f4e487b7100000000000000000000000000000000000000000000000000000000600052603260045260246000fd5b9060005260206000200160000160046101000a8154817bffffffffffffffffffffffffffffffffffffffffffffffffffffffff02191690837bffffffffffffffffffffffffffffffffffffffffffffffffffffffff16021790555062000a2c565b856040518060400160405280620009444362000b3060201b62001b361760201c565b63ffffffff168152602001620009658562000ac260201b62001acb1760201c565b7bffffffffffffffffffffffffffffffffffffffffffffffffffffffff168152509080600181540180825580915050600190039060005260206000200160009091909190915060008201518160000160006101000a81548163ffffffff021916908363ffffffff16021790555060208201518160000160046101000a8154817bffffffffffffffffffffffffffffffffffffffffffffffffffffffff02191690837bffffffffffffffffffffffffffffffffffffffffffffffffffffffff16021790555050505b50935093915050565b62000a4562000b8660201b60201c565b1562000a88576040517f08c379a000000000000000000000000000000000000000000000000000000000815260040162000a7f906200109e565b60405180910390fd5b62000aa083838362000b9d60201b62001b891760201c565b505050565b62000abd83838362000ba260201b62001b8e1760201c565b505050565b60007bffffffffffffffffffffffffffffffffffffffffffffffffffffffff801682111562000b28576040517f08c379a000000000000000000000000000000000000000000000000000000000815260040162000b1f90620010e2565b60405180910390fd5b819050919050565b600063ffffffff801682111562000b7e576040517f08c379a000000000000000000000000000000000000000000000000000000000815260040162000b759062001104565b60405180910390fd5b819050919050565b6000600560009054906101000a900460ff16905090565b505050565b62000bba83838362000bf260201b62001bb91760201c565b62000bed62000bcf8462000bf760201b60201c565b62000be08462000bf760201b60201c565b8362000c6060201b60201c565b505050565b505050565b6000600860008373ffffffffffffffffffffffffffffffffffffffff1673ffffffffffffffffffffffffffffffffffffffff16815260200190815260200160002060009054906101000a900473ffffffffffffffffffffffffffffffffffffffff169050919050565b8173ffffffffffffffffffffffffffffffffffffffff168373ffffffffffffffffffffffffffffffffffffffff161415801562000c9d5750600081115b1562000e7e57600073ffffffffffffffffffffffffffffffffffffffff168373ffffffffffffffffffffffffffffffffffffffff161462000d905760008062000d37600960008773ffffffffffffffffffffffffffffffffffffffff1673ffffffffffffffffffffffffffffffffffffffff16815260200190815260200160002062000e8360201b62001bbe17856200071860201b60201c565b915091508473ffffffffffffffffffffffffffffffffffffffff167fdec2bacdd2f05b59de34da9b523dff8be42e5e38e818c82fdb0bae774387a724838360405162000d8592919062001165565b60405180910390a250505b600073ffffffffffffffffffffffffffffffffffffffff168273ffffffffffffffffffffffffffffffffffffffff161462000e7d5760008062000e24600960008673ffffffffffffffffffffffffffffffffffffffff1673ffffffffffffffffffffffffffffffffffffffff1681526020019081526020016000206200070060201b62001ab517856200071860201b60201c565b915091508373ffffffffffffffffffffffffffffffffffffffff167fdec2bacdd2f05b59de34da9b523dff8be42e5e38e818c82fdb0bae774387a724838360405162000e7292919062001165565b60405180910390a250505b5b505050565b6000818362000e939190620013f9565b905092915050565b82805462000ea99062001489565b90600052602060002090601f01602090048101928262000ecd576000855562000f19565b82601f1062000ee857805160ff191683800117855562000f19565b8280016001018555821562000f19579182015b8281111562000f1857825182559160200191906001019062000efb565b5b50905062000f28919062000f2c565b5090565b5b8082111562000f4757600081600090555060010162000f2d565b5090565b62000f568162001434565b82525050565b62000f678162001448565b82525050565b600062000f7c60108362001192565b915062000f89826200152a565b602082019050919050565b600062000fa360308362001192565b915062000fb08262001553565b604082019050919050565b600062000fca60278362001192565b915062000fd782620015a2565b604082019050919050565b600062000ff160268362001192565b915062000ffe82620015f1565b604082019050919050565b600062001018601f8362001192565b9150620010258262001640565b602082019050919050565b6200103b8162001472565b82525050565b600060a08201905062001058600083018862000f5c565b62001067602083018762000f5c565b62001076604083018662000f5c565b62001085606083018562001030565b62001094608083018462000f4b565b9695505050505050565b60006020820190508181036000830152620010b98162000f6d565b9050919050565b60006020820190508181036000830152620010db8162000f94565b9050919050565b60006020820190508181036000830152620010fd8162000fbb565b9050919050565b600060208201905081810360008301526200111f8162000fe2565b9050919050565b60006020820190508181036000830152620011418162001009565b9050919050565b60006020820190506200115f600083018462001030565b92915050565b60006040820190506200117c600083018562001030565b6200118b602083018462001030565b9392505050565b600082825260208201905092915050565b6000620011b08262001472565b9150620011bd8362001472565b9250827fffffffffffffffffffffffffffffffffffffffffffffffffffffffffffffffff03821115620011f557620011f4620014bf565b5b828201905092915050565b6000808291508390505b600185111562001252578086048111156200122a5762001229620014bf565b5b60018516156200123a5780820291505b80810290506200124a856200151d565b94506200120a565b94509492505050565b6000620012688262001472565b915062001275836200147c565b9250620012a47fffffffffffffffffffffffffffffffffffffffffffffffffffffffffffffffff8484620012ac565b905092915050565b600082620012be576001905062001391565b81620012ce576000905062001391565b8160018114620012e75760028114620012f25762001328565b600191505062001391565b60ff841115620013075762001306620014bf565b5b8360020a915084821115620013215762001320620014bf565b5b5062001391565b5060208310610133831016604e8410600b8410161715620013625782820a9050838111156200135c576200135b620014bf565b5b62001391565b62001371848484600162001200565b925090508184048111156200138b576200138a620014bf565b5b81810290505b9392505050565b6000620013a58262001472565b9150620013b28362001472565b9250817fffffffffffffffffffffffffffffffffffffffffffffffffffffffffffffffff0483118215151615620013ee57620013ed620014bf565b5b828202905092915050565b6000620014068262001472565b9150620014138362001472565b925082821015620014295762001428620014bf565b5b828203905092915050565b6000620014418262001452565b9050919050565b6000819050919050565b600073ffffffffffffffffffffffffffffffffffffffff82169050919050565b6000819050919050565b600060ff82169050919050565b60006002820490506001821680620014a257607f821691505b60208210811415620014b957620014b8620014ee565b5b50919050565b7f4e487b7100000000000000000000000000000000000000000000000000000000600052601160045260246000fd5b7f4e487b7100000000000000000000000000000000000000000000000000000000600052602260045260246000fd5b60008160011c9050919050565b7f5061757361626c653a2070617573656400000000000000000000000000000000600082015250565b7f4552433230566f7465733a20746f74616c20737570706c79207269736b73206f60008201527f766572666c6f77696e6720766f74657300000000000000000000000000000000602082015250565b7f53616665436173743a2076616c756520646f65736e27742066697420696e203260008201527f3234206269747300000000000000000000000000000000000000000000000000602082015250565b7f53616665436173743a2076616c756520646f65736e27742066697420696e203360008201527f3220626974730000000000000000000000000000000000000000000000000000602082015250565b7f45524332303a206d696e7420746f20746865207a65726f206164647265737300600082015250565b60805160a05160c05160601c60e051610100516101205161014051615356620016c7600039600061159f015260006122be01526000612300015260006122df015260006122140152600061226a0152600061229301526153566000f3fe608060405234801561001057600080fd5b50600436106102535760003560e01c806370a0823111610146578063a217fddf116100c3578063d505accf11610087578063d505accf1461076a578063d539139314610786578063d547741f146107a4578063dd62ed3e146107c0578063e63ab1e9146107f0578063f1127ed81461080e57610253565b8063a217fddf146106a0578063a457c2d7146106be578063a526be72146106ee578063a9059cbb1461071e578063c3cda5201461074e57610253565b806391d148541161010a57806391d14854146105d6578063945d122914610606578063949113561461062257806395d89b41146106525780639ab24eb01461067057610253565b806370a082311461052057806379cc6790146105505780637ecebe001461056c5780638456cb591461059c5780638e539e8c146105a657610253565b806336568abe116101d457806342966c681161019857806342966c681461046a578063587cde1e146104865780635c19a95c146104b65780635c975abb146104d25780636fcfff45146104f057610253565b806336568abe146103c857806339509351146103e45780633a46b1a8146104145780633f4ba83a1461044457806340c10f191461044e57610253565b806323b872dd1161021b57806323b872dd14610310578063248a9ca3146103405780632f2ff15d14610370578063313ce5671461038c5780633644e515146103aa57610253565b806301ffc9a71461025857806306fdde0314610288578063095ea7b3146102a657806318160ddd146102d65780631bc28a69146102f4575b600080fd5b610272600480360381019061026d9190613c34565b61083e565b60405161027f9190614254565b60405180910390f35b6102906108b8565b60405161029d91906143c8565b60405180910390f35b6102c060048036038101906102bb9190613ace565b61094a565b6040516102cd9190614254565b60405180910390f35b6102de610968565b6040516102eb91906147b8565b60405180910390f35b61030e6004803603810190610309919061397c565b610972565b005b61032a600480360381019061032591906139e1565b6109b5565b6040516103379190614254565b60405180910390f35b61035a60048036038101906103559190613bcf565b610aad565b604051610367919061426f565b60405180910390f35b61038a60048036038101906103859190613bf8565b610acd565b005b610394610af6565b6040516103a19190614817565b60405180910390f35b6103b2610aff565b6040516103bf919061426f565b60405180910390f35b6103e260048036038101906103dd9190613bf8565b610b0e565b005b6103fe60048036038101906103f99190613ace565b610b91565b60405161040b9190614254565b60405180910390f35b61042e60048036038101906104299190613ace565b610c3d565b60405161043b91906147b8565b60405180910390f35b61044c610cd1565b005b61046860048036038101906104639190613ace565b610d0e565b005b610484600480360381019061047f9190613c5d565b610dc5565b005b6104a0600480360381019061049b919061397c565b610dd9565b6040516104ad9190614239565b60405180910390f35b6104d060048036038101906104cb919061397c565b610e42565b005b6104da610e56565b6040516104e79190614254565b60405180910390f35b61050a6004803603810190610505919061397c565b610e6d565b60405161051791906147fc565b60405180910390f35b61053a6004803603810190610535919061397c565b610ec1565b60405161054791906147b8565b60405180910390f35b61056a60048036038101906105659190613ace565b610f09565b005b6105866004803603810190610581919061397c565b610f84565b60405161059391906147b8565b60405180910390f35b6105a4610fd4565b005b6105c060048036038101906105bb9190613c5d565b611011565b6040516105cd91906147b8565b60405180910390f35b6105f060048036038101906105eb9190613bf8565b611067565b6040516105fd9190614254565b60405180910390f35b610620600480360381019061061b919061397c565b6110d2565b005b61063c6004803603810190610637919061397c565b611115565b6040516106499190614254565b60405180910390f35b61065a611148565b60405161066791906143c8565b60405180910390f35b61068a6004803603810190610685919061397c565b6111da565b60405161069791906147b8565b60405180910390f35b6106a8611311565b6040516106b5919061426f565b60405180910390f35b6106d860048036038101906106d39190613ace565b611318565b6040516106e59190614254565b60405180910390f35b6107086004803603810190610703919061397c565b611403565b6040516107159190614254565b60405180910390f35b61073860048036038101906107339190613ace565b611436565b6040516107459190614254565b60405180910390f35b61076860048036038101906107639190613b0a565b611454565b005b610784600480360381019061077f9190613a30565b611558565b005b61078e61169a565b60405161079b919061426f565b60405180910390f35b6107be60048036038101906107b99190613bf8565b6116be565b005b6107da60048036038101906107d591906139a5565b6116e7565b6040516107e791906147b8565b60405180910390f35b6107f861176e565b604051610805919061426f565b60405180910390f35b61082860048036038101906108239190613b93565b611792565b604051610835919061479d565b60405180910390f35b60007f7965db0b000000000000000000000000000000000000000000000000000000007bffffffffffffffffffffffffffffffffffffffffffffffffffffffff1916827bffffffffffffffffffffffffffffffffffffffffffffffffffffffff191614806108b157506108b082611bd4565b5b9050919050565b6060600380546108c790614a8e565b80601f01602080910402602001604051908101604052809291908181526020018280546108f390614a8e565b80156109405780601f1061091557610100808354040283529160200191610940565b820191906000526020600020905b81548152906001019060200180831161092357829003601f168201915b5050505050905090565b600061095e610957611c3e565b8484611c46565b6001905092915050565b6000600254905090565b6000801b61098781610982611c3e565b611e11565b6109b17f65d7a28e3265b37a6474929f336521b332c1681b933f6cb9f3376673440d862a83611eae565b5050565b60006109c2848484611f8f565b6000600160008673ffffffffffffffffffffffffffffffffffffffff1673ffffffffffffffffffffffffffffffffffffffff1681526020019081526020016000206000610a0d611c3e565b73ffffffffffffffffffffffffffffffffffffffff1673ffffffffffffffffffffffffffffffffffffffff16815260200190815260200160002054905082811015610a8d576040517f08c379a0000000000000000000000000000000000000000000000000000000008152600401610a849061463d565b60405180910390fd5b610aa185610a99611c3e565b858403611c46565b60019150509392505050565b600060066000838152602001908152602001600020600101549050919050565b610ad682610aad565b610ae781610ae2611c3e565b611e11565b610af18383611eae565b505050565b60006012905090565b6000610b09612210565b905090565b610b16611c3e565b73ffffffffffffffffffffffffffffffffffffffff168173ffffffffffffffffffffffffffffffffffffffff1614610b83576040517f08c379a0000000000000000000000000000000000000000000000000000000008152600401610b7a9061475d565b60405180910390fd5b610b8d828261232a565b5050565b6000610c33610b9e611c3e565b848460016000610bac611c3e565b73ffffffffffffffffffffffffffffffffffffffff1673ffffffffffffffffffffffffffffffffffffffff16815260200190815260200160002060008873ffffffffffffffffffffffffffffffffffffffff1673ffffffffffffffffffffffffffffffffffffffff16815260200190815260200160002054610c2e9190614859565b611c46565b6001905092915050565b6000438210610c81576040517f08c379a0000000000000000000000000000000000000000000000000000000008152600401610c789061449d565b60405180910390fd5b610cc9600960008573ffffffffffffffffffffffffffffffffffffffff1673ffffffffffffffffffffffffffffffffffffffff1681526020019081526020016000208361240c565b905092915050565b7f65d7a28e3265b37a6474929f336521b332c1681b933f6cb9f3376673440d862a610d0381610cfe611c3e565b611e11565b610d0b612564565b50565b7f9f2df0fed2c77648de5860a4cc508cd0818c85b8b8a1ab4ceeef8d981c8956a6610d4081610d3b611c3e565b611e11565b610db66040518060400160405280600c81526020017f6d696e74696e6720746f3a200000000000000000000000000000000000000000815250846040518060400160405280600981526020017f20616d6f756e743a20000000000000000000000000000000000000000000000081525085612606565b610dc083836126a8565b505050565b610dd6610dd0611c3e565b826126b6565b50565b6000600860008373ffffffffffffffffffffffffffffffffffffffff1673ffffffffffffffffffffffffffffffffffffffff16815260200190815260200160002060009054906101000a900473ffffffffffffffffffffffffffffffffffffffff169050919050565b610e53610e4d611c3e565b826126c4565b50565b6000600560009054906101000a900460ff16905090565b6000610eba600960008473ffffffffffffffffffffffffffffffffffffffff1673ffffffffffffffffffffffffffffffffffffffff16815260200190815260200160002080549050611b36565b9050919050565b60008060008373ffffffffffffffffffffffffffffffffffffffff1673ffffffffffffffffffffffffffffffffffffffff168152602001908152602001600020549050919050565b6000610f1c83610f17611c3e565b6116e7565b905081811015610f61576040517f08c379a0000000000000000000000000000000000000000000000000000000008152600401610f589061469d565b60405180910390fd5b610f7583610f6d611c3e565b848403611c46565b610f7f83836126b6565b505050565b6000610fcd600760008473ffffffffffffffffffffffffffffffffffffffff1673ffffffffffffffffffffffffffffffffffffffff1681526020019081526020016000206127de565b9050919050565b7f65d7a28e3265b37a6474929f336521b332c1681b933f6cb9f3376673440d862a61100681611001611c3e565b611e11565b61100e6127ec565b50565b6000438210611055576040517f08c379a000000000000000000000000000000000000000000000000000000000815260040161104c9061449d565b60405180910390fd5b611060600a8361240c565b9050919050565b60006006600084815260200190815260200160002060000160008373ffffffffffffffffffffffffffffffffffffffff1673ffffffffffffffffffffffffffffffffffffffff16815260200190815260200160002060009054906101000a900460ff16905092915050565b6000801b6110e7816110e2611c3e565b611e11565b6111117f9f2df0fed2c77648de5860a4cc508cd0818c85b8b8a1ab4ceeef8d981c8956a683611eae565b5050565b60006111417f65d7a28e3265b37a6474929f336521b332c1681b933f6cb9f3376673440d862a83611067565b9050919050565b60606004805461115790614a8e565b80601f016020809104026020016040519081016040528092919081815260200182805461118390614a8e565b80156111d05780601f106111a5576101008083540402835291602001916111d0565b820191906000526020600020905b8154815290600101906020018083116111b357829003601f168201915b5050505050905090565b600080600960008473ffffffffffffffffffffffffffffffffffffffff1673ffffffffffffffffffffffffffffffffffffffff168152602001908152602001600020805490509050600081146112e857600960008473ffffffffffffffffffffffffffffffffffffffff1673ffffffffffffffffffffffffffffffffffffffff168152602001908152602001600020600182611276919061493a565b815481106112ad577f4e487b7100000000000000000000000000000000000000000000000000000000600052603260045260246000fd5b9060005260206000200160000160049054906101000a90047bffffffffffffffffffffffffffffffffffffffffffffffffffffffff166112eb565b60005b7bffffffffffffffffffffffffffffffffffffffffffffffffffffffff16915050919050565b6000801b81565b60008060016000611327611c3e565b73ffffffffffffffffffffffffffffffffffffffff1673ffffffffffffffffffffffffffffffffffffffff16815260200190815260200160002060008573ffffffffffffffffffffffffffffffffffffffff1673ffffffffffffffffffffffffffffffffffffffff168152602001908152602001600020549050828110156113e4576040517f08c379a00000000000000000000000000000000000000000000000000000000081526004016113db9061473d565b60405180910390fd5b6113f86113ef611c3e565b85858403611c46565b600191505092915050565b600061142f7f9f2df0fed2c77648de5860a4cc508cd0818c85b8b8a1ab4ceeef8d981c8956a683611067565b9050919050565b600061144a611443611c3e565b8484611f8f565b6001905092915050565b83421115611497576040517f08c379a000000000000000000000000000000000000000000000000000000000815260040161148e906144dd565b60405180910390fd5b60006114f96114f17fe48329057bfd03d55e49b547132e39cffd9c1820ad7b9d4c5307691425d15adf8989896040516020016114d694939291906142eb565b6040516020818303038152906040528051906020012061288f565b8585856128a9565b9050611504816128d4565b8614611545576040517f08c379a000000000000000000000000000000000000000000000000000000000815260040161153c9061453d565b60405180910390fd5b61154f81886126c4565b50505050505050565b8342111561159b576040517f08c379a00000000000000000000000000000000000000000000000000000000081526004016115929061457d565b60405180910390fd5b60007f00000000000000000000000000000000000000000000000000000000000000008888886115ca8c6128d4565b896040516020016115e09695949392919061428a565b60405160208183030381529060405280519060200120905060006116038261288f565b90506000611613828787876128a9565b90508973ffffffffffffffffffffffffffffffffffffffff168173ffffffffffffffffffffffffffffffffffffffff1614611683576040517f08c379a000000000000000000000000000000000000000000000000000000000815260040161167a9061461d565b60405180910390fd5b61168e8a8a8a611c46565b50505050505050505050565b7f9f2df0fed2c77648de5860a4cc508cd0818c85b8b8a1ab4ceeef8d981c8956a681565b6116c782610aad565b6116d8816116d3611c3e565b611e11565b6116e2838361232a565b505050565b6000600160008473ffffffffffffffffffffffffffffffffffffffff1673ffffffffffffffffffffffffffffffffffffffff16815260200190815260200160002060008373ffffffffffffffffffffffffffffffffffffffff1673ffffffffffffffffffffffffffffffffffffffff16815260200190815260200160002054905092915050565b7f65d7a28e3265b37a6474929f336521b332c1681b933f6cb9f3376673440d862a81565b61179a6138c0565b600960008473ffffffffffffffffffffffffffffffffffffffff1673ffffffffffffffffffffffffffffffffffffffff1681526020019081526020016000208263ffffffff1681548110611817577f4e487b7100000000000000000000000000000000000000000000000000000000600052603260045260246000fd5b906000526020600020016040518060400160405290816000820160009054906101000a900463ffffffff1663ffffffff1663ffffffff1681526020016000820160049054906101000a90047bffffffffffffffffffffffffffffffffffffffffffffffffffffffff167bffffffffffffffffffffffffffffffffffffffffffffffffffffffff167bffffffffffffffffffffffffffffffffffffffffffffffffffffffff1681525050905092915050565b6118d28282611955565b6118da612932565b7bffffffffffffffffffffffffffffffffffffffffffffffffffffffff16611900610968565b1115611941576040517f08c379a00000000000000000000000000000000000000000000000000000000081526004016119389061465d565b60405180910390fd5b61194f600a611ab583612956565b50505050565b600073ffffffffffffffffffffffffffffffffffffffff168273ffffffffffffffffffffffffffffffffffffffff1614156119c5576040517f08c379a00000000000000000000000000000000000000000000000000000000081526004016119bc9061477d565b60405180910390fd5b6119d160008383612c40565b80600260008282546119e39190614859565b92505081905550806000808473ffffffffffffffffffffffffffffffffffffffff1673ffffffffffffffffffffffffffffffffffffffff1681526020019081526020016000206000828254611a389190614859565b925050819055508173ffffffffffffffffffffffffffffffffffffffff16600073ffffffffffffffffffffffffffffffffffffffff167fddf252ad1be2c89b69c2b068fc378daa952ba7f163c4a11628f55a4df523b3ef83604051611a9d91906147b8565b60405180910390a3611ab160008383612c98565b5050565b60008183611ac39190614859565b905092915050565b60007bffffffffffffffffffffffffffffffffffffffffffffffffffffffff8016821115611b2e576040517f08c379a0000000000000000000000000000000000000000000000000000000008152600401611b259061467d565b60405180910390fd5b819050919050565b600063ffffffff8016821115611b81576040517f08c379a0000000000000000000000000000000000000000000000000000000008152600401611b78906146fd565b60405180910390fd5b819050919050565b505050565b611b99838383611bb9565b611bb4611ba584610dd9565b611bae84610dd9565b83612ca8565b505050565b505050565b60008183611bcc919061493a565b905092915050565b60007f01ffc9a7000000000000000000000000000000000000000000000000000000007bffffffffffffffffffffffffffffffffffffffffffffffffffffffff1916827bffffffffffffffffffffffffffffffffffffffffffffffffffffffff1916149050919050565b600033905090565b600073ffffffffffffffffffffffffffffffffffffffff168373ffffffffffffffffffffffffffffffffffffffff161415611cb6576040517f08c379a0000000000000000000000000000000000000000000000000000000008152600401611cad9061471d565b60405180910390fd5b600073ffffffffffffffffffffffffffffffffffffffff168273ffffffffffffffffffffffffffffffffffffffff161415611d26576040517f08c379a0000000000000000000000000000000000000000000000000000000008152600401611d1d9061455d565b60405180910390fd5b80600160008573ffffffffffffffffffffffffffffffffffffffff1673ffffffffffffffffffffffffffffffffffffffff16815260200190815260200160002060008473ffffffffffffffffffffffffffffffffffffffff1673ffffffffffffffffffffffffffffffffffffffff168152602001908152602001600020819055508173ffffffffffffffffffffffffffffffffffffffff168373ffffffffffffffffffffffffffffffffffffffff167f8c5be1e5ebec7d5bd14f71427d1e84f3dd0314c0f7b2291e5b200ac8c7c3b92583604051611e0491906147b8565b60405180910390a3505050565b611e1b8282611067565b611eaa57611e408173ffffffffffffffffffffffffffffffffffffffff166014612ea1565b611e4e8360001c6020612ea1565b604051602001611e5f9291906141ff565b6040516020818303038152906040526040517f08c379a0000000000000000000000000000000000000000000000000000000008152600401611ea191906143c8565b60405180910390fd5b5050565b611eb88282611067565b611f8b5760016006600084815260200190815260200160002060000160008373ffffffffffffffffffffffffffffffffffffffff1673ffffffffffffffffffffffffffffffffffffffff16815260200190815260200160002060006101000a81548160ff021916908315150217905550611f30611c3e565b73ffffffffffffffffffffffffffffffffffffffff168173ffffffffffffffffffffffffffffffffffffffff16837f2f8788117e7eff1d82e926ec794901d17c78024a50270940304540a733656f0d60405160405180910390a45b5050565b600073ffffffffffffffffffffffffffffffffffffffff168373ffffffffffffffffffffffffffffffffffffffff161415611fff576040517f08c379a0000000000000000000000000000000000000000000000000000000008152600401611ff6906146dd565b60405180910390fd5b600073ffffffffffffffffffffffffffffffffffffffff168273ffffffffffffffffffffffffffffffffffffffff16141561206f576040517f08c379a00000000000000000000000000000000000000000000000000000000081526004016120669061447d565b60405180910390fd5b61207a838383612c40565b60008060008573ffffffffffffffffffffffffffffffffffffffff1673ffffffffffffffffffffffffffffffffffffffff16815260200190815260200160002054905081811015612100576040517f08c379a00000000000000000000000000000000000000000000000000000000081526004016120f79061459d565b60405180910390fd5b8181036000808673ffffffffffffffffffffffffffffffffffffffff1673ffffffffffffffffffffffffffffffffffffffff16815260200190815260200160002081905550816000808573ffffffffffffffffffffffffffffffffffffffff1673ffffffffffffffffffffffffffffffffffffffff16815260200190815260200160002060008282546121939190614859565b925050819055508273ffffffffffffffffffffffffffffffffffffffff168473ffffffffffffffffffffffffffffffffffffffff167fddf252ad1be2c89b69c2b068fc378daa952ba7f163c4a11628f55a4df523b3ef846040516121f791906147b8565b60405180910390a361220a848484612c98565b50505050565b60007f000000000000000000000000000000000000000000000000000000000000000073ffffffffffffffffffffffffffffffffffffffff163073ffffffffffffffffffffffffffffffffffffffff1614801561228c57507f000000000000000000000000000000000000000000000000000000000000000046145b156122b9577f00000000000000000000000000000000000000000000000000000000000000009050612327565b6123247f00000000000000000000000000000000000000000000000000000000000000007f00000000000000000000000000000000000000000000000000000000000000007f000000000000000000000000000000000000000000000000000000000000000061319b565b90505b90565b6123348282611067565b156124085760006006600084815260200190815260200160002060000160008373ffffffffffffffffffffffffffffffffffffffff1673ffffffffffffffffffffffffffffffffffffffff16815260200190815260200160002060006101000a81548160ff0219169083151502179055506123ad611c3e565b73ffffffffffffffffffffffffffffffffffffffff168173ffffffffffffffffffffffffffffffffffffffff16837ff6391f5c32d9c69d2a47ea670b442974b53935d1edc7fd64eb21e047a839171b60405160405180910390a45b5050565b6000808380549050905060005b818110156124b157600061242d82846131d5565b905084868281548110612469577f4e487b7100000000000000000000000000000000000000000000000000000000600052603260045260246000fd5b9060005260206000200160000160009054906101000a900463ffffffff1663ffffffff16111561249b578092506124ab565b6001816124a89190614859565b91505b50612419565b6000821461253957846001836124c7919061493a565b815481106124fe577f4e487b7100000000000000000000000000000000000000000000000000000000600052603260045260246000fd5b9060005260206000200160000160049054906101000a90047bffffffffffffffffffffffffffffffffffffffffffffffffffffffff1661253c565b60005b7bffffffffffffffffffffffffffffffffffffffffffffffffffffffff169250505092915050565b61256c610e56565b6125ab576040517f08c379a00000000000000000000000000000000000000000000000000000000081526004016125a2906144bd565b60405180910390fd5b6000600560006101000a81548160ff0219169083151502179055507f5db9ee0a495bf2e6ff9c91a7834c1ba4fdd244a5e8aa4e537bd38aeae4b073aa6125ef611c3e565b6040516125fc9190614239565b60405180910390a1565b6126a28484848460405160240161262094939291906143ea565b6040516020818303038152906040527f8f624be9000000000000000000000000000000000000000000000000000000007bffffffffffffffffffffffffffffffffffffffffffffffffffffffff19166020820180517bffffffffffffffffffffffffffffffffffffffffffffffffffffffff83818316178352505050506131fb565b50505050565b6126b282826118c8565b5050565b6126c08282613224565b5050565b60006126cf83610dd9565b905060006126dc84610ec1565b905082600860008673ffffffffffffffffffffffffffffffffffffffff1673ffffffffffffffffffffffffffffffffffffffff16815260200190815260200160002060006101000a81548173ffffffffffffffffffffffffffffffffffffffff021916908373ffffffffffffffffffffffffffffffffffffffff1602179055508273ffffffffffffffffffffffffffffffffffffffff168273ffffffffffffffffffffffffffffffffffffffff168573ffffffffffffffffffffffffffffffffffffffff167f3134e8a2e6d97e929a7e54011ea5485d7d196dd5f0ba4d4ef95803e8e3fc257f60405160405180910390a46127d8828483612ca8565b50505050565b600081600001549050919050565b6127f4610e56565b15612834576040517f08c379a000000000000000000000000000000000000000000000000000000000815260040161282b906145dd565b60405180910390fd5b6001600560006101000a81548160ff0219169083151502179055507f62e78cea01bee320cd4e420270b5ea74000d11b0c9f74754ebdbfc544b05a258612878611c3e565b6040516128859190614239565b60405180910390a1565b60006128a261289c612210565b83613242565b9050919050565b60008060006128ba87878787613275565b915091506128c781613382565b8192505050949350505050565b600080600760008473ffffffffffffffffffffffffffffffffffffffff1673ffffffffffffffffffffffffffffffffffffffff1681526020019081526020016000209050612921816127de565b915061292c816136d3565b50919050565b60007bffffffffffffffffffffffffffffffffffffffffffffffffffffffff905090565b600080600085805490509050600081146129ea5785600182612978919061493a565b815481106129af577f4e487b7100000000000000000000000000000000000000000000000000000000600052603260045260246000fd5b9060005260206000200160000160049054906101000a90047bffffffffffffffffffffffffffffffffffffffffffffffffffffffff166129ed565b60005b7bffffffffffffffffffffffffffffffffffffffffffffffffffffffff169250612a1b83858763ffffffff16565b9150600081118015612a9457504386600183612a37919061493a565b81548110612a6e577f4e487b7100000000000000000000000000000000000000000000000000000000600052603260045260246000fd5b9060005260206000200160000160009054906101000a900463ffffffff1663ffffffff16145b15612b4757612aa282611acb565b86600183612ab0919061493a565b81548110612ae7577f4e487b7100000000000000000000000000000000000000000000000000000000600052603260045260246000fd5b9060005260206000200160000160046101000a8154817bffffffffffffffffffffffffffffffffffffffffffffffffffffffff02191690837bffffffffffffffffffffffffffffffffffffffffffffffffffffffff160217905550612c37565b856040518060400160405280612b5c43611b36565b63ffffffff168152602001612b7085611acb565b7bffffffffffffffffffffffffffffffffffffffffffffffffffffffff168152509080600181540180825580915050600190039060005260206000200160009091909190915060008201518160000160006101000a81548163ffffffff021916908363ffffffff16021790555060208201518160000160046101000a8154817bffffffffffffffffffffffffffffffffffffffffffffffffffffffff02191690837bffffffffffffffffffffffffffffffffffffffffffffffffffffffff16021790555050505b50935093915050565b612c48610e56565b15612c88576040517f08c379a0000000000000000000000000000000000000000000000000000000008152600401612c7f906145dd565b60405180910390fd5b612c93838383611b89565b505050565b612ca3838383611b8e565b505050565b8173ffffffffffffffffffffffffffffffffffffffff168373ffffffffffffffffffffffffffffffffffffffff1614158015612ce45750600081115b15612e9c57600073ffffffffffffffffffffffffffffffffffffffff168373ffffffffffffffffffffffffffffffffffffffff1614612dc257600080612d6b600960008773ffffffffffffffffffffffffffffffffffffffff1673ffffffffffffffffffffffffffffffffffffffff168152602001908152602001600020611bbe85612956565b915091508473ffffffffffffffffffffffffffffffffffffffff167fdec2bacdd2f05b59de34da9b523dff8be42e5e38e818c82fdb0bae774387a7248383604051612db79291906147d3565b60405180910390a250505b600073ffffffffffffffffffffffffffffffffffffffff168273ffffffffffffffffffffffffffffffffffffffff1614612e9b57600080612e44600960008673ffffffffffffffffffffffffffffffffffffffff1673ffffffffffffffffffffffffffffffffffffffff168152602001908152602001600020611ab585612956565b915091508373ffffffffffffffffffffffffffffffffffffffff167fdec2bacdd2f05b59de34da9b523dff8be42e5e38e818c82fdb0bae774387a7248383604051612e909291906147d3565b60405180910390a250505b5b505050565b606060006002836002612eb491906148e0565b612ebe9190614859565b67ffffffffffffffff811115612efd577f4e487b7100000000000000000000000000000000000000000000000000000000600052604160045260246000fd5b6040519080825280601f01601f191660200182016040528015612f2f5781602001600182028036833780820191505090505b5090507f300000000000000000000000000000000000000000000000000000000000000081600081518110612f8d577f4e487b7100000000000000000000000000000000000000000000000000000000600052603260045260246000fd5b60200101907effffffffffffffffffffffffffffffffffffffffffffffffffffffffffffff1916908160001a9053507f780000000000000000000000000000000000000000000000000000000000000081600181518110613017577f4e487b7100000000000000000000000000000000000000000000000000000000600052603260045260246000fd5b60200101907effffffffffffffffffffffffffffffffffffffffffffffffffffffffffffff1916908160001a9053506000600184600261305791906148e0565b6130619190614859565b90505b600181111561314d577f3031323334353637383961626364656600000000000000000000000000000000600f8616601081106130c9577f4e487b7100000000000000000000000000000000000000000000000000000000600052603260045260246000fd5b1a60f81b828281518110613106577f4e487b7100000000000000000000000000000000000000000000000000000000600052603260045260246000fd5b60200101907effffffffffffffffffffffffffffffffffffffffffffffffffffffffffffff1916908160001a905350600485901c94508061314690614a64565b9050613064565b5060008414613191576040517f08c379a00000000000000000000000000000000000000000000000000000000081526004016131889061445d565b60405180910390fd5b8091505092915050565b600083838346306040516020016131b6959493929190614330565b6040516020818303038152906040528051906020012090509392505050565b600060028284186131e691906148af565b8284166131f39190614859565b905092915050565b60008151905060006a636f6e736f6c652e6c6f679050602083016000808483855afa5050505050565b61322e82826136e9565b61323c600a611bbe83612956565b50505050565b600082826040516020016132579291906141c8565b60405160208183030381529060405280519060200120905092915050565b6000807f7fffffffffffffffffffffffffffffff5d576e7357a4501ddfe92f46681b20a08360001c11156132b0576000600391509150613379565b601b8560ff16141580156132c85750601c8560ff1614155b156132da576000600491509150613379565b6000600187878787604051600081526020016040526040516132ff9493929190614383565b6020604051602081039080840390855afa158015613321573d6000803e3d6000fd5b505050602060405103519050600073ffffffffffffffffffffffffffffffffffffffff168173ffffffffffffffffffffffffffffffffffffffff16141561337057600060019250925050613379565b80600092509250505b94509492505050565b600060048111156133bc577f4e487b7100000000000000000000000000000000000000000000000000000000600052602160045260246000fd5b8160048111156133f5577f4e487b7100000000000000000000000000000000000000000000000000000000600052602160045260246000fd5b1415613400576136d0565b6001600481111561343a577f4e487b7100000000000000000000000000000000000000000000000000000000600052602160045260246000fd5b816004811115613473577f4e487b7100000000000000000000000000000000000000000000000000000000600052602160045260246000fd5b14156134b4576040517f08c379a00000000000000000000000000000000000000000000000000000000081526004016134ab9061443d565b60405180910390fd5b600260048111156134ee577f4e487b7100000000000000000000000000000000000000000000000000000000600052602160045260246000fd5b816004811115613527577f4e487b7100000000000000000000000000000000000000000000000000000000600052602160045260246000fd5b1415613568576040517f08c379a000000000000000000000000000000000000000000000000000000000815260040161355f9061451d565b60405180910390fd5b600360048111156135a2577f4e487b7100000000000000000000000000000000000000000000000000000000600052602160045260246000fd5b8160048111156135db577f4e487b7100000000000000000000000000000000000000000000000000000000600052602160045260246000fd5b141561361c576040517f08c379a0000000000000000000000000000000000000000000000000000000008152600401613613906145bd565b60405180910390fd5b600480811115613655577f4e487b7100000000000000000000000000000000000000000000000000000000600052602160045260246000fd5b81600481111561368e577f4e487b7100000000000000000000000000000000000000000000000000000000600052602160045260246000fd5b14156136cf576040517f08c379a00000000000000000000000000000000000000000000000000000000081526004016136c6906145fd565b60405180910390fd5b5b50565b6001816000016000828254019250508190555050565b600073ffffffffffffffffffffffffffffffffffffffff168273ffffffffffffffffffffffffffffffffffffffff161415613759576040517f08c379a0000000000000000000000000000000000000000000000000000000008152600401613750906146bd565b60405180910390fd5b61376582600083612c40565b60008060008473ffffffffffffffffffffffffffffffffffffffff1673ffffffffffffffffffffffffffffffffffffffff168152602001908152602001600020549050818110156137eb576040517f08c379a00000000000000000000000000000000000000000000000000000000081526004016137e2906144fd565b60405180910390fd5b8181036000808573ffffffffffffffffffffffffffffffffffffffff1673ffffffffffffffffffffffffffffffffffffffff168152602001908152602001600020819055508160026000828254613842919061493a565b92505081905550600073ffffffffffffffffffffffffffffffffffffffff168373ffffffffffffffffffffffffffffffffffffffff167fddf252ad1be2c89b69c2b068fc378daa952ba7f163c4a11628f55a4df523b3ef846040516138a791906147b8565b60405180910390a36138bb83600084612c98565b505050565b6040518060400160405280600063ffffffff16815260200160007bffffffffffffffffffffffffffffffffffffffffffffffffffffffff1681525090565b60008135905061390d81615296565b92915050565b600081359050613922816152ad565b92915050565b600081359050613937816152c4565b92915050565b60008135905061394c816152db565b92915050565b600081359050613961816152f2565b92915050565b60008135905061397681615309565b92915050565b60006020828403121561398e57600080fd5b600061399c848285016138fe565b91505092915050565b600080604083850312156139b857600080fd5b60006139c6858286016138fe565b92505060206139d7858286016138fe565b9150509250929050565b6000806000606084860312156139f657600080fd5b6000613a04868287016138fe565b9350506020613a15868287016138fe565b9250506040613a268682870161393d565b9150509250925092565b600080600080600080600060e0888a031215613a4b57600080fd5b6000613a598a828b016138fe565b9750506020613a6a8a828b016138fe565b9650506040613a7b8a828b0161393d565b9550506060613a8c8a828b0161393d565b9450506080613a9d8a828b01613967565b93505060a0613aae8a828b01613913565b92505060c0613abf8a828b01613913565b91505092959891949750929550565b60008060408385031215613ae157600080fd5b6000613aef858286016138fe565b9250506020613b008582860161393d565b9150509250929050565b60008060008060008060c08789031215613b2357600080fd5b6000613b3189828a016138fe565b9650506020613b4289828a0161393d565b9550506040613b5389828a0161393d565b9450506060613b6489828a01613967565b9350506080613b7589828a01613913565b92505060a0613b8689828a01613913565b9150509295509295509295565b60008060408385031215613ba657600080fd5b6000613bb4858286016138fe565b9250506020613bc585828601613952565b9150509250929050565b600060208284031215613be157600080fd5b6000613bef84828501613913565b91505092915050565b60008060408385031215613c0b57600080fd5b6000613c1985828601613913565b9250506020613c2a858286016138fe565b9150509250929050565b600060208284031215613c4657600080fd5b6000613c5484828501613928565b91505092915050565b600060208284031215613c6f57600080fd5b6000613c7d8482850161393d565b91505092915050565b613c8f8161496e565b82525050565b613c9e81614980565b82525050565b613cad8161498c565b82525050565b613cc4613cbf8261498c565b614ac0565b82525050565b6000613cd582614832565b613cdf818561483d565b9350613cef818560208601614a31565b613cf881614b57565b840191505092915050565b6000613d0e82614832565b613d18818561484e565b9350613d28818560208601614a31565b80840191505092915050565b6000613d4160188361483d565b9150613d4c82614b68565b602082019050919050565b6000613d6460208361483d565b9150613d6f82614b91565b602082019050919050565b6000613d8760238361483d565b9150613d9282614bba565b604082019050919050565b6000613daa601f8361483d565b9150613db582614c09565b602082019050919050565b6000613dcd60148361483d565b9150613dd882614c32565b602082019050919050565b6000613df0601d8361483d565b9150613dfb82614c5b565b602082019050919050565b6000613e1360228361483d565b9150613e1e82614c84565b604082019050919050565b6000613e36601f8361483d565b9150613e4182614cd3565b602082019050919050565b6000613e5960198361483d565b9150613e6482614cfc565b602082019050919050565b6000613e7c60228361483d565b9150613e8782614d25565b604082019050919050565b6000613e9f60028361484e565b9150613eaa82614d74565b600282019050919050565b6000613ec2601d8361483d565b9150613ecd82614d9d565b602082019050919050565b6000613ee560268361483d565b9150613ef082614dc6565b604082019050919050565b6000613f0860228361483d565b9150613f1382614e15565b604082019050919050565b6000613f2b60108361483d565b9150613f3682614e64565b602082019050919050565b6000613f4e60228361483d565b9150613f5982614e8d565b604082019050919050565b6000613f71601e8361483d565b9150613f7c82614edc565b602082019050919050565b6000613f9460288361483d565b9150613f9f82614f05565b604082019050919050565b6000613fb760308361483d565b9150613fc282614f54565b604082019050919050565b6000613fda60278361483d565b9150613fe582614fa3565b604082019050919050565b6000613ffd60248361483d565b915061400882614ff2565b604082019050919050565b600061402060218361483d565b915061402b82615041565b604082019050919050565b600061404360258361483d565b915061404e82615090565b604082019050919050565b600061406660268361483d565b9150614071826150df565b604082019050919050565b600061408960248361483d565b91506140948261512e565b604082019050919050565b60006140ac60178361484e565b91506140b78261517d565b601782019050919050565b60006140cf60258361483d565b91506140da826151a6565b604082019050919050565b60006140f260118361484e565b91506140fd826151f5565b601182019050919050565b6000614115602f8361483d565b91506141208261521e565b604082019050919050565b6000614138601f8361483d565b91506141438261526d565b602082019050919050565b604082016000820151614164600085018261419b565b506020820151614177602085018261417d565b50505050565b614186816149e2565b82525050565b61419581614a0a565b82525050565b6141a481614a14565b82525050565b6141b381614a14565b82525050565b6141c281614a24565b82525050565b60006141d382613e92565b91506141df8285613cb3565b6020820191506141ef8284613cb3565b6020820191508190509392505050565b600061420a8261409f565b91506142168285613d03565b9150614221826140e5565b915061422d8284613d03565b91508190509392505050565b600060208201905061424e6000830184613c86565b92915050565b60006020820190506142696000830184613c95565b92915050565b60006020820190506142846000830184613ca4565b92915050565b600060c08201905061429f6000830189613ca4565b6142ac6020830188613c86565b6142b96040830187613c86565b6142c6606083018661418c565b6142d3608083018561418c565b6142e060a083018461418c565b979650505050505050565b60006080820190506143006000830187613ca4565b61430d6020830186613c86565b61431a604083018561418c565b614327606083018461418c565b95945050505050565b600060a0820190506143456000830188613ca4565b6143526020830187613ca4565b61435f6040830186613ca4565b61436c606083018561418c565b6143796080830184613c86565b9695505050505050565b60006080820190506143986000830187613ca4565b6143a560208301866141b9565b6143b26040830185613ca4565b6143bf6060830184613ca4565b95945050505050565b600060208201905081810360008301526143e28184613cca565b905092915050565b600060808201905081810360008301526144048187613cca565b90506144136020830186613c86565b81810360408301526144258185613cca565b9050614434606083018461418c565b95945050505050565b6000602082019050818103600083015261445681613d34565b9050919050565b6000602082019050818103600083015261447681613d57565b9050919050565b6000602082019050818103600083015261449681613d7a565b9050919050565b600060208201905081810360008301526144b681613d9d565b9050919050565b600060208201905081810360008301526144d681613dc0565b9050919050565b600060208201905081810360008301526144f681613de3565b9050919050565b6000602082019050818103600083015261451681613e06565b9050919050565b6000602082019050818103600083015261453681613e29565b9050919050565b6000602082019050818103600083015261455681613e4c565b9050919050565b6000602082019050818103600083015261457681613e6f565b9050919050565b6000602082019050818103600083015261459681613eb5565b9050919050565b600060208201905081810360008301526145b681613ed8565b9050919050565b600060208201905081810360008301526145d681613efb565b9050919050565b600060208201905081810360008301526145f681613f1e565b9050919050565b6000602082019050818103600083015261461681613f41565b9050919050565b6000602082019050818103600083015261463681613f64565b9050919050565b6000602082019050818103600083015261465681613f87565b9050919050565b6000602082019050818103600083015261467681613faa565b9050919050565b6000602082019050818103600083015261469681613fcd565b9050919050565b600060208201905081810360008301526146b681613ff0565b9050919050565b600060208201905081810360008301526146d681614013565b9050919050565b600060208201905081810360008301526146f681614036565b9050919050565b6000602082019050818103600083015261471681614059565b9050919050565b600060208201905081810360008301526147368161407c565b9050919050565b60006020820190508181036000830152614756816140c2565b9050919050565b6000602082019050818103600083015261477681614108565b9050919050565b600060208201905081810360008301526147968161412b565b9050919050565b60006040820190506147b2600083018461414e565b92915050565b60006020820190506147cd600083018461418c565b92915050565b60006040820190506147e8600083018561418c565b6147f5602083018461418c565b9392505050565b600060208201905061481160008301846141aa565b92915050565b600060208201905061482c60008301846141b9565b92915050565b600081519050919050565b600082825260208201905092915050565b600081905092915050565b600061486482614a0a565b915061486f83614a0a565b9250827fffffffffffffffffffffffffffffffffffffffffffffffffffffffffffffffff038211156148a4576148a3614aca565b5b828201905092915050565b60006148ba82614a0a565b91506148c583614a0a565b9250826148d5576148d4614af9565b5b828204905092915050565b60006148eb82614a0a565b91506148f683614a0a565b9250817fffffffffffffffffffffffffffffffffffffffffffffffffffffffffffffffff048311821515161561492f5761492e614aca565b5b828202905092915050565b600061494582614a0a565b915061495083614a0a565b92508282101561496357614962614aca565b5b828203905092915050565b6000614979826149c2565b9050919050565b60008115159050919050565b6000819050919050565b60007fffffffff0000000000000000000000000000000000000000000000000000000082169050919050565b600073ffffffffffffffffffffffffffffffffffffffff82169050919050565b60007bffffffffffffffffffffffffffffffffffffffffffffffffffffffff82169050919050565b6000819050919050565b600063ffffffff82169050919050565b600060ff82169050919050565b60005b83811015614a4f578082015181840152602081019050614a34565b83811115614a5e576000848401525b50505050565b6000614a6f82614a0a565b91506000821415614a8357614a82614aca565b5b600182039050919050565b60006002820490506001821680614aa657607f821691505b60208210811415614aba57614ab9614b28565b5b50919050565b6000819050919050565b7f4e487b7100000000000000000000000000000000000000000000000000000000600052601160045260246000fd5b7f4e487b7100000000000000000000000000000000000000000000000000000000600052601260045260246000fd5b7f4e487b7100000000000000000000000000000000000000000000000000000000600052602260045260246000fd5b6000601f19601f8301169050919050565b7f45434453413a20696e76616c6964207369676e61747572650000000000000000600082015250565b7f537472696e67733a20686578206c656e67746820696e73756666696369656e74600082015250565b7f45524332303a207472616e7366657220746f20746865207a65726f206164647260008201527f6573730000000000000000000000000000000000000000000000000000000000602082015250565b7f4552433230566f7465733a20626c6f636b206e6f7420796574206d696e656400600082015250565b7f5061757361626c653a206e6f7420706175736564000000000000000000000000600082015250565b7f4552433230566f7465733a207369676e61747572652065787069726564000000600082015250565b7f45524332303a206275726e20616d6f756e7420657863656564732062616c616e60008201527f6365000000000000000000000000000000000000000000000000000000000000602082015250565b7f45434453413a20696e76616c6964207369676e6174757265206c656e67746800600082015250565b7f4552433230566f7465733a20696e76616c6964206e6f6e636500000000000000600082015250565b7f45524332303a20617070726f766520746f20746865207a65726f20616464726560008201527f7373000000000000000000000000000000000000000000000000000000000000602082015250565b7f1901000000000000000000000000000000000000000000000000000000000000600082015250565b7f45524332305065726d69743a206578706972656420646561646c696e65000000600082015250565b7f45524332303a207472616e7366657220616d6f756e742065786365656473206260008201527f616c616e63650000000000000000000000000000000000000000000000000000602082015250565b7f45434453413a20696e76616c6964207369676e6174757265202773272076616c60008201527f7565000000000000000000000000000000000000000000000000000000000000602082015250565b7f5061757361626c653a2070617573656400000000000000000000000000000000600082015250565b7f45434453413a20696e76616c6964207369676e6174757265202776272076616c60008201527f7565000000000000000000000000000000000000000000000000000000000000602082015250565b7f45524332305065726d69743a20696e76616c6964207369676e61747572650000600082015250565b7f45524332303a207472616e7366657220616d6f756e742065786365656473206160008201527f6c6c6f77616e6365000000000000000000000000000000000000000000000000602082015250565b7f4552433230566f7465733a20746f74616c20737570706c79207269736b73206f60008201527f766572666c6f77696e6720766f74657300000000000000000000000000000000602082015250565b7f53616665436173743a2076616c756520646f65736e27742066697420696e203260008201527f3234206269747300000000000000000000000000000000000000000000000000602082015250565b7f45524332303a206275726e20616d6f756e74206578636565647320616c6c6f7760008201527f616e636500000000000000000000000000000000000000000000000000000000602082015250565b7f45524332303a206275726e2066726f6d20746865207a65726f2061646472657360008201527f7300000000000000000000000000000000000000000000000000000000000000602082015250565b7f45524332303a207472616e736665722066726f6d20746865207a65726f20616460008201527f6472657373000000000000000000000000000000000000000000000000000000602082015250565b7f53616665436173743a2076616c756520646f65736e27742066697420696e203360008201527f3220626974730000000000000000000000000000000000000000000000000000602082015250565b7f45524332303a20617070726f76652066726f6d20746865207a65726f2061646460008201527f7265737300000000000000000000000000000000000000000000000000000000602082015250565b7f416363657373436f6e74726f6c3a206163636f756e7420000000000000000000600082015250565b7f45524332303a2064656372656173656420616c6c6f77616e63652062656c6f7760008201527f207a65726f000000000000000000000000000000000000000000000000000000602082015250565b7f206973206d697373696e6720726f6c6520000000000000000000000000000000600082015250565b7f416363657373436f6e74726f6c3a2063616e206f6e6c792072656e6f756e636560008201527f20726f6c657320666f722073656c660000000000000000000000000000000000602082015250565b7f45524332303a206d696e7420746f20746865207a65726f206164647265737300600082015250565b61529f8161496e565b81146152aa57600080fd5b50565b6152b68161498c565b81146152c157600080fd5b50565b6152cd81614996565b81146152d857600080fd5b50565b6152e481614a0a565b81146152ef57600080fd5b50565b6152fb81614a14565b811461530657600080fd5b50565b61531281614a24565b811461531d57600080fd5b5056fea26469706673582212203742c4e8360ae25b8645b995d63336171b0db4596b5ffff55e98375e989da6ac64736f6c63430008020033",
  "linkReferences": {},
  "deployedLinkReferences": {}
}