{
  "_format": "hh-sol-artifact-1",
  "contractName": "LearnDAOGovernor",
  "sourceName": "contracts/LearnGovernor.sol",
  "abi": [
    {
      "inputs": [
        {
          "internalType": "contract ERC20Votes",
          "name": "_token",
          "type": "address"
        },
        {
          "internalType": "string",
          "name": "_name",
          "type": "string"
        },
        {
          "internalType": "address",
          "name": "_tokenToAccept",
          "type": "address"
        }
      ],
      "stateMutability": "nonpayable",
      "type": "constructor"
    },
    {
      "anonymous": false,
      "inputs": [
        {
          "indexed": false,
          "internalType": "uint256",
          "name": "proposalId",
          "type": "uint256"
        }
      ],
      "name": "ProposalCanceled",
      "type": "event"
    },
    {
      "anonymous": false,
      "inputs": [
        {
          "indexed": false,
          "internalType": "uint256",
          "name": "proposalId",
          "type": "uint256"
        },
        {
          "indexed": false,
          "internalType": "address",
          "name": "proposer",
          "type": "address"
        },
        {
          "indexed": false,
          "internalType": "address[]",
          "name": "targets",
          "type": "address[]"
        },
        {
          "indexed": false,
          "internalType": "uint256[]",
          "name": "values",
          "type": "uint256[]"
        },
        {
          "indexed": false,
          "internalType": "string[]",
          "name": "signatures",
          "type": "string[]"
        },
        {
          "indexed": false,
          "internalType": "bytes[]",
          "name": "calldatas",
          "type": "bytes[]"
        },
        {
          "indexed": false,
          "internalType": "uint256",
          "name": "startBlock",
          "type": "uint256"
        },
        {
          "indexed": false,
          "internalType": "uint256",
          "name": "endBlock",
          "type": "uint256"
        },
        {
          "indexed": false,
          "internalType": "string",
          "name": "description",
          "type": "string"
        }
      ],
      "name": "ProposalCreated",
      "type": "event"
    },
    {
      "anonymous": false,
      "inputs": [
        {
          "indexed": false,
          "internalType": "uint256",
          "name": "proposalId",
          "type": "uint256"
        }
      ],
      "name": "ProposalExecuted",
      "type": "event"
    },
    {
      "anonymous": false,
      "inputs": [
        {
          "indexed": false,
          "internalType": "uint256",
          "name": "oldProposalThreshold",
          "type": "uint256"
        },
        {
          "indexed": false,
          "internalType": "uint256",
          "name": "newProposalThreshold",
          "type": "uint256"
        }
      ],
      "name": "ProposalThresholdSet",
      "type": "event"
    },
    {
      "anonymous": false,
      "inputs": [
        {
          "indexed": false,
          "internalType": "uint256",
          "name": "oldQuorumNumerator",
          "type": "uint256"
        },
        {
          "indexed": false,
          "internalType": "uint256",
          "name": "newQuorumNumerator",
          "type": "uint256"
        }
      ],
      "name": "QuorumNumeratorUpdated",
      "type": "event"
    },
    {
      "anonymous": false,
      "inputs": [
        {
          "indexed": true,
          "internalType": "address",
          "name": "voter",
          "type": "address"
        },
        {
          "indexed": false,
          "internalType": "uint256",
          "name": "proposalId",
          "type": "uint256"
        },
        {
          "indexed": false,
          "internalType": "uint8",
          "name": "support",
          "type": "uint8"
        },
        {
          "indexed": false,
          "internalType": "uint256",
          "name": "weight",
          "type": "uint256"
        },
        {
          "indexed": false,
          "internalType": "string",
          "name": "reason",
          "type": "string"
        }
      ],
      "name": "VoteCast",
      "type": "event"
    },
    {
      "anonymous": false,
      "inputs": [
        {
          "indexed": false,
          "internalType": "uint256",
          "name": "oldVotingDelay",
          "type": "uint256"
        },
        {
          "indexed": false,
          "internalType": "uint256",
          "name": "newVotingDelay",
          "type": "uint256"
        }
      ],
      "name": "VotingDelaySet",
      "type": "event"
    },
    {
      "anonymous": false,
      "inputs": [
        {
          "indexed": false,
          "internalType": "uint256",
          "name": "oldVotingPeriod",
          "type": "uint256"
        },
        {
          "indexed": false,
          "internalType": "uint256",
          "name": "newVotingPeriod",
          "type": "uint256"
        }
      ],
      "name": "VotingPeriodSet",
      "type": "event"
    },
    {
      "inputs": [],
      "name": "BALLOT_TYPEHASH",
      "outputs": [
        {
          "internalType": "bytes32",
          "name": "",
          "type": "bytes32"
        }
      ],
      "stateMutability": "view",
      "type": "function"
    },
    {
      "inputs": [],
      "name": "COUNTING_MODE",
      "outputs": [
        {
          "internalType": "string",
          "name": "",
          "type": "string"
        }
      ],
      "stateMutability": "pure",
      "type": "function"
    },
    {
      "inputs": [
        {
          "internalType": "string",
          "name": "",
          "type": "string"
        }
      ],
      "name": "acceptedProposal",
      "outputs": [
        {
          "internalType": "address",
          "name": "",
          "type": "address"
        }
      ],
      "stateMutability": "view",
      "type": "function"
    },
    {
      "inputs": [
        {
          "internalType": "uint256",
          "name": "_amount",
          "type": "uint256"
        }
      ],
      "name": "addMember",
      "outputs": [],
      "stateMutability": "nonpayable",
      "type": "function"
    },
    {
      "inputs": [
        {
          "internalType": "uint256",
          "name": "proposalId",
          "type": "uint256"
        },
        {
          "internalType": "uint8",
          "name": "support",
          "type": "uint8"
        }
      ],
      "name": "castVote",
      "outputs": [
        {
          "internalType": "uint256",
          "name": "",
          "type": "uint256"
        }
      ],
      "stateMutability": "nonpayable",
      "type": "function"
    },
    {
      "inputs": [
        {
          "internalType": "uint256",
          "name": "proposalId",
          "type": "uint256"
        },
        {
          "internalType": "uint8",
          "name": "support",
          "type": "uint8"
        },
        {
          "internalType": "uint8",
          "name": "v",
          "type": "uint8"
        },
        {
          "internalType": "bytes32",
          "name": "r",
          "type": "bytes32"
        },
        {
          "internalType": "bytes32",
          "name": "s",
          "type": "bytes32"
        }
      ],
      "name": "castVoteBySig",
      "outputs": [
        {
          "internalType": "uint256",
          "name": "",
          "type": "uint256"
        }
      ],
      "stateMutability": "nonpayable",
      "type": "function"
    },
    {
      "inputs": [
        {
          "internalType": "uint256",
          "name": "proposalId",
          "type": "uint256"
        },
        {
          "internalType": "uint8",
          "name": "support",
          "type": "uint8"
        },
        {
          "internalType": "string",
          "name": "reason",
          "type": "string"
        }
      ],
      "name": "castVoteWithReason",
      "outputs": [
        {
          "internalType": "uint256",
          "name": "",
          "type": "uint256"
        }
      ],
      "stateMutability": "nonpayable",
      "type": "function"
    },
    {
      "inputs": [
        {
          "internalType": "string",
          "name": "_id",
          "type": "string"
        },
        {
          "internalType": "address",
          "name": "_user",
          "type": "address"
        },
        {
          "internalType": "uint256",
          "name": "_amount",
          "type": "uint256"
        }
      ],
      "name": "disburseIncentive",
      "outputs": [],
      "stateMutability": "nonpayable",
      "type": "function"
    },
    {
      "inputs": [
        {
          "internalType": "address[]",
          "name": "targets",
          "type": "address[]"
        },
        {
          "internalType": "uint256[]",
          "name": "values",
          "type": "uint256[]"
        },
        {
          "internalType": "bytes[]",
          "name": "calldatas",
          "type": "bytes[]"
        },
        {
          "internalType": "bytes32",
          "name": "descriptionHash",
          "type": "bytes32"
        }
      ],
      "name": "execute",
      "outputs": [
        {
          "internalType": "uint256",
          "name": "",
          "type": "uint256"
        }
      ],
      "stateMutability": "payable",
      "type": "function"
    },
    {
      "inputs": [
        {
          "internalType": "address",
          "name": "account",
          "type": "address"
        },
        {
          "internalType": "uint256",
          "name": "blockNumber",
          "type": "uint256"
        }
      ],
      "name": "getVotes",
      "outputs": [
        {
          "internalType": "uint256",
          "name": "",
          "type": "uint256"
        }
      ],
      "stateMutability": "view",
      "type": "function"
    },
    {
      "inputs": [
        {
          "internalType": "uint256",
          "name": "proposalId",
          "type": "uint256"
        },
        {
          "internalType": "address",
          "name": "account",
          "type": "address"
        }
      ],
      "name": "hasVoted",
      "outputs": [
        {
          "internalType": "bool",
          "name": "",
          "type": "bool"
        }
      ],
      "stateMutability": "view",
      "type": "function"
    },
    {
      "inputs": [
        {
          "internalType": "address[]",
          "name": "targets",
          "type": "address[]"
        },
        {
          "internalType": "uint256[]",
          "name": "values",
          "type": "uint256[]"
        },
        {
          "internalType": "bytes[]",
          "name": "calldatas",
          "type": "bytes[]"
        },
        {
          "internalType": "bytes32",
          "name": "descriptionHash",
          "type": "bytes32"
        }
      ],
      "name": "hashProposal",
      "outputs": [
        {
          "internalType": "uint256",
          "name": "",
          "type": "uint256"
        }
      ],
      "stateMutability": "pure",
      "type": "function"
    },
    {
      "inputs": [],
      "name": "name",
      "outputs": [
        {
          "internalType": "string",
          "name": "",
          "type": "string"
        }
      ],
      "stateMutability": "view",
      "type": "function"
    },
    {
      "inputs": [
        {
          "internalType": "uint256",
          "name": "proposalId",
          "type": "uint256"
        }
      ],
      "name": "proposalDeadline",
      "outputs": [
        {
          "internalType": "uint256",
          "name": "",
          "type": "uint256"
        }
      ],
      "stateMutability": "view",
      "type": "function"
    },
    {
      "inputs": [
        {
          "internalType": "uint256",
          "name": "proposalId",
          "type": "uint256"
        }
      ],
      "name": "proposalSnapshot",
      "outputs": [
        {
          "internalType": "uint256",
          "name": "",
          "type": "uint256"
        }
      ],
      "stateMutability": "view",
      "type": "function"
    },
    {
      "inputs": [],
      "name": "proposalThreshold",
      "outputs": [
        {
          "internalType": "uint256",
          "name": "",
          "type": "uint256"
        }
      ],
      "stateMutability": "view",
      "type": "function"
    },
    {
      "inputs": [
        {
          "internalType": "uint256",
          "name": "proposalId",
          "type": "uint256"
        }
      ],
      "name": "proposalVotes",
      "outputs": [
        {
          "internalType": "uint256",
          "name": "againstVotes",
          "type": "uint256"
        },
        {
          "internalType": "uint256",
          "name": "forVotes",
          "type": "uint256"
        },
        {
          "internalType": "uint256",
          "name": "abstainVotes",
          "type": "uint256"
        }
      ],
      "stateMutability": "view",
      "type": "function"
    },
    {
      "inputs": [
        {
          "internalType": "address[]",
          "name": "targets",
          "type": "address[]"
        },
        {
          "internalType": "uint256[]",
          "name": "values",
          "type": "uint256[]"
        },
        {
          "internalType": "bytes[]",
          "name": "calldatas",
          "type": "bytes[]"
        },
        {
          "internalType": "string",
          "name": "description",
          "type": "string"
        }
      ],
      "name": "propose",
      "outputs": [
        {
          "internalType": "uint256",
          "name": "",
          "type": "uint256"
        }
      ],
      "stateMutability": "nonpayable",
      "type": "function"
    },
    {
      "inputs": [
        {
          "internalType": "uint256",
          "name": "blockNumber",
          "type": "uint256"
        }
      ],
      "name": "quorum",
      "outputs": [
        {
          "internalType": "uint256",
          "name": "",
          "type": "uint256"
        }
      ],
      "stateMutability": "view",
      "type": "function"
    },
    {
      "inputs": [],
      "name": "quorumDenominator",
      "outputs": [
        {
          "internalType": "uint256",
          "name": "",
          "type": "uint256"
        }
      ],
      "stateMutability": "view",
      "type": "function"
    },
    {
      "inputs": [],
      "name": "quorumNumerator",
      "outputs": [
        {
          "internalType": "uint256",
          "name": "",
          "type": "uint256"
        }
      ],
      "stateMutability": "view",
      "type": "function"
    },
    {
      "inputs": [],
      "name": "receiveEthForTransactions",
      "outputs": [],
      "stateMutability": "payable",
      "type": "function"
    },
    {
      "inputs": [
        {
          "internalType": "string",
          "name": "_id",
          "type": "string"
        },
        {
          "internalType": "address",
          "name": "user",
          "type": "address"
        }
      ],
      "name": "setAcceptedProposal",
      "outputs": [],
      "stateMutability": "nonpayable",
      "type": "function"
    },
    {
      "inputs": [
        {
          "internalType": "uint256",
          "name": "newProposalThreshold",
          "type": "uint256"
        }
      ],
      "name": "setProposalThreshold",
      "outputs": [],
      "stateMutability": "nonpayable",
      "type": "function"
    },
    {
      "inputs": [
        {
          "internalType": "uint256",
          "name": "newVotingDelay",
          "type": "uint256"
        }
      ],
      "name": "setVotingDelay",
      "outputs": [],
      "stateMutability": "nonpayable",
      "type": "function"
    },
    {
      "inputs": [
        {
          "internalType": "uint256",
          "name": "newVotingPeriod",
          "type": "uint256"
        }
      ],
      "name": "setVotingPeriod",
      "outputs": [],
      "stateMutability": "nonpayable",
      "type": "function"
    },
    {
      "inputs": [
        {
          "internalType": "uint256",
          "name": "proposalId",
          "type": "uint256"
        }
      ],
      "name": "state",
      "outputs": [
        {
          "internalType": "enum IGovernor.ProposalState",
          "name": "",
          "type": "uint8"
        }
      ],
      "stateMutability": "view",
      "type": "function"
    },
    {
      "inputs": [
        {
          "internalType": "bytes4",
          "name": "interfaceId",
          "type": "bytes4"
        }
      ],
      "name": "supportsInterface",
      "outputs": [
        {
          "internalType": "bool",
          "name": "",
          "type": "bool"
        }
      ],
      "stateMutability": "view",
      "type": "function"
    },
    {
      "inputs": [],
      "name": "token",
      "outputs": [
        {
          "internalType": "contract ERC20Votes",
          "name": "",
          "type": "address"
        }
      ],
      "stateMutability": "view",
      "type": "function"
    },
    {
      "inputs": [
        {
          "internalType": "uint256",
          "name": "newQuorumNumerator",
          "type": "uint256"
        }
      ],
      "name": "updateQuorumNumerator",
      "outputs": [],
      "stateMutability": "nonpayable",
      "type": "function"
    },
    {
      "inputs": [],
      "name": "version",
      "outputs": [
        {
          "internalType": "string",
          "name": "",
          "type": "string"
        }
      ],
      "stateMutability": "view",
      "type": "function"
    },
    {
      "inputs": [],
      "name": "votingDelay",
      "outputs": [
        {
          "internalType": "uint256",
          "name": "",
          "type": "uint256"
        }
      ],
      "stateMutability": "view",
      "type": "function"
    },
    {
      "inputs": [],
      "name": "votingPeriod",
      "outputs": [
        {
          "internalType": "uint256",
          "name": "",
          "type": "uint256"
        }
      ],
      "stateMutability": "view",
      "type": "function"
    },
    {
      "stateMutability": "payable",
      "type": "receive"
    }
  ],
  "bytecode": "0x6101606040523480156200001257600080fd5b50604051620031f6380380620031f683398101604081905262000035916200042d565b6004836000605a8186806200005e6040805180820190915260018152603160f81b602082015290565b815160208084019190912082518383012060e08290526101008190524660a0818152604080517f8b73c3c69bb8fe3d512ecc4cf759cc79239f7b179b0ffacaa9a75d522b39400f81880181905281830187905260608201869052608082019490945230818401528151808203909301835260c00190528051940193909320919290916080523060601b60c052610120525050825162000107925060009150602084019062000375565b506200011590508362000182565b6200012082620001c3565b6200012b816200026a565b50505060601b6001600160601b031916610140526200014a81620002ab565b50600780546001600160a01b039283166001600160a01b0319918216179091556008805494909216931692909217909155506200059a565b60025460408051918252602082018390527fc565b045403dc03c2eea82b81a0465edad9e2e7fc4d97e11421c209da93d7a93910160405180910390a1600255565b60008111620002295760405162461bcd60e51b815260206004820152602760248201527f476f7665726e6f7253657474696e67733a20766f74696e6720706572696f6420604482015266746f6f206c6f7760c81b60648201526084015b60405180910390fd5b60035460408051918252602082018390527f7e3f7f0708a84de9203036abaa450dccc85ad5ff52f78c170f3edb55cf5e8828910160405180910390a1600355565b60045460408051918252602082018390527fccb45da8d5717e6c4544694297c4ba5cf151d455c9bb0ed4fc7a38411bc05461910160405180910390a1600455565b6064811115620003305760405162461bcd60e51b815260206004820152604360248201527f476f7665726e6f72566f74657351756f72756d4672616374696f6e3a2071756f60448201527f72756d4e756d657261746f72206f7665722071756f72756d44656e6f6d696e616064820152623a37b960e91b608482015260a40162000220565b600680549082905560408051828152602081018490527f0553476bf02ef2726e8ce5ced78d63e26e602e4a2257b1f559418e24b4633997910160405180910390a15050565b82805462000383906200052e565b90600052602060002090601f016020900481019282620003a75760008555620003f2565b82601f10620003c257805160ff1916838001178555620003f2565b82800160010185558215620003f2579182015b82811115620003f2578251825591602001919060010190620003d5565b506200040092915062000404565b5090565b5b8082111562000400576000815560010162000405565b8051620004288162000581565b919050565b60008060006060848603121562000442578283fd5b83516200044f8162000581565b602085810151919450906001600160401b03808211156200046e578485fd5b818701915087601f83011262000482578485fd5b8151818111156200049757620004976200056b565b604051601f8201601f19908116603f01168101908382118183101715620004c257620004c26200056b565b816040528281528a86848701011115620004da578788fd5b8793505b82841015620004fd5784840186015181850187015292850192620004de565b828411156200050e57878684830101525b80975050505050505062000525604085016200041b565b90509250925092565b6002810460018216806200054357607f821691505b602082108114156200056557634e487b7160e01b600052602260045260246000fd5b50919050565b634e487b7160e01b600052604160045260246000fd5b6001600160a01b03811681146200059757600080fd5b50565b60805160a05160c05160601c60e05161010051610120516101405160601c612bed62000609600039600081816106dd015281816119c80152611aa201526000611bfd01526000611c4c01526000611c2701526000611b7e01526000611ba801526000611bd20152612bed6000f3fe6080604052600436106101f25760003560e01c806370b0f6601161010d578063c59057e4116100a0578063ea0217cf1161006f578063ea0217cf1461064b578063eb9019d41461066b578063ece40cc11461068b578063f8ce560a146106ab578063fc0c546a146106cb57610215565b8063c59057e4146105a9578063dd4e2ba5146105c9578063deaaa7cc1461060f578063e6c0f7fe1461064357610215565b806397c3d334116100dc57806397c3d3341461054b578063a7713a701461055f578063b58131b014610574578063c01f9e371461058957610215565b806370b0f660146104cb5780637b3c71d3146104eb5780637d5e81e21461050b57806385d673821461052b57610215565b80632d63f69311610185578063438596321161015457806343859632146103e2578063544ffc9c1461042c57806354fd4d501461048157806356781388146104ab57610215565b80632d63f693146103605780633932abb1146103805780633bccf4fd146103955780633e4f49e6146103b557610215565b806306fdde03116101c157806306fdde03146102b25780631089f5ed146102d457806324de2ef6146102f45780632656227d1461034d57610215565b806301ffc9a71461021a57806302a251a31461024f57806303b8d5671461027257806306f3f9e61461029257610215565b3661021557306102006106ff565b6001600160a01b03161461021357600080fd5b005b600080fd5b34801561022657600080fd5b5061023a61023536600461247c565b610704565b60405190151581526020015b60405180910390f35b34801561025b57600080fd5b5061026461073d565b604051908152602001610246565b34801561027e57600080fd5b5061021361028d366004612521565b61074d565b34801561029e57600080fd5b506102136102ad366004612575565b6108b7565b3480156102be57600080fd5b506102c76108fb565b6040516102469190612837565b3480156102e057600080fd5b506102136102ef366004612575565b61098d565b34801561030057600080fd5b5061033561030f3660046124a4565b80516020818301810180516009825292820191909301209152546001600160a01b031681565b6040516001600160a01b039091168152602001610246565b61026461035b36600461232a565b610b46565b34801561036c57600080fd5b5061026461037b366004612575565b610c6f565b34801561038c57600080fd5b50610264610ca6565b3480156103a157600080fd5b506102646103b036600461266a565b610cb1565b3480156103c157600080fd5b506103d56103d0366004612575565b610d45565b604051610246919061280f565b3480156103ee57600080fd5b5061023a6103fd3660046125a5565b60008281526005602090815260408083206001600160a01b038516845260030190915290205460ff1692915050565b34801561043857600080fd5b50610466610447366004612575565b6000908152600560205260409020805460018201546002909201549092565b60408051938452602084019290925290820152606001610246565b34801561048d57600080fd5b506040805180820190915260018152603160f81b60208201526102c7565b3480156104b757600080fd5b506102646104c63660046125c7565b610eaf565b3480156104d757600080fd5b506102136104e6366004612575565b610ed8565b3480156104f757600080fd5b506102646105063660046125e9565b610f19565b34801561051757600080fd5b506102646105263660046123b5565b610f6b565b34801561053757600080fd5b506102136105463660046124d6565b611254565b34801561055757600080fd5b506064610264565b34801561056b57600080fd5b50600654610264565b34801561058057600080fd5b50610264611298565b34801561059557600080fd5b506102646105a4366004612575565b6112a3565b3480156105b557600080fd5b506102646105c436600461232a565b6112d2565b3480156105d557600080fd5b506040805180820190915260208082527f737570706f72743d627261766f2671756f72756d3d666f722c6162737461696e908201526102c7565b34801561061b57600080fd5b506102647f150214d74d59b7d1e90c73fc22ef3d991dd0a76b046543d4d80ab92d2a50328f81565b61021361130c565b34801561065757600080fd5b50610213610666366004612575565b611395565b34801561067757600080fd5b50610264610686366004612301565b6113d6565b34801561069757600080fd5b506102136106a6366004612575565b6113e9565b3480156106b757600080fd5b506102646106c6366004612575565b61142a565b3480156106d757600080fd5b506103357f000000000000000000000000000000000000000000000000000000000000000081565b305b90565b60006001600160e01b0319821663bf26d89760e01b148061073557506301ffc9a760e01b6001600160e01b03198316145b90505b919050565b600061074860035490565b905090565b60006001600160a01b031660098460405161076891906127a8565b908152604051908190036020019020546001600160a01b031614156107cc5760405162461bcd60e51b8152602060048201526015602482015274141c9bdc1bdcd85b081b9bdd081858d8d95c1d1959605a1b60448201526064015b60405180910390fd5b816001600160a01b03166009846040516107e691906127a8565b908152604051908190036020019020546001600160a01b03161461084c5760405162461bcd60e51b815260206004820152601e60248201527f4f6e6c79207468652070726f706f7365722063616e206469736275727365000060448201526064016107c3565b6008546040516340c10f1960e01b81526001600160a01b03848116600483015260248201849052909116906340c10f1990604401600060405180830381600087803b15801561089a57600080fd5b505af11580156108ae573d6000803e3d6000fd5b50505050505050565b6108bf6106ff565b6001600160a01b0316336001600160a01b0316146108ef5760405162461bcd60e51b81526004016107c39061286c565b6108f881611435565b50565b60606000805461090a90612b14565b80601f016020809104026020016040519081016040528092919081815260200182805461093690612b14565b80156109835780601f1061095857610100808354040283529160200191610983565b820191906000526020600020905b81548152906001019060200180831161096657829003601f168201915b5050505050905090565b600754604051636eb1769f60e11b815233600482015230602482015282916001600160a01b03169063dd62ed3e9060440160206040518083038186803b1580156109d657600080fd5b505afa1580156109ea573d6000803e3d6000fd5b505050506040513d601f19601f82011682018060405250810190610a0e919061258d565b1015610a545760405162461bcd60e51b815260206004820152601560248201527411105248185b1b1bddd85b98d9481b9bdd081cd95d605a1b60448201526064016107c3565b6007546040516323b872dd60e01b8152336004820152306024820152604481018390526001600160a01b03909116906323b872dd90606401602060405180830381600087803b158015610aa657600080fd5b505af1158015610aba573d6000803e3d6000fd5b505050506040513d601f19601f82011682018060405250810190610ade919061245c565b506008546040516340c10f1960e01b8152336004820152602481018390526001600160a01b03909116906340c10f1990604401600060405180830381600087803b158015610b2b57600080fd5b505af1158015610b3f573d6000803e3d6000fd5b5050505050565b600080610b55868686866112d2565b90506000610b6282610d45565b90506004816007811115610b8657634e487b7160e01b600052602160045260246000fd5b1480610bb157506005816007811115610baf57634e487b7160e01b600052602160045260246000fd5b145b610c075760405162461bcd60e51b815260206004820152602160248201527f476f7665726e6f723a2070726f706f73616c206e6f74207375636365737366756044820152601b60fa1b60648201526084016107c3565b600082815260016020818152604092839020600201805460ff191690921790915590518381527f712ae1383f79ac853f8d882153778e0260ef8f03b504e2866e0593e04d2b291f910160405180910390a1610c6582888888886114fd565b5095945050505050565b60008181526001602090815260408083208151928301909152546001600160401b0316908190525b6001600160401b031692915050565b600061074860025490565b604080517f150214d74d59b7d1e90c73fc22ef3d991dd0a76b046543d4d80ab92d2a50328f602082015290810186905260ff851660608201526000908190610d1d90610d15906080016040516020818303038152906040528051906020012061161d565b86868661166b565b9050610d3a87828860405180602001604052806000815250611689565b979650505050505050565b6000818152600160208181526040808420815160a08101835281546001600160401b0390811660808301908152825283518086018552958301541685529283019390935260029092015460ff80821615801594840194909452610100909104161515606082015290610dbb576007915050610738565b806060015115610dcf576002915050610738565b80515143906001600160401b031610610dec576000915050610738565b43610df982602001515190565b6001600160401b031610610e11576001915050610738565b610e1e81602001516117a2565b15610e6157610e2c836117d1565b8015610e4b575060008381526005602052604090208054600190910154115b610e56576003610e59565b60045b915050610738565b60405162461bcd60e51b815260206004820152601d60248201527f476f7665726e6f723a20756e6b6e6f776e2070726f706f73616c20696400000060448201526064016107c3565b50919050565b600080339050610ed084828560405180602001604052806000815250611689565b949350505050565b610ee06106ff565b6001600160a01b0316336001600160a01b031614610f105760405162461bcd60e51b81526004016107c39061286c565b6108f881611808565b600080339050610f6186828787878080601f01602080910402602001604051908101604052809392919081815260200183838082843760009201919091525061168992505050565b9695505050505050565b6000610f75611298565b610f8433610686600143612acd565b10156110045760405162461bcd60e51b815260206004820152604360248201527f476f7665726e6f72436f6d7061746962696c697479427261766f3a2070726f7060448201527f6f73657220766f7465732062656c6f772070726f706f73616c207468726573686064820152621bdb1960ea1b608482015260a4016107c3565b600061101986868686805190602001206112d2565b9050845186511461103c5760405162461bcd60e51b81526004016107c3906128a3565b835186511461105d5760405162461bcd60e51b81526004016107c3906128a3565b60008651116110ae5760405162461bcd60e51b815260206004820152601860248201527f476f7665726e6f723a20656d7074792070726f706f73616c000000000000000060448201526064016107c3565b600081815260016020908152604091829020825191820190925281546001600160401b0316908190521561112e5760405162461bcd60e51b815260206004820152602160248201527f476f7665726e6f723a2070726f706f73616c20616c72656164792065786973746044820152607360f81b60648201526084016107c3565b600061114061113b610ca6565b611849565b61114943611849565b6111539190612a63565b9050600061116261113b61073d565b61116c9083612a63565b835467ffffffffffffffff19166001600160401b038416178455905060018301805467ffffffffffffffff19166001600160401b0383161790557f7d84a6263ae0d98d3329bd7b46bb4e8d6f98cd35a7adb45c274c8b7fd5ebd5e084338b8b8d516001600160401b038111156111f257634e487b7160e01b600052604160045260246000fd5b60405190808252806020026020018201604052801561122557816020015b60608152602001906001900390816112105790505b508c88888e60405161123f999897969594939291906128e4565b60405180910390a15091979650505050505050565b8060098360405161126591906127a8565b90815260405190819003602001902080546001600160a01b03929092166001600160a01b03199092169190911790555050565b600061074860045490565b60008181526001602081815260408084208151928301909152909101546001600160401b031690819052610c97565b6000848484846040516020016112eb94939291906127c4565b60408051601f19818403018152919052805160209091012095945050505050565b670de0b6b3a76400003410156113645760405162461bcd60e51b815260206004820152601860248201527f4d696e696d756d2031206574686572207265717569726564000000000000000060448201526064016107c3565b6113936040518060400160405280600d81526020016c02932b1b2b4bb32b2101e9e9f1609d1b815250346118b5565b565b61139d6106ff565b6001600160a01b0316336001600160a01b0316146113cd5760405162461bcd60e51b81526004016107c39061286c565b6108f8816118fe565b60006113e2838361199f565b9392505050565b6113f16106ff565b6001600160a01b0316336001600160a01b0316146114215760405162461bcd60e51b81526004016107c39061286c565b6108f881611a44565b600061073582611a85565b60648111156114b85760405162461bcd60e51b815260206004820152604360248201527f476f7665726e6f72566f74657351756f72756d4672616374696f6e3a2071756f60448201527f72756d4e756d657261746f72206f7665722071756f72756d44656e6f6d696e616064820152623a37b960e91b608482015260a4016107c3565b600680549082905560408051828152602081018490527f0553476bf02ef2726e8ce5ced78d63e26e602e4a2257b1f559418e24b4633997910160405180910390a15050565b6000604051806060016040528060278152602001612b9160279139905060005b85518110156108ae5760008087838151811061154957634e487b7160e01b600052603260045260246000fd5b60200260200101516001600160a01b031687848151811061157a57634e487b7160e01b600052603260045260246000fd5b60200260200101518785815181106115a257634e487b7160e01b600052603260045260246000fd5b60200260200101516040516115b791906127a8565b60006040518083038185875af1925050503d80600081146115f4576040519150601f19603f3d011682016040523d82523d6000602084013e6115f9565b606091505b5091509150611609828286611b38565b5050508061161690612b49565b905061151d565b600061073561162a611b71565b8360405161190160f01b6020820152602281018390526042810182905260009060620160405160208183030381529060405280519060200120905092915050565b600080600061167c87878787611c9c565b91509150610c6581611d89565b60008481526001602081905260408220906116a387610d45565b60078111156116c257634e487b7160e01b600052602160045260246000fd5b1461171b5760405162461bcd60e51b815260206004820152602360248201527f476f7665726e6f723a20766f7465206e6f742063757272656e746c792061637460448201526269766560e81b60648201526084016107c3565b604080516020810190915281546001600160401b0316908190526000906117439087906113d6565b905061175187878784611f8c565b856001600160a01b03167fb8e138887d0aa13bab447e82de9d5c1777041ecd21ca36ba824ff1e6c07ddda48887848860405161179094939291906129d0565b60405180910390a29695505050505050565b60006117b782516001600160401b0316151590565b801561073557505051436001600160401b03909116111590565b6000818152600560205260408120600281015460018201546117f39190612a4b565b6117ff6106c685610c6f565b11159392505050565b60025460408051918252602082018390527fc565b045403dc03c2eea82b81a0465edad9e2e7fc4d97e11421c209da93d7a93910160405180910390a1600255565b60006001600160401b038211156118b15760405162461bcd60e51b815260206004820152602660248201527f53616665436173743a2076616c756520646f65736e27742066697420696e203660448201526534206269747360d01b60648201526084016107c3565b5090565b6118fa82826040516024016118cb92919061284a565b60408051601f198184030181529190526020810180516001600160e01b03166309710a9d60e41b17905261210b565b5050565b6000811161195e5760405162461bcd60e51b815260206004820152602760248201527f476f7665726e6f7253657474696e67733a20766f74696e6720706572696f6420604482015266746f6f206c6f7760c81b60648201526084016107c3565b60035460408051918252602082018390527f7e3f7f0708a84de9203036abaa450dccc85ad5ff52f78c170f3edb55cf5e8828910160405180910390a1600355565b604051630748d63560e31b81526001600160a01b038381166004830152602482018390526000917f000000000000000000000000000000000000000000000000000000000000000090911690633a46b1a89060440160206040518083038186803b158015611a0c57600080fd5b505afa158015611a20573d6000803e3d6000fd5b505050506040513d601f19601f820116820180604052508101906113e2919061258d565b60045460408051918252602082018390527fccb45da8d5717e6c4544694297c4ba5cf151d455c9bb0ed4fc7a38411bc05461910160405180910390a1600455565b60006064600654604051632394e7a360e21b8152600481018590527f00000000000000000000000000000000000000000000000000000000000000006001600160a01b031690638e539e8c9060240160206040518083038186803b158015611aec57600080fd5b505afa158015611b00573d6000803e3d6000fd5b505050506040513d601f19601f82011682018060405250810190611b24919061258d565b611b2e9190612aae565b6107359190612a8e565b60608315611b475750816113e2565b825115611b575782518084602001fd5b8160405162461bcd60e51b81526004016107c39190612837565b6000306001600160a01b037f000000000000000000000000000000000000000000000000000000000000000016148015611bca57507f000000000000000000000000000000000000000000000000000000000000000046145b15611bf657507f0000000000000000000000000000000000000000000000000000000000000000610701565b50604080517f00000000000000000000000000000000000000000000000000000000000000006020808301919091527f0000000000000000000000000000000000000000000000000000000000000000828401527f000000000000000000000000000000000000000000000000000000000000000060608301524660808301523060a0808401919091528351808403909101815260c09092019092528051910120610701565b6000807f7fffffffffffffffffffffffffffffff5d576e7357a4501ddfe92f46681b20a0831115611cd35750600090506003611d80565b8460ff16601b14158015611ceb57508460ff16601c14155b15611cfc5750600090506004611d80565b6040805160008082526020820180845289905260ff881692820192909252606081018690526080810185905260019060a0016020604051602081039080840390855afa158015611d50573d6000803e3d6000fd5b5050604051601f1901519150506001600160a01b038116611d7957600060019250925050611d80565b9150600090505b94509492505050565b6000816004811115611dab57634e487b7160e01b600052602160045260246000fd5b1415611db6576108f8565b6001816004811115611dd857634e487b7160e01b600052602160045260246000fd5b1415611e265760405162461bcd60e51b815260206004820152601860248201527f45434453413a20696e76616c6964207369676e6174757265000000000000000060448201526064016107c3565b6002816004811115611e4857634e487b7160e01b600052602160045260246000fd5b1415611e965760405162461bcd60e51b815260206004820152601f60248201527f45434453413a20696e76616c6964207369676e6174757265206c656e6774680060448201526064016107c3565b6003816004811115611eb857634e487b7160e01b600052602160045260246000fd5b1415611f115760405162461bcd60e51b815260206004820152602260248201527f45434453413a20696e76616c6964207369676e6174757265202773272076616c604482015261756560f01b60648201526084016107c3565b6004816004811115611f3357634e487b7160e01b600052602160045260246000fd5b14156108f85760405162461bcd60e51b815260206004820152602260248201527f45434453413a20696e76616c6964207369676e6174757265202776272076616c604482015261756560f01b60648201526084016107c3565b60008481526005602090815260408083206001600160a01b0387168452600381019092529091205460ff16156120145760405162461bcd60e51b815260206004820152602760248201527f476f7665726e6f72566f74696e6753696d706c653a20766f746520616c726561604482015266191e4818d85cdd60ca1b60648201526084016107c3565b6001600160a01b03841660009081526003820160205260408120805460ff1916600117905560ff168360ff161415612065578181600001600082825461205a9190612a4b565b90915550610b3f9050565b60ff831660011415612085578181600101600082825461205a9190612a4b565b60ff8316600214156120a5578181600201600082825461205a9190612a4b565b60405162461bcd60e51b815260206004820152603560248201527f476f7665726e6f72566f74696e6753696d706c653a20696e76616c69642076616044820152746c756520666f7220656e756d20566f74655479706560581b60648201526084016107c3565b80516a636f6e736f6c652e6c6f67602083016000808483855afa5050505050565b60006001600160401b0383111561214557612145612b7a565b612158601f8401601f19166020016129f8565b905082815283838301111561216c57600080fd5b828260208301376000602084830101529392505050565b80356001600160a01b038116811461073857600080fd5b600082601f8301126121aa578081fd5b813560206121bf6121ba83612a28565b6129f8565b82815281810190858301838502870184018810156121db578586fd5b855b85811015612200576121ee82612183565b845292840192908401906001016121dd565b5090979650505050505050565b600082601f83011261221d578081fd5b8135602061222d6121ba83612a28565b82815281810190858301855b85811015612200578135880189603f820112612253578788fd5b6122648a878301356040840161212c565b8552509284019290840190600101612239565b600082601f830112612287578081fd5b813560206122976121ba83612a28565b82815281810190858301838502870184018810156122b3578586fd5b855b85811015612200578135845292840192908401906001016122b5565b600082601f8301126122e1578081fd5b6113e28383356020850161212c565b803560ff8116811461073857600080fd5b60008060408385031215612313578182fd5b61231c83612183565b946020939093013593505050565b6000806000806080858703121561233f578182fd5b84356001600160401b0380821115612355578384fd5b6123618883890161219a565b95506020870135915080821115612376578384fd5b61238288838901612277565b94506040870135915080821115612397578384fd5b506123a48782880161220d565b949793965093946060013593505050565b600080600080608085870312156123ca578384fd5b84356001600160401b03808211156123e0578586fd5b6123ec8883890161219a565b95506020870135915080821115612401578485fd5b61240d88838901612277565b94506040870135915080821115612422578384fd5b61242e8883890161220d565b93506060870135915080821115612443578283fd5b50612450878288016122d1565b91505092959194509250565b60006020828403121561246d578081fd5b815180151581146113e2578182fd5b60006020828403121561248d578081fd5b81356001600160e01b0319811681146113e2578182fd5b6000602082840312156124b5578081fd5b81356001600160401b038111156124ca578182fd5b610ed0848285016122d1565b600080604083850312156124e8578182fd5b82356001600160401b038111156124fd578283fd5b612509858286016122d1565b92505061251860208401612183565b90509250929050565b600080600060608486031215612535578081fd5b83356001600160401b0381111561254a578182fd5b612556868287016122d1565b93505061256560208501612183565b9150604084013590509250925092565b600060208284031215612586578081fd5b5035919050565b60006020828403121561259e578081fd5b5051919050565b600080604083850312156125b7578182fd5b8235915061251860208401612183565b600080604083850312156125d9578182fd5b82359150612518602084016122f0565b600080600080606085870312156125fe578182fd5b8435935061260e602086016122f0565b925060408501356001600160401b0380821115612629578384fd5b818701915087601f83011261263c578384fd5b81358181111561264a578485fd5b88602082850101111561265b578485fd5b95989497505060200194505050565b600080600080600060a08688031215612681578283fd5b85359450612691602087016122f0565b935061269f604087016122f0565b94979396509394606081013594506080013592915050565b6000815180845260208085019450808401835b838110156126ef5781516001600160a01b0316875295820195908201906001016126ca565b509495945050505050565b6000815180845260208085018081965082840281019150828601855b8581101561274057828403895261272e84835161277c565b98850198935090840190600101612716565b5091979650505050505050565b6000815180845260208085019450808401835b838110156126ef57815187529582019590820190600101612760565b60008151808452612794816020860160208601612ae4565b601f01601f19169290920160200192915050565b600082516127ba818460208701612ae4565b9190910192915050565b6000608082526127d760808301876126b7565b82810360208401526127e9818761274d565b905082810360408401526127fd81866126fa565b91505082606083015295945050505050565b602081016008831061283157634e487b7160e01b600052602160045260246000fd5b91905290565b6000602082526113e2602083018461277c565b60006040825261285d604083018561277c565b90508260208301529392505050565b60208082526018908201527f476f7665726e6f723a206f6e6c79476f7665726e616e63650000000000000000604082015260600190565b60208082526021908201527f476f7665726e6f723a20696e76616c69642070726f706f73616c206c656e67746040820152600d60fb1b606082015260800190565b60006101208b8352602060018060a01b038c168185015281604085015261290d8285018c6126b7565b91508382036060850152612921828b61274d565b848103608086015289518082529092508183019082810284018301838c01865b8381101561296f57601f1987840301855261295d83835161277c565b94860194925090850190600101612941565b505086810360a0880152612983818c6126fa565b94505050505061299e60c08401876001600160401b03169052565b6001600160401b03851660e08401528281036101008401526129c0818561277c565b9c9b505050505050505050505050565b600085825260ff8516602083015283604083015260806060830152610f61608083018461277c565b604051601f8201601f191681016001600160401b0381118282101715612a2057612a20612b7a565b604052919050565b60006001600160401b03821115612a4157612a41612b7a565b5060209081020190565b60008219821115612a5e57612a5e612b64565b500190565b60006001600160401b03808316818516808303821115612a8557612a85612b64565b01949350505050565b600082612aa957634e487b7160e01b81526012600452602481fd5b500490565b6000816000190483118215151615612ac857612ac8612b64565b500290565b600082821015612adf57612adf612b64565b500390565b60005b83811015612aff578181015183820152602001612ae7565b83811115612b0e576000848401525b50505050565b600281046001821680612b2857607f821691505b60208210811415610ea957634e487b7160e01b600052602260045260246000fd5b6000600019821415612b5d57612b5d612b64565b5060010190565b634e487b7160e01b600052601160045260246000fd5b634e487b7160e01b600052604160045260246000fdfe476f7665726e6f723a2063616c6c20726576657274656420776974686f7574206d657373616765a2646970667358221220752ca8c96dc60727d1d94d373b9a7572990daa3b0a20fd74766eec8dc11b9ef264736f6c63430008020033",
  "linkReferences": {},
  "deployedLinkReferences": {}
}