{
  "_format": "hh-sol-artifact-1",
  "contractName": "LearnToken",
  "sourceName": "contracts/LearnToken.sol",
  "abi": [
    {
      "inputs": [],
      "stateMutability": "nonpayable",
      "type": "constructor"
    },
    {
      "anonymous": false,
      "inputs": [
        {
          "indexed": true,
          "internalType": "address",
          "name": "owner",
          "type": "address"
        },
        {
          "indexed": true,
          "internalType": "address",
          "name": "spender",
          "type": "address"
        },
        {
          "indexed": false,
          "internalType": "uint256",
          "name": "value",
          "type": "uint256"
        }
      ],
      "name": "Approval",
      "type": "event"
    },
    {
      "anonymous": false,
      "inputs": [
        {
          "indexed": true,
          "internalType": "address",
          "name": "delegator",
          "type": "address"
        },
        {
          "indexed": true,
          "internalType": "address",
          "name": "fromDelegate",
          "type": "address"
        },
        {
          "indexed": true,
          "internalType": "address",
          "name": "toDelegate",
          "type": "address"
        }
      ],
      "name": "DelegateChanged",
      "type": "event"
    },
    {
      "anonymous": false,
      "inputs": [
        {
          "indexed": true,
          "internalType": "address",
          "name": "delegate",
          "type": "address"
        },
        {
          "indexed": false,
          "internalType": "uint256",
          "name": "previousBalance",
          "type": "uint256"
        },
        {
          "indexed": false,
          "internalType": "uint256",
          "name": "newBalance",
          "type": "uint256"
        }
      ],
      "name": "DelegateVotesChanged",
      "type": "event"
    },
    {
      "anonymous": false,
      "inputs": [
        {
          "indexed": false,
          "internalType": "address",
          "name": "account",
          "type": "address"
        }
      ],
      "name": "Paused",
      "type": "event"
    },
    {
      "anonymous": false,
      "inputs": [
        {
          "indexed": true,
          "internalType": "bytes32",
          "name": "role",
          "type": "bytes32"
        },
        {
          "indexed": true,
          "internalType": "bytes32",
          "name": "previousAdminRole",
          "type": "bytes32"
        },
        {
          "indexed": true,
          "internalType": "bytes32",
          "name": "newAdminRole",
          "type": "bytes32"
        }
      ],
      "name": "RoleAdminChanged",
      "type": "event"
    },
    {
      "anonymous": false,
      "inputs": [
        {
          "indexed": true,
          "internalType": "bytes32",
          "name": "role",
          "type": "bytes32"
        },
        {
          "indexed": true,
          "internalType": "address",
          "name": "account",
          "type": "address"
        },
        {
          "indexed": true,
          "internalType": "address",
          "name": "sender",
          "type": "address"
        }
      ],
      "name": "RoleGranted",
      "type": "event"
    },
    {
      "anonymous": false,
      "inputs": [
        {
          "indexed": true,
          "internalType": "bytes32",
          "name": "role",
          "type": "bytes32"
        },
        {
          "indexed": true,
          "internalType": "address",
          "name": "account",
          "type": "address"
        },
        {
          "indexed": true,
          "internalType": "address",
          "name": "sender",
          "type": "address"
        }
      ],
      "name": "RoleRevoked",
      "type": "event"
    },
    {
      "anonymous": false,
      "inputs": [
        {
          "indexed": true,
          "internalType": "address",
          "name": "from",
          "type": "address"
        },
        {
          "indexed": true,
          "internalType": "address",
          "name": "to",
          "type": "address"
        },
        {
          "indexed": false,
          "internalType": "uint256",
          "name": "value",
          "type": "uint256"
        }
      ],
      "name": "Transfer",
      "type": "event"
    },
    {
      "anonymous": false,
      "inputs": [
        {
          "indexed": false,
          "internalType": "address",
          "name": "account",
          "type": "address"
        }
      ],
      "name": "Unpaused",
      "type": "event"
    },
    {
      "inputs": [],
      "name": "DEFAULT_ADMIN_ROLE",
      "outputs": [
        {
          "internalType": "bytes32",
          "name": "",
          "type": "bytes32"
        }
      ],
      "stateMutability": "view",
      "type": "function"
    },
    {
      "inputs": [],
      "name": "DOMAIN_SEPARATOR",
      "outputs": [
        {
          "internalType": "bytes32",
          "name": "",
          "type": "bytes32"
        }
      ],
      "stateMutability": "view",
      "type": "function"
    },
    {
      "inputs": [],
      "name": "MINTER_ROLE",
      "outputs": [
        {
          "internalType": "bytes32",
          "name": "",
          "type": "bytes32"
        }
      ],
      "stateMutability": "view",
      "type": "function"
    },
    {
      "inputs": [],
      "name": "PAUSER_ROLE",
      "outputs": [
        {
          "internalType": "bytes32",
          "name": "",
          "type": "bytes32"
        }
      ],
      "stateMutability": "view",
      "type": "function"
    },
    {
      "inputs": [
        {
          "internalType": "address",
          "name": "owner",
          "type": "address"
        },
        {
          "internalType": "address",
          "name": "spender",
          "type": "address"
        }
      ],
      "name": "allowance",
      "outputs": [
        {
          "internalType": "uint256",
          "name": "",
          "type": "uint256"
        }
      ],
      "stateMutability": "view",
      "type": "function"
    },
    {
      "inputs": [
        {
          "internalType": "address",
          "name": "spender",
          "type": "address"
        },
        {
          "internalType": "uint256",
          "name": "amount",
          "type": "uint256"
        }
      ],
      "name": "approve",
      "outputs": [
        {
          "internalType": "bool",
          "name": "",
          "type": "bool"
        }
      ],
      "stateMutability": "nonpayable",
      "type": "function"
    },
    {
      "inputs": [
        {
          "internalType": "address",
          "name": "account",
          "type": "address"
        }
      ],
      "name": "balanceOf",
      "outputs": [
        {
          "internalType": "uint256",
          "name": "",
          "type": "uint256"
        }
      ],
      "stateMutability": "view",
      "type": "function"
    },
    {
      "inputs": [
        {
          "internalType": "uint256",
          "name": "amount",
          "type": "uint256"
        }
      ],
      "name": "burn",
      "outputs": [],
      "stateMutability": "nonpayable",
      "type": "function"
    },
    {
      "inputs": [
        {
          "internalType": "address",
          "name": "account",
          "type": "address"
        },
        {
          "internalType": "uint256",
          "name": "amount",
          "type": "uint256"
        }
      ],
      "name": "burnFrom",
      "outputs": [],
      "stateMutability": "nonpayable",
      "type": "function"
    },
    {
      "inputs": [
        {
          "internalType": "address",
          "name": "account",
          "type": "address"
        }
      ],
      "name": "checkMinterRole",
      "outputs": [
        {
          "internalType": "bool",
          "name": "",
          "type": "bool"
        }
      ],
      "stateMutability": "view",
      "type": "function"
    },
    {
      "inputs": [
        {
          "internalType": "address",
          "name": "account",
          "type": "address"
        }
      ],
      "name": "checkPauserRole",
      "outputs": [
        {
          "internalType": "bool",
          "name": "",
          "type": "bool"
        }
      ],
      "stateMutability": "view",
      "type": "function"
    },
    {
      "inputs": [
        {
          "internalType": "address",
          "name": "account",
          "type": "address"
        },
        {
          "internalType": "uint32",
          "name": "pos",
          "type": "uint32"
        }
      ],
      "name": "checkpoints",
      "outputs": [
        {
          "components": [
            {
              "internalType": "uint32",
              "name": "fromBlock",
              "type": "uint32"
            },
            {
              "internalType": "uint224",
              "name": "votes",
              "type": "uint224"
            }
          ],
          "internalType": "struct ERC20Votes.Checkpoint",
          "name": "",
          "type": "tuple"
        }
      ],
      "stateMutability": "view",
      "type": "function"
    },
    {
      "inputs": [],
      "name": "decimals",
      "outputs": [
        {
          "internalType": "uint8",
          "name": "",
          "type": "uint8"
        }
      ],
      "stateMutability": "view",
      "type": "function"
    },
    {
      "inputs": [
        {
          "internalType": "address",
          "name": "spender",
          "type": "address"
        },
        {
          "internalType": "uint256",
          "name": "subtractedValue",
          "type": "uint256"
        }
      ],
      "name": "decreaseAllowance",
      "outputs": [
        {
          "internalType": "bool",
          "name": "",
          "type": "bool"
        }
      ],
      "stateMutability": "nonpayable",
      "type": "function"
    },
    {
      "inputs": [
        {
          "internalType": "address",
          "name": "delegatee",
          "type": "address"
        }
      ],
      "name": "delegate",
      "outputs": [],
      "stateMutability": "nonpayable",
      "type": "function"
    },
    {
      "inputs": [
        {
          "internalType": "address",
          "name": "delegatee",
          "type": "address"
        },
        {
          "internalType": "uint256",
          "name": "nonce",
          "type": "uint256"
        },
        {
          "internalType": "uint256",
          "name": "expiry",
          "type": "uint256"
        },
        {
          "internalType": "uint8",
          "name": "v",
          "type": "uint8"
        },
        {
          "internalType": "bytes32",
          "name": "r",
          "type": "bytes32"
        },
        {
          "internalType": "bytes32",
          "name": "s",
          "type": "bytes32"
        }
      ],
      "name": "delegateBySig",
      "outputs": [],
      "stateMutability": "nonpayable",
      "type": "function"
    },
    {
      "inputs": [
        {
          "internalType": "address",
          "name": "account",
          "type": "address"
        }
      ],
      "name": "delegates",
      "outputs": [
        {
          "internalType": "address",
          "name": "",
          "type": "address"
        }
      ],
      "stateMutability": "view",
      "type": "function"
    },
    {
      "inputs": [
        {
          "internalType": "uint256",
          "name": "blockNumber",
          "type": "uint256"
        }
      ],
      "name": "getPastTotalSupply",
      "outputs": [
        {
          "internalType": "uint256",
          "name": "",
          "type": "uint256"
        }
      ],
      "stateMutability": "view",
      "type": "function"
    },
    {
      "inputs": [
        {
          "internalType": "address",
          "name": "account",
          "type": "address"
        },
        {
          "internalType": "uint256",
          "name": "blockNumber",
          "type": "uint256"
        }
      ],
      "name": "getPastVotes",
      "outputs": [
        {
          "internalType": "uint256",
          "name": "",
          "type": "uint256"
        }
      ],
      "stateMutability": "view",
      "type": "function"
    },
    {
      "inputs": [
        {
          "internalType": "bytes32",
          "name": "role",
          "type": "bytes32"
        }
      ],
      "name": "getRoleAdmin",
      "outputs": [
        {
          "internalType": "bytes32",
          "name": "",
          "type": "bytes32"
        }
      ],
      "stateMutability": "view",
      "type": "function"
    },
    {
      "inputs": [
        {
          "internalType": "address",
          "name": "account",
          "type": "address"
        }
      ],
      "name": "getVotes",
      "outputs": [
        {
          "internalType": "uint256",
          "name": "",
          "type": "uint256"
        }
      ],
      "stateMutability": "view",
      "type": "function"
    },
    {
      "inputs": [
        {
          "internalType": "bytes32",
          "name": "role",
          "type": "bytes32"
        },
        {
          "internalType": "address",
          "name": "account",
          "type": "address"
        }
      ],
      "name": "grantRole",
      "outputs": [],
      "stateMutability": "nonpayable",
      "type": "function"
    },
    {
      "inputs": [
        {
          "internalType": "bytes32",
          "name": "role",
          "type": "bytes32"
        },
        {
          "internalType": "address",
          "name": "account",
          "type": "address"
        }
      ],
      "name": "hasRole",
      "outputs": [
        {
          "internalType": "bool",
          "name": "",
          "type": "bool"
        }
      ],
      "stateMutability": "view",
      "type": "function"
    },
    {
      "inputs": [
        {
          "internalType": "address",
          "name": "spender",
          "type": "address"
        },
        {
          "internalType": "uint256",
          "name": "addedValue",
          "type": "uint256"
        }
      ],
      "name": "increaseAllowance",
      "outputs": [
        {
          "internalType": "bool",
          "name": "",
          "type": "bool"
        }
      ],
      "stateMutability": "nonpayable",
      "type": "function"
    },
    {
      "inputs": [
        {
          "internalType": "address",
          "name": "to",
          "type": "address"
        },
        {
          "internalType": "uint256",
          "name": "amount",
          "type": "uint256"
        }
      ],
      "name": "mint",
      "outputs": [],
      "stateMutability": "nonpayable",
      "type": "function"
    },
    {
      "inputs": [],
      "name": "name",
      "outputs": [
        {
          "internalType": "string",
          "name": "",
          "type": "string"
        }
      ],
      "stateMutability": "view",
      "type": "function"
    },
    {
      "inputs": [
        {
          "internalType": "address",
          "name": "owner",
          "type": "address"
        }
      ],
      "name": "nonces",
      "outputs": [
        {
          "internalType": "uint256",
          "name": "",
          "type": "uint256"
        }
      ],
      "stateMutability": "view",
      "type": "function"
    },
    {
      "inputs": [
        {
          "internalType": "address",
          "name": "account",
          "type": "address"
        }
      ],
      "name": "numCheckpoints",
      "outputs": [
        {
          "internalType": "uint32",
          "name": "",
          "type": "uint32"
        }
      ],
      "stateMutability": "view",
      "type": "function"
    },
    {
      "inputs": [],
      "name": "pause",
      "outputs": [],
      "stateMutability": "nonpayable",
      "type": "function"
    },
    {
      "inputs": [],
      "name": "paused",
      "outputs": [
        {
          "internalType": "bool",
          "name": "",
          "type": "bool"
        }
      ],
      "stateMutability": "view",
      "type": "function"
    },
    {
      "inputs": [
        {
          "internalType": "address",
          "name": "owner",
          "type": "address"
        },
        {
          "internalType": "address",
          "name": "spender",
          "type": "address"
        },
        {
          "internalType": "uint256",
          "name": "value",
          "type": "uint256"
        },
        {
          "internalType": "uint256",
          "name": "deadline",
          "type": "uint256"
        },
        {
          "internalType": "uint8",
          "name": "v",
          "type": "uint8"
        },
        {
          "internalType": "bytes32",
          "name": "r",
          "type": "bytes32"
        },
        {
          "internalType": "bytes32",
          "name": "s",
          "type": "bytes32"
        }
      ],
      "name": "permit",
      "outputs": [],
      "stateMutability": "nonpayable",
      "type": "function"
    },
    {
      "inputs": [
        {
          "internalType": "bytes32",
          "name": "role",
          "type": "bytes32"
        },
        {
          "internalType": "address",
          "name": "account",
          "type": "address"
        }
      ],
      "name": "renounceRole",
      "outputs": [],
      "stateMutability": "nonpayable",
      "type": "function"
    },
    {
      "inputs": [
        {
          "internalType": "bytes32",
          "name": "role",
          "type": "bytes32"
        },
        {
          "internalType": "address",
          "name": "account",
          "type": "address"
        }
      ],
      "name": "revokeRole",
      "outputs": [],
      "stateMutability": "nonpayable",
      "type": "function"
    },
    {
      "inputs": [
        {
          "internalType": "address",
          "name": "account",
          "type": "address"
        }
      ],
      "name": "setMinterRole",
      "outputs": [],
      "stateMutability": "nonpayable",
      "type": "function"
    },
    {
      "inputs": [
        {
          "internalType": "address",
          "name": "account",
          "type": "address"
        }
      ],
      "name": "setPauserRole",
      "outputs": [],
      "stateMutability": "nonpayable",
      "type": "function"
    },
    {
      "inputs": [
        {
          "internalType": "bytes4",
          "name": "interfaceId",
          "type": "bytes4"
        }
      ],
      "name": "supportsInterface",
      "outputs": [
        {
          "internalType": "bool",
          "name": "",
          "type": "bool"
        }
      ],
      "stateMutability": "view",
      "type": "function"
    },
    {
      "inputs": [],
      "name": "symbol",
      "outputs": [
        {
          "internalType": "string",
          "name": "",
          "type": "string"
        }
      ],
      "stateMutability": "view",
      "type": "function"
    },
    {
      "inputs": [],
      "name": "totalSupply",
      "outputs": [
        {
          "internalType": "uint256",
          "name": "",
          "type": "uint256"
        }
      ],
      "stateMutability": "view",
      "type": "function"
    },
    {
      "inputs": [
        {
          "internalType": "address",
          "name": "recipient",
          "type": "address"
        },
        {
          "internalType": "uint256",
          "name": "amount",
          "type": "uint256"
        }
      ],
      "name": "transfer",
      "outputs": [
        {
          "internalType": "bool",
          "name": "",
          "type": "bool"
        }
      ],
      "stateMutability": "nonpayable",
      "type": "function"
    },
    {
      "inputs": [
        {
          "internalType": "address",
          "name": "sender",
          "type": "address"
        },
        {
          "internalType": "address",
          "name": "recipient",
          "type": "address"
        },
        {
          "internalType": "uint256",
          "name": "amount",
          "type": "uint256"
        }
      ],
      "name": "transferFrom",
      "outputs": [
        {
          "internalType": "bool",
          "name": "",
          "type": "bool"
        }
      ],
      "stateMutability": "nonpayable",
      "type": "function"
    },
    {
      "inputs": [],
      "name": "unpause",
      "outputs": [],
      "stateMutability": "nonpayable",
      "type": "function"
    }
  ],
  "bytecode": "0x6101606040527f6e71edae12b1b97f4d1f60370fef10105fa2faae0126114a169c64845d6126c9610140523480156200003757600080fd5b506040518060400160405280600b81526020016a2632b0b937102a37b5b2b760a91b81525080604051806040016040528060018152602001603160f81b8152506040518060400160405280600b81526020016a2632b0b937102a37b5b2b760a91b815250604051806040016040528060048152602001634c44414f60e01b8152508160039080519060200190620000d09291906200096d565b508051620000e69060049060208401906200096d565b50506005805460ff1916905550815160208084019190912082519183019190912060e08290526101008190524660a0527f8b73c3c69bb8fe3d512ecc4cf759cc79239f7b179b0ffacaa9a75d522b39400f62000144818484620001eb565b6080523060601b60c0526101205250620001679350600092503391505062000235565b620001937f65d7a28e3265b37a6474929f336521b332c1681b933f6cb9f3376673440d862a3362000235565b620001b933620001a66012600a62000a71565b620001b390606462000b5c565b620002da565b620001e57f9f2df0fed2c77648de5860a4cc508cd0818c85b8b8a1ab4ceeef8d981c8956a63362000235565b62000beb565b6040805160208101859052908101839052606081018290524660808201523060a082015260009060c0016040516020818303038152906040528051906020012090505b9392505050565b60008281526006602090815260408083206001600160a01b038516845290915290205460ff16620002d65760008281526006602090815260408083206001600160a01b03851684529091529020805460ff19166001179055620002953390565b6001600160a01b0316816001600160a01b0316837f2f8788117e7eff1d82e926ec794901d17c78024a50270940304540a733656f0d60405160405180910390a45b5050565b620002d68282620002f160201b620010251760201c565b620003088282620003a860201b620010b51760201c565b6001600160e01b036200031c620004a58216565b1115620003895760405162461bcd60e51b815260206004820152603060248201527f4552433230566f7465733a20746f74616c20737570706c79207269736b73206f60448201526f766572666c6f77696e6720766f74657360801b60648201526084015b60405180910390fd5b620003a2600a620011a8620004ab60201b1783620004b9565b50505050565b6001600160a01b038216620004005760405162461bcd60e51b815260206004820152601f60248201527f45524332303a206d696e7420746f20746865207a65726f206164647265737300604482015260640162000380565b6200040e600083836200069d565b806002600082825462000422919062000a09565b90915550506001600160a01b038216600090815260208190526040812080548392906200045190849062000a09565b90915550506040518181526001600160a01b038316906000907fddf252ad1be2c89b69c2b068fc378daa952ba7f163c4a11628f55a4df523b3ef9060200160405180910390a3620002d66000838362000702565b60025490565b60006200022e828462000a09565b825460009081908015620005175785620004d560018362000b7e565b81548110620004f457634e487b7160e01b600052603260045260246000fd5b60009182526020909120015464010000000090046001600160e01b03166200051a565b60005b6001600160e01b031692506200053183858760201c565b915060008111801562000581575043866200054e60018462000b7e565b815481106200056d57634e487b7160e01b600052603260045260246000fd5b60009182526020909120015463ffffffff16145b1562000601576200059d826200071a60201b620011b41760201c565b86620005ab60018462000b7e565b81548110620005ca57634e487b7160e01b600052603260045260246000fd5b9060005260206000200160000160046101000a8154816001600160e01b0302191690836001600160e01b0316021790555062000694565b85604051806040016040528062000623436200078960201b620012211760201c565b63ffffffff16815260200162000644856200071a60201b620011b41760201c565b6001600160e01b039081169091528254600181018455600093845260209384902083519101805493909401519091166401000000000263ffffffff91821663ffffffff1990931692909217161790555b50935093915050565b60055460ff1615620006e55760405162461bcd60e51b815260206004820152601060248201526f14185d5cd8589b194e881c185d5cd95960821b604482015260640162000380565b620006fd838383620006fd60201b620007d81760201c565b505050565b620006fd838383620007f060201b620012861760201c565b60006001600160e01b03821115620007855760405162461bcd60e51b815260206004820152602760248201527f53616665436173743a2076616c756520646f65736e27742066697420696e20326044820152663234206269747360c81b606482015260840162000380565b5090565b600063ffffffff821115620007855760405162461bcd60e51b815260206004820152602660248201527f53616665436173743a2076616c756520646f65736e27742066697420696e203360448201526532206269747360d01b606482015260840162000380565b62000808838383620006fd60201b620007d81760201c565b6001600160a01b03838116600090815260086020526040808220548584168352912054620006fd92918216911683818314801590620008475750600081115b15620006fd576001600160a01b03831615620008d4576001600160a01b0383166000908152600960209081526040822082916200089191906200095f901b620012b81785620004b9565b91509150846001600160a01b0316600080516020620036568339815191528383604051620008c9929190918252602082015260400190565b60405180910390a250505b6001600160a01b03821615620006fd576001600160a01b038216600090815260096020908152604082208291620009189190620004ab901b620011a81785620004b9565b91509150836001600160a01b031660008051602062003656833981519152838360405162000950929190918252602082015260400190565b60405180910390a25050505050565b60006200022e828462000b7e565b8280546200097b9062000b98565b90600052602060002090601f0160209004810192826200099f5760008555620009ea565b82601f10620009ba57805160ff1916838001178555620009ea565b82800160010185558215620009ea579182015b82811115620009ea578251825591602001919060010190620009cd565b50620007859291505b80821115620007855760008155600101620009f3565b6000821982111562000a1f5762000a1f62000bd5565b500190565b80825b600180861162000a38575062000a68565b81870482111562000a4d5762000a4d62000bd5565b8086161562000a5b57918102915b9490941c93800262000a27565b94509492505050565b60006200022e60001960ff85168460008262000a90575060016200022e565b8162000a9f575060006200022e565b816001811462000ab8576002811462000ac35762000af7565b60019150506200022e565b60ff84111562000ad75762000ad762000bd5565b6001841b91508482111562000af05762000af062000bd5565b506200022e565b5060208310610133831016604e8410600b841016171562000b2f575081810a8381111562000b295762000b2962000bd5565b6200022e565b62000b3e848484600162000a24565b80860482111562000b535762000b5362000bd5565b02949350505050565b600081600019048311821515161562000b795762000b7962000bd5565b500290565b60008282101562000b935762000b9362000bd5565b500390565b60028104600182168062000bad57607f821691505b6020821081141562000bcf57634e487b7160e01b600052602260045260246000fd5b50919050565b634e487b7160e01b600052601160045260246000fd5b60805160a05160c05160601c60e051610100516101205161014051612a0d62000c496000396000610e5d0152600061173d0152600061178c01526000611767015260006116be015260006116e8015260006117120152612a0d6000f3fe608060405234801561001057600080fd5b50600436106102535760003560e01c806370a0823111610146578063a217fddf116100c3578063d505accf11610087578063d505accf14610532578063d539139314610545578063d547741f1461055a578063dd62ed3e1461056d578063e63ab1e9146105a6578063f1127ed8146105bb57610253565b8063a217fddf146104de578063a457c2d7146104e6578063a526be72146104f9578063a9059cbb1461050c578063c3cda5201461051f57610253565b806391d148541161010a57806391d148541461048a578063945d12291461049d57806394911356146104b057806395d89b41146104c35780639ab24eb0146104cb57610253565b806370a082311461042057806379cc6790146104495780637ecebe001461045c5780638456cb591461046f5780638e539e8c1461047757610253565b806336568abe116101d457806342966c681161019857806342966c6814610383578063587cde1e146103965780635c19a95c146103da5780635c975abb146103ed5780636fcfff45146103f857610253565b806336568abe1461032f57806339509351146103425780633a46b1a8146103555780633f4ba83a1461036857806340c10f191461037057610253565b806323b872dd1161021b57806323b872dd146102cf578063248a9ca3146102e25780632f2ff15d14610305578063313ce567146103185780633644e5151461032757610253565b806301ffc9a71461025857806306fdde0314610280578063095ea7b31461029557806318160ddd146102a85780631bc28a69146102ba575b600080fd5b61026b610266366004612779565b6105f8565b60405190151581526020015b60405180910390f35b610288610631565b6040516102779190612842565b61026b6102a3366004612681565b6106c4565b6002545b604051908152602001610277565b6102cd6102c8366004612591565b6106da565b005b61026b6102dd3660046125dd565b610703565b6102ac6102f036600461273f565b60009081526006602052604090206001015490565b6102cd610313366004612757565b6107b2565b60405160128152602001610277565b6102ac6107dd565b6102cd61033d366004612757565b6107ec565b61026b610350366004612681565b610866565b6102ac610363366004612681565b6108a2565b6102cd61091c565b6102cd61037e366004612681565b610940565b6102cd61039136600461273f565b6109b4565b6103c26103a4366004612591565b6001600160a01b039081166000908152600860205260409020541690565b6040516001600160a01b039091168152602001610277565b6102cd6103e8366004612591565b6109be565b60055460ff1661026b565b61040b610406366004612591565b6109c8565b60405163ffffffff9091168152602001610277565b6102ac61042e366004612591565b6001600160a01b031660009081526020819052604090205490565b6102cd610457366004612681565b6109ea565b6102ac61046a366004612591565b610a6b565b6102cd610a89565b6102ac61048536600461273f565b610aaa565b61026b610498366004612757565b610b06565b6102cd6104ab366004612591565b610b31565b61026b6104be366004612591565b610b55565b610288610b6f565b6102ac6104d9366004612591565b610b7e565b6102ac600081565b61026b6104f4366004612681565b610c13565b61026b610507366004612591565b610cac565b61026b61051a366004612681565b610cc6565b6102cd61052d3660046126aa565b610cd3565b6102cd610540366004612618565b610e09565b6102ac6000805160206129b883398151915281565b6102cd610568366004612757565b610f6d565b6102ac61057b3660046125ab565b6001600160a01b03918216600090815260016020908152604080832093909416825291909152205490565b6102ac60008051602061299883398151915281565b6105ce6105c9366004612701565b610f93565b60408051825163ffffffff1681526020928301516001600160e01b03169281019290925201610277565b60006001600160e01b03198216637965db0b60e01b148061062957506301ffc9a760e01b6001600160e01b03198316145b90505b919050565b6060600380546106409061294c565b80601f016020809104026020016040519081016040528092919081815260200182805461066c9061294c565b80156106b95780601f1061068e576101008083540402835291602001916106b9565b820191906000526020600020905b81548152906001019060200180831161069c57829003601f168201915b505050505090505b90565b60006106d13384846112c4565b50600192915050565b60006106e781335b6113e8565b6106ff6000805160206129988339815191528361144c565b5050565b60006107108484846114d2565b6001600160a01b03841660009081526001602090815260408083203384529091529020548281101561079a5760405162461bcd60e51b815260206004820152602860248201527f45524332303a207472616e7366657220616d6f756e74206578636565647320616044820152676c6c6f77616e636560c01b60648201526084015b60405180910390fd5b6107a785338584036112c4565b506001949350505050565b6000828152600660205260409020600101546107ce81336106e2565b6107d8838361144c565b505050565b60006107e76116b1565b905090565b6001600160a01b038116331461085c5760405162461bcd60e51b815260206004820152602f60248201527f416363657373436f6e74726f6c3a2063616e206f6e6c792072656e6f756e636560448201526e103937b632b9903337b91039b2b63360891b6064820152608401610791565b6106ff82826117dc565b3360008181526001602090815260408083206001600160a01b038716845290915281205490916106d191859061089d90869061289b565b6112c4565b60004382106108f35760405162461bcd60e51b815260206004820152601f60248201527f4552433230566f7465733a20626c6f636b206e6f7420796574206d696e6564006044820152606401610791565b6001600160a01b03831660009081526009602052604090206109159083611843565b9392505050565b60008051602061299883398151915261093581336106e2565b61093d61191c565b50565b6000805160206129b883398151915261095981336106e2565b6109aa6040518060400160405280600c81526020016b036b4b73a34b733903a379d160a51b815250846040518060400160405280600981526020016801030b6b7bab73a1d160bd1b815250856119af565b6107d883836119f8565b61093d3382611a02565b61093d3382611a0c565b6001600160a01b03811660009081526009602052604081205461062990611221565b60006109f6833361057b565b905081811015610a545760405162461bcd60e51b8152602060048201526024808201527f45524332303a206275726e20616d6f756e74206578636565647320616c6c6f77604482015263616e636560e01b6064820152608401610791565b610a6183338484036112c4565b6107d88383611a02565b6001600160a01b038116600090815260076020526040812054610629565b600080516020612998833981519152610aa281336106e2565b61093d611a85565b6000438210610afb5760405162461bcd60e51b815260206004820152601f60248201527f4552433230566f7465733a20626c6f636b206e6f7420796574206d696e6564006044820152606401610791565b610629600a83611843565b60009182526006602090815260408084206001600160a01b0393909316845291905290205460ff1690565b6000610b3d81336106e2565b6106ff6000805160206129b88339815191528361144c565b600061062960008051602061299883398151915283610b06565b6060600480546106409061294c565b6001600160a01b0381166000908152600960205260408120548015610c00576001600160a01b0383166000908152600960205260409020610bc06001836128f2565b81548110610bde57634e487b7160e01b600052603260045260246000fd5b60009182526020909120015464010000000090046001600160e01b0316610c03565b60005b6001600160e01b03169392505050565b3360009081526001602090815260408083206001600160a01b038616845290915281205482811015610c955760405162461bcd60e51b815260206004820152602560248201527f45524332303a2064656372656173656420616c6c6f77616e63652062656c6f77604482015264207a65726f60d81b6064820152608401610791565b610ca233858584036112c4565b5060019392505050565b60006106296000805160206129b883398151915283610b06565b60006106d13384846114d2565b83421115610d235760405162461bcd60e51b815260206004820152601d60248201527f4552433230566f7465733a207369676e617475726520657870697265640000006044820152606401610791565b604080517fe48329057bfd03d55e49b547132e39cffd9c1820ad7b9d4c5307691425d15adf60208201526001600160a01b038816918101919091526060810186905260808101859052600090610d9d90610d959060a00160405160208183030381529060405280519060200120611b00565b858585611b4e565b9050610da881611b76565b8614610df65760405162461bcd60e51b815260206004820152601960248201527f4552433230566f7465733a20696e76616c6964206e6f6e6365000000000000006044820152606401610791565b610e008188611a0c565b50505050505050565b83421115610e595760405162461bcd60e51b815260206004820152601d60248201527f45524332305065726d69743a206578706972656420646561646c696e650000006044820152606401610791565b60007f0000000000000000000000000000000000000000000000000000000000000000888888610e888c611b76565b6040805160208101969096526001600160a01b0394851690860152929091166060840152608083015260a082015260c0810186905260e0016040516020818303038152906040528051906020012090506000610ee382611b00565b90506000610ef382878787611b4e565b9050896001600160a01b0316816001600160a01b031614610f565760405162461bcd60e51b815260206004820152601e60248201527f45524332305065726d69743a20696e76616c6964207369676e617475726500006044820152606401610791565b610f618a8a8a6112c4565b50505050505050505050565b600082815260066020526040902060010154610f8981336106e2565b6107d883836117dc565b60408051808201909152600080825260208201526001600160a01b0383166000908152600960205260409020805463ffffffff8416908110610fe557634e487b7160e01b600052603260045260246000fd5b60009182526020918290206040805180820190915291015463ffffffff8116825264010000000090046001600160e01b0316918101919091529392505050565b61102f82826110b5565b6002546001600160e01b0310156110a15760405162461bcd60e51b815260206004820152603060248201527f4552433230566f7465733a20746f74616c20737570706c79207269736b73206f60448201526f766572666c6f77696e6720766f74657360801b6064820152608401610791565b6110af600a6111a883611b9e565b50505050565b6001600160a01b03821661110b5760405162461bcd60e51b815260206004820152601f60248201527f45524332303a206d696e7420746f20746865207a65726f2061646472657373006044820152606401610791565b61111760008383611d4f565b8060026000828254611129919061289b565b90915550506001600160a01b0382166000908152602081905260408120805483929061115690849061289b565b90915550506040518181526001600160a01b038316906000907fddf252ad1be2c89b69c2b068fc378daa952ba7f163c4a11628f55a4df523b3ef9060200160405180910390a36106ff60008383611d9a565b6000610915828461289b565b60006001600160e01b0382111561121d5760405162461bcd60e51b815260206004820152602760248201527f53616665436173743a2076616c756520646f65736e27742066697420696e20326044820152663234206269747360c81b6064820152608401610791565b5090565b600063ffffffff82111561121d5760405162461bcd60e51b815260206004820152602660248201527f53616665436173743a2076616c756520646f65736e27742066697420696e203360448201526532206269747360d01b6064820152608401610791565b6001600160a01b038381166000908152600860205260408082205485841683529120546107d892918216911683611da5565b600061091582846128f2565b6001600160a01b0383166113265760405162461bcd60e51b8152602060048201526024808201527f45524332303a20617070726f76652066726f6d20746865207a65726f206164646044820152637265737360e01b6064820152608401610791565b6001600160a01b0382166113875760405162461bcd60e51b815260206004820152602260248201527f45524332303a20617070726f766520746f20746865207a65726f206164647265604482015261737360f01b6064820152608401610791565b6001600160a01b0383811660008181526001602090815260408083209487168084529482529182902085905590518481527f8c5be1e5ebec7d5bd14f71427d1e84f3dd0314c0f7b2291e5b200ac8c7c3b925910160405180910390a3505050565b6113f28282610b06565b6106ff5761140a816001600160a01b03166014611ee2565b611415836020611ee2565b6040516020016114269291906127cd565b60408051601f198184030181529082905262461bcd60e51b825261079191600401612842565b6114568282610b06565b6106ff5760008281526006602090815260408083206001600160a01b03851684529091529020805460ff1916600117905561148e3390565b6001600160a01b0316816001600160a01b0316837f2f8788117e7eff1d82e926ec794901d17c78024a50270940304540a733656f0d60405160405180910390a45050565b6001600160a01b0383166115365760405162461bcd60e51b815260206004820152602560248201527f45524332303a207472616e736665722066726f6d20746865207a65726f206164604482015264647265737360d81b6064820152608401610791565b6001600160a01b0382166115985760405162461bcd60e51b815260206004820152602360248201527f45524332303a207472616e7366657220746f20746865207a65726f206164647260448201526265737360e81b6064820152608401610791565b6115a3838383611d4f565b6001600160a01b0383166000908152602081905260409020548181101561161b5760405162461bcd60e51b815260206004820152602660248201527f45524332303a207472616e7366657220616d6f756e7420657863656564732062604482015265616c616e636560d01b6064820152608401610791565b6001600160a01b0380851660009081526020819052604080822085850390559185168152908120805484929061165290849061289b565b92505081905550826001600160a01b0316846001600160a01b03167fddf252ad1be2c89b69c2b068fc378daa952ba7f163c4a11628f55a4df523b3ef8460405161169e91815260200190565b60405180910390a36110af848484611d9a565b6000306001600160a01b037f00000000000000000000000000000000000000000000000000000000000000001614801561170a57507f000000000000000000000000000000000000000000000000000000000000000046145b1561173657507f00000000000000000000000000000000000000000000000000000000000000006106c1565b50604080517f00000000000000000000000000000000000000000000000000000000000000006020808301919091527f0000000000000000000000000000000000000000000000000000000000000000828401527f000000000000000000000000000000000000000000000000000000000000000060608301524660808301523060a0808401919091528351808403909101815260c090920190925280519101206106c1565b6117e68282610b06565b156106ff5760008281526006602090815260408083206001600160a01b0385168085529252808320805460ff1916905551339285917ff6391f5c32d9c69d2a47ea670b442974b53935d1edc7fd64eb21e047a839171b9190a45050565b8154600090815b818110156118b557600061185e82846120c4565b90508486828154811061188157634e487b7160e01b600052603260045260246000fd5b60009182526020909120015463ffffffff1611156118a1578092506118af565b6118ac81600161289b565b91505b5061184a565b811561190757846118c76001846128f2565b815481106118e557634e487b7160e01b600052603260045260246000fd5b60009182526020909120015464010000000090046001600160e01b031661190a565b60005b6001600160e01b031695945050505050565b60055460ff166119655760405162461bcd60e51b815260206004820152601460248201527314185d5cd8589b194e881b9bdd081c185d5cd95960621b6044820152606401610791565b6005805460ff191690557f5db9ee0a495bf2e6ff9c91a7834c1ba4fdd244a5e8aa4e537bd38aeae4b073aa335b6040516001600160a01b03909116815260200160405180910390a1565b6110af848484846040516024016119c99493929190612855565b60408051601f198184030181529190526020810180516001600160e01b0316638f624be960e01b1790526120df565b6106ff8282611025565b6106ff8282612100565b6001600160a01b038281166000818152600860208181526040808420805485845282862054949093528787166001600160a01b03198416811790915590519190951694919391928592917f3134e8a2e6d97e929a7e54011ea5485d7d196dd5f0ba4d4ef95803e8e3fc257f9190a46110af828483611da5565b60055460ff1615611acb5760405162461bcd60e51b815260206004820152601060248201526f14185d5cd8589b194e881c185d5cd95960821b6044820152606401610791565b6005805460ff191660011790557f62e78cea01bee320cd4e420270b5ea74000d11b0c9f74754ebdbfc544b05a2586119923390565b6000610629611b0d6116b1565b8360405161190160f01b6020820152602281018390526042810182905260009060620160405160208183030381529060405280519060200120905092915050565b6000806000611b5f87878787612118565b91509150611b6c81612205565b5095945050505050565b6001600160a01b03811660009081526007602052604090208054600181018255905b50919050565b825460009081908015611bf75785611bb76001836128f2565b81548110611bd557634e487b7160e01b600052603260045260246000fd5b60009182526020909120015464010000000090046001600160e01b0316611bfa565b60005b6001600160e01b03169250611c1383858763ffffffff16565b9150600081118015611c5f57504386611c2d6001846128f2565b81548110611c4b57634e487b7160e01b600052603260045260246000fd5b60009182526020909120015463ffffffff16145b15611ccd57611c6d826111b4565b86611c796001846128f2565b81548110611c9757634e487b7160e01b600052603260045260246000fd5b9060005260206000200160000160046101000a8154816001600160e01b0302191690836001600160e01b03160217905550611d46565b856040518060400160405280611ce243611221565b63ffffffff168152602001611cf6856111b4565b6001600160e01b039081169091528254600181018455600093845260209384902083519101805493909401519091166401000000000263ffffffff91821663ffffffff1990931692909217161790555b50935093915050565b60055460ff1615611d955760405162461bcd60e51b815260206004820152601060248201526f14185d5cd8589b194e881c185d5cd95960821b6044820152606401610791565b6107d8565b6107d8838383611286565b816001600160a01b0316836001600160a01b031614158015611dc75750600081115b156107d8576001600160a01b03831615611e55576001600160a01b03831660009081526009602052604081208190611e02906112b885611b9e565b91509150846001600160a01b03167fdec2bacdd2f05b59de34da9b523dff8be42e5e38e818c82fdb0bae774387a7248383604051611e4a929190918252602082015260400190565b60405180910390a250505b6001600160a01b038216156107d8576001600160a01b03821660009081526009602052604081208190611e8b906111a885611b9e565b91509150836001600160a01b03167fdec2bacdd2f05b59de34da9b523dff8be42e5e38e818c82fdb0bae774387a7248383604051611ed3929190918252602082015260400190565b60405180910390a25050505050565b60606000611ef18360026128d3565b611efc90600261289b565b67ffffffffffffffff811115611f2257634e487b7160e01b600052604160045260246000fd5b6040519080825280601f01601f191660200182016040528015611f4c576020820181803683370190505b509050600360fc1b81600081518110611f7557634e487b7160e01b600052603260045260246000fd5b60200101906001600160f81b031916908160001a905350600f60fb1b81600181518110611fb257634e487b7160e01b600052603260045260246000fd5b60200101906001600160f81b031916908160001a9053506000611fd68460026128d3565b611fe190600161289b565b90505b6001811115612075576f181899199a1a9b1b9c1cb0b131b232b360811b85600f166010811061202357634e487b7160e01b600052603260045260246000fd5b1a60f81b82828151811061204757634e487b7160e01b600052603260045260246000fd5b60200101906001600160f81b031916908160001a90535060049490941c9361206e81612935565b9050611fe4565b5083156109155760405162461bcd60e51b815260206004820181905260248201527f537472696e67733a20686578206c656e67746820696e73756666696369656e746044820152606401610791565b60006120d360028484186128b3565b6109159084841661289b565b80516a636f6e736f6c652e6c6f67602083016000808483855afa5050505050565b61210a8282612408565b6110af600a6112b883611b9e565b6000807f7fffffffffffffffffffffffffffffff5d576e7357a4501ddfe92f46681b20a083111561214f57506000905060036121fc565b8460ff16601b1415801561216757508460ff16601c14155b1561217857506000905060046121fc565b6040805160008082526020820180845289905260ff881692820192909252606081018690526080810185905260019060a0016020604051602081039080840390855afa1580156121cc573d6000803e3d6000fd5b5050604051601f1901519150506001600160a01b0381166121f5576000600192509250506121fc565b9150600090505b94509492505050565b600081600481111561222757634e487b7160e01b600052602160045260246000fd5b14156122325761093d565b600181600481111561225457634e487b7160e01b600052602160045260246000fd5b14156122a25760405162461bcd60e51b815260206004820152601860248201527f45434453413a20696e76616c6964207369676e617475726500000000000000006044820152606401610791565b60028160048111156122c457634e487b7160e01b600052602160045260246000fd5b14156123125760405162461bcd60e51b815260206004820152601f60248201527f45434453413a20696e76616c6964207369676e6174757265206c656e677468006044820152606401610791565b600381600481111561233457634e487b7160e01b600052602160045260246000fd5b141561238d5760405162461bcd60e51b815260206004820152602260248201527f45434453413a20696e76616c6964207369676e6174757265202773272076616c604482015261756560f01b6064820152608401610791565b60048160048111156123af57634e487b7160e01b600052602160045260246000fd5b141561093d5760405162461bcd60e51b815260206004820152602260248201527f45434453413a20696e76616c6964207369676e6174757265202776272076616c604482015261756560f01b6064820152608401610791565b6001600160a01b0382166124685760405162461bcd60e51b815260206004820152602160248201527f45524332303a206275726e2066726f6d20746865207a65726f206164647265736044820152607360f81b6064820152608401610791565b61247482600083611d4f565b6001600160a01b038216600090815260208190526040902054818110156124e85760405162461bcd60e51b815260206004820152602260248201527f45524332303a206275726e20616d6f756e7420657863656564732062616c616e604482015261636560f01b6064820152608401610791565b6001600160a01b03831660009081526020819052604081208383039055600280548492906125179084906128f2565b90915550506040518281526000906001600160a01b038516907fddf252ad1be2c89b69c2b068fc378daa952ba7f163c4a11628f55a4df523b3ef9060200160405180910390a36107d883600084611d9a565b80356001600160a01b038116811461062c57600080fd5b803560ff8116811461062c57600080fd5b6000602082840312156125a2578081fd5b61091582612569565b600080604083850312156125bd578081fd5b6125c683612569565b91506125d460208401612569565b90509250929050565b6000806000606084860312156125f1578081fd5b6125fa84612569565b925061260860208501612569565b9150604084013590509250925092565b600080600080600080600060e0888a031215612632578283fd5b61263b88612569565b965061264960208901612569565b9550604088013594506060880135935061266560808901612580565b925060a0880135915060c0880135905092959891949750929550565b60008060408385031215612693578182fd5b61269c83612569565b946020939093013593505050565b60008060008060008060c087890312156126c2578182fd5b6126cb87612569565b955060208701359450604087013593506126e760608801612580565b92506080870135915060a087013590509295509295509295565b60008060408385031215612713578182fd5b61271c83612569565b9150602083013563ffffffff81168114612734578182fd5b809150509250929050565b600060208284031215612750578081fd5b5035919050565b60008060408385031215612769578182fd5b823591506125d460208401612569565b60006020828403121561278a578081fd5b81356001600160e01b031981168114610915578182fd5b600081518084526127b9816020860160208601612909565b601f01601f19169290920160200192915050565b60007f416363657373436f6e74726f6c3a206163636f756e742000000000000000000082528351612805816017850160208801612909565b7001034b99036b4b9b9b4b733903937b6329607d1b6017918401918201528351612836816028840160208801612909565b01602801949350505050565b60006020825261091560208301846127a1565b60006080825261286860808301876127a1565b6001600160a01b0386166020840152828103604084015261288981866127a1565b91505082606083015295945050505050565b600082198211156128ae576128ae612981565b500190565b6000826128ce57634e487b7160e01b81526012600452602481fd5b500490565b60008160001904831182151516156128ed576128ed612981565b500290565b60008282101561290457612904612981565b500390565b60005b8381101561292457818101518382015260200161290c565b838111156110af5750506000910152565b60008161294457612944612981565b506000190190565b60028104600182168061296057607f821691505b60208210811415611b9857634e487b7160e01b600052602260045260246000fd5b634e487b7160e01b600052601160045260246000fdfe65d7a28e3265b37a6474929f336521b332c1681b933f6cb9f3376673440d862a9f2df0fed2c77648de5860a4cc508cd0818c85b8b8a1ab4ceeef8d981c8956a6a264697066735822122098803682f77f2abaedae2ed4d9251faaadfa0ea3f84da24e2f61d44b8e78f25164736f6c63430008020033dec2bacdd2f05b59de34da9b523dff8be42e5e38e818c82fdb0bae774387a724",
  "linkReferences": {},
  "deployedLinkReferences": {}
}